:100000000C947A0D0C94BE0D0C94BE0D0C94BE0D88
:100010000C94BE0D0C94BE0D0C94BE0D0C94BE0D34
:100020000C94BE0D0C94BE0D0C949A1B0C945E1B8C
:100030000C94BE0D0C94BE0D0C94BE0D0C94BE0D14
:100040000C94BE0D0C94A3310C94BE0D0C94BE0DFB
:100050000C94BE0D0C94DB2A0C94BE0D0C94BE0DBA
:100060000C94BE0D0C94BE0D0C94BE0D0C94BE0DE4
:100070000C94BE0D0C94BE0D0C94BE0D0C94BE0DD4
:100080000C94BE0D0C94BE0D0C94BE0D0C94BE0DC4
:100090000C94BE0D0C94BE0D0C94BE0D0C94BE0DB4
:1000A0000C94BE0D0C94BE0D0C94BE0D000000000F
:1000B000000400000000160000000004160000000C
:1000C0000600000000040600000016060000000400
:1000D00016060000170000000004170000001617A5
:1000E00000000004161700000700000000040700CD
:1000F00000000A00000000040A0000001A000000CE
:1001000000041A000000161A0000000000000000A1
:100110001300000000041300000016130000000488
:1001200016130000171A00000004171700001B0028
:10013000000000041B000000071A0000000407076D
:1001400000000A1A000000040A0A00000B00000068
:1001500000040B000000160B00000004160B00004A
:10016000060B00000004060B000016060B00000042
:1001700000000000170B00000004170B0000000037
:100180000000000416170B0009000000000409001D
:1001900000000A0B000000040A0B00001A0B00000C
:1001A00000041A0B00000000000000000000000026
:1001B000130B00000004130B000016130B000004C7
:1001C00016130B000E00000000040E000000160EB7
:1001D00000000004160E00000500000000040500E9
:1001E00000000000000000040505000011000000F0
:1001F000000411000000161100000004111100009D
:100200001D00000000041D00000016160000000480
:10021000161600001900000000041900000016194D
:100220000000000000000000070819000004071982
:1002300000000A11000000040A1100001000000074
:10024000000410000000161000000004161000004A
:100250001311000000041010000000000000000452
:10026000131300000D00000000040D00000000004A
:100270000000000000000000070810000004071044
:100280000000000000000004070D00001C0000003A
:1002900000041C000000161C00000004161C0000D6
:1002A000061C00000004060600000000000000001C
:1002B00000000000171C00000000000000001617DE
:1002C0001C00000000000000071C000000040909D9
:1002D00000000A1C0000000409170000101C0000A8
:1002E000000000000000000000000000000000000E
:1002F000131C000000000000000016131C00000486
:1003000016130B1C0E1100000004060E11001B1C1E
:100310000000000000000000051C00000004051C97
:1003200000000000000000000000000015000000B8
:100330000004150000001608150000041515000043
:10034000061500000004061500001606150000043E
:1003500016061500171500000004171500001617E3
:10036000150000000000000007150000000407153C
:1003700000000A15000000040A1500001A1500000C
:10038000000000000000000000000000000000006D
:1003900013150000000413150000161315000004C7
:1003A00013131500000000000004171715001B159B
:1003B0000000000000000000070815000004070707
:1003C00015000000000000040A0A1500150B0000CB
:1003D000000000000000160B1500000000000000E7
:1003E000060B1500000406061500000000000000C2
:1003F00000000000170B15000004170B0F00000091
:1004000000000000000000000915000000040915AC
:1004100000000000000000040909150000000000B1
:1004200000000000000000000000000000000000CC
:10043000130B15000004130B150000000000000052
:10044000000000000E150000000000000000000089
:100450000000000000000000051500000004051564
:100460000000000000000004050515000F0000005A
:1004700000040F000000160F00000004160F00001B
:10048000060F00000004060F00000000000000003E
:100490000000000014000000000414000000161406
:1004A000000000041614000007080F0000040614E2
:1004B00000000A0F000000040A0F000010150000E1
:1004C00000040F0F0000000000000000000000000A
:1004D000130F00000004130F000016130F00000498
:1004E00013130F000D08150000000000000016088F
:1004F00015190000000000000000000000040707BC
:100500000F000000000000040A0A0F000F1C00008A
:10051000000000000000160F1C000000000000009A
:1005200006151C00000406060F0000000000000075
:100530000000000017151C00000000000000161746
:10054000151C000000000000090F00000004090F46
:10055000000000000000000409090F000000000076
:10056000000000000000000000000000000000008B
:10057000130B0F000000000000000000000000004E
:10058000000000000E0F000000000000000000004E
:100590000000000000000000050F00000004050F2F
:1005A000000000000000000000000000000000004B
:1005B0000008000000001200000000081200000007
:1005C00004000000000804000000120400000008FD
:1005D00012040000180000000008180000001218A3
:1005E0000000000812180000041800000008041899
:1005F0000000120418000008120418000C0000008B
:1006000000080C000000120C00000008120C000092
:10061000040C00000008040C000012040C00000888
:1006200012040C00180C00000008180C000012182E
:100630000C00000812180C0004180C000008041824
:100640000C001204180C00081204180C0000000022
:10065000000808000000121200000012080000004C
:100660000404000000040800000004120000000858
:1006700004120000181800000018080000001812EA
:1006800000000008181200001804000000081804F8
:100690000000121804000008121804000C0C0000DE
:1006A000000C080000000C12000000080C120000F2
:1006B0000C04000000080C040000120C04000008E8
:1006C000120C04000C18000000080C1800000C129A
:1006D00018000008120C1800040C18000008040C84
:1006E000180012040C18000812040C180000000076
:1006F00000150000000011000000001511000000AE
:100700000F00000000150F00000016000000000F91
:100710000F0000000A00000000150A000000110A86
:100720000000000A110000000F0A00000000000095
:1007300000000700000000070F0000000600000096
:100740000015060000001106000000000000000077
:100750001300000000151300000016130000001322
:100760000F000000050000000015050000000A0A47
:100770000000000000000000050F00000000000065
:10078000000000000000000F050000000B0000004A
:10079000001A0000000019000000001A11000000FB
:1007A0001D000000001A0F000000160B0000000FD3
:1007B000190000000A0B000000150A0B00001000D1
:1007C00000000015100000001B00000000000000E9
:1007D000000016100000000F10000000060B0000C3
:1007E0000015060B000011060B0000151900000093
:1007F000130B000000000000000000000000000FCC
:10080000060B00000900000000150900000010059B
:1008100000000010050815000F090000000000008E
:10082000000010130000000000000000170000008E
:100830000015170000001117000000151117000027
:100840000F17000000000000000016170000001540
:10085000161700000E00000000150E000000110E1B
:1008600000000000000000000E0F0000000000006B
:100870000000160E0000000F0E000000061700001A
:10088000000000000000170C121100000000000022
:100890001317000000000000000011161700000FE1
:1008A00013000000060E0000000000000000051705
:1008B0000000000000000000060E0F000000000015
:1008C000000000000000000000000000170B000006
:1008D0000015170B000011170B00001A170B000072
:1008E0000F170B00000000000000000000000000D7
:1008F000000000000A0B1700001A0E000000110A89
:10090000170B0000000000001B1700000000000093
:10091000000007170B0000000000000017060B0086
:1009200000000000000000000000000000000000C7
:1009300013170B0000000000000000000000000082
:10094000000000000917000000091708150009172A
:10095000081100000000000000000000000000007E
:100960000000101317000000000000001600000037
:1009700000151600000011160000001511160000E9
:100980000F16000000150F16000016160000000FCD
:100990000F1600000A16000000150A160000110AC2
:1009A0001600000A11160000000000000000000000
:1009B00000000716000000000000000006160000FE
:1009C00000150616000011060816000000000000C1
:1009D000131600000015131600001613160000135E
:1009E0000F081600051600000015051600000A0A7B
:1009F0001600000000000000050F081600000000AF
:100A0000000000000000000F051600000B1600009B
:100A1000001A1600000019081600001A111600002E
:100A20001D081600001A0F160000160B0816000FFE
:100A3000190816000A0B160000000000000010162E
:100A400000000015101600001B0816000000000032
:100A5000000016101600000F10160000070000001E
:100A600000150700000011070000001A0700000031
:100A7000130B160000150F07000000000000000F08
:100A800007000000070A0000000000000000100539
:100A900016000010050815160000000000000000F8
:100AA00000001013160000000000000017160000E0
:100AB00000151716000011171600000000000000B6
:100AC0000F17160000000000000016171600001592
:100AD000161716000E16000000150E160000110E57
:100AE00016000000000000000000000000000000F0
:100AF0000000160E1600000F0E1600000617160056
:100B0000000000000000170C121116000000000089
:100B10000000000000000000000000000000000FC6
:100B200013160000060E1600000000000000051756
:100B30001600000000000000060E0F08160000005E
:100B4000000000000000000000000000170B16006D
:100B50000015170B160011170B16001A170B1600AD
:100B60000000000000000000000000000000000085
:100B7000000000000A0B1716001A0E160000110ADA
:100B8000170B16000000000000000000000000002D
:100B9000000007170B1600000000000007160000F9
:100BA00000150716000011071600001A07160000AE
:100BB00013170B1600150F07160000000000000F9A
:100BC0000716000000000000000000000000000008
:100BD0000000000000000000000000000000000015
:100BE00000001013171600000000000000000000B5
:100BF0000008000000001C00000000081C000000AD
:100C0000160000000008160000001C160000000876
:100C10001C1600000000000000002C000000000076
:100C20002B00000000000000000000002800000071
:100C300000000000000000000000000000000000B4
:100C4000000000000000000000001E000000000086
:100C50001F00000000002000000000002100000034
:100C6000000022000000000023000000000024001B
:100C70000000000025000000000026000000000029
:100C80001E00270000001E001E0000001E001F00A6
:100C900000001E00200000001E00210000001E00B9
:100CA000220000002700000000001E0027000000B6
:100CB0001F0027000000200027000000210027005F
:100CC000000022002700000023002700000024006D
:100CD0002700000025002700000026002700000054
:100CE0001E00270027001E001E0027001E001F00F8
:100CF00027001E00200027001E00210027001E00E4
:100D0000220027000000000000001E00000000007C
:100D10001F00000000002000000000002100000073
:100D2000000022000000000023000000000024005A
:100D30000000000025000000000026000000000068
:100D40001E00270000001E001E0000001E001F00E5
:100D500000001E00200000001E00210000001E00F8
:100D6000220000002700000000001E0027000000F5
:100D70001F0027000000200027000000210027009E
:100D800000002200270000002300270000002400AC
:100D90002700000025002700000026002700000093
:100DA0001E00270027001E001E0027001E001F0037
:100DB00027001E00200027001E00210027001E0023
:100DC000220027000000000000001E0200000000BA
:100DD0002900000000002900330200002502000065
:100DE0000000000000000000000000000000000003
:100DF000000000002D0200000000000000000000C4
:100E000000000000000000000000000000000000E2
:100E100000000000000000000000000000000000D2
:100E200000000000000000000000000000000000C2
:100E300000000000000000000000000000000000B2
:100E400000000000000000000000000000000000A2
:100E50000000000000000000000000000000000092
:100E60000000000000000000000000000000000082
:100E70000000000000000000000000000000000072
:100E80000000000000000000000000000000000062
:100E90000000000000000000000000000000000052
:100EA0000000000000000000000000000000000042
:100EB0000000000000000000000000000000000032
:100EC0000000000000000000000000000000000022
:100ED0000000000000000000000000000000000012
:100EE0000000000000000000000000000000000002
:100EF00000000000000000000000000000000000F2
:100F000000000000000000000000000000000000E1
:100F100000000000000000000000000000000000D1
:100F200000000000000000000000000000000000C1
:100F300000000000000000000000000000000000B1
:100F4000000000000000000000000700000000009A
:100F50003400160000000700000000000000000040
:100F60000000000000000000110034001700000025
:100F7000000000000C0011000A000000000000004A
:100F800034000F000F0000000000000008001500F2
:100F90000000000000000000000000000000000051
:100FA000000000000C0011000A000000000000001A
:100FB00034001900080000000000000000000000DC
:100FC0000000000000000000000000000000000021
:100FD00000000000080015000000000000000000F4
:100FE0000000000000000000000000000000000001
:100FF00000000000000000000000000000000000F1
:10100000000000000C0011000A00000000000000B9
:101010003400070000000000000000000000000095
:1010200000000000000000000000000000000000C0
:1010300000000000000000000000000000000000B0
:1010400000000000000000000000000000000000A0
:101050000000000000000000000000000000000090
:101060000000000008001500000000000000000063
:10107000340010000000000000000000000000002C
:101080000000000000000000000000000000000060
:101090000000000000000000000000000000000050
:1010A0000000000000000000000000000000000040
:1010B0000000000000000000000000000000000030
:1010C00000000000000000000000260200000000F8
:1010D0002D020000000000000000000027020000B8
:1010E00000002602270200000000000000000000AF
:1010F000000000002D0000000000000000000000C3
:1011000000000000000000000000000000000000DF
:1011100000000000000000000000000000000000CF
:101120000000000037000000000000000000000088
:10113000000000000000000000000000270237004F
:101140000000260227023700000000000000000017
:10115000000000000000000000000000000000008F
:10116000000000000000000000000000000000007F
:10117000000000000000000000000000000000006F
:101180000000000036000000000000000000000029
:1011900000000000000000000000000027023600F0
:1011A00000002602270236000000000000000000B8
:1011B000000000000000000000000000000000002F
:1011C000000000000000000000000000000000001F
:1011D000000000000000000000000000000000000F
:1011E00000000000330000000000000000000000CC
:1011F0000000000000000000000000002702330093
:10120000000026022702330000000000000000005A
:1012100000000000000000000000000000000000CE
:1012200000000000000000000000000000000000BE
:1012300000000000000000000000000000000000AE
:101240000000000000000000000037000000000067
:1012500037000000000033020000000026020000FA
:101260000000000000000000360200000000000046
:10127000000000003400000000000000000000003A
:101280000000000000000000000000003402000028
:10129000000000000000000000000000000000004E
:1012A0000000000027020000000000000000000015
:1012B00000000000000000000000000026022702DD
:1012C00050000000000000000000000000000000CE
:1012D000000000000000000000000000000000000E
:1012E00000000000000000000000000000000000FE
:1012F00000000000000000000000000000000000EE
:1013000000000000380200000000000000000000A3
:101310000000000000000000000000003702000094
:1013200000000000000000003602370250000000FC
:1013300000000000340034005000000000000000F5
:101340000000000000000000000000003402340231
:10135000500000000000000000000000000000003D
:10136000000000001E02000000000000000000005D
:10137000000000000000000000000000000000006D
:10138000000000000000000000000000000000005D
:10139000000000000000000000000000000000004D
:1013A000000000000000000000000000000000003D
:1013B000000000000000000000000000000000002D
:1013C000000000000000000000000000000000001D
:1013D00020000080200000800000000084000080C9
:1013E000000000003000008021000080210000800B
:1013F00052000080800000803200008031000080B8
:10140000400000804100008050000080810000808A
:101410003300008042000080430000800000000094
:1014200011000080820000803400008044000080B1
:101430004500008000000000510000808300008013
:10144000350000804600008047000080000000005A
:101450001000008000000000B200008000000000CA
:10146000100000800000000010000080000000005C
:10147000B000008000000000B0000080000000000C
:101480001000008093000080A500008060000080B4
:1014900061000080000000001000008092000080C9
:1014A000A400008062000080630000800000000053
:1014B0005200008091000080A30000806400008042
:1014C0006500008000000000110000809000008096
:1014D000A2000080A10000806600008067000080FC
:1014E000540000809400008000000000A0000080F4
:1014F0007000008071000080530000800000000038
:1015000000000000000000007200008072000080F7
:1015100000000000000000000000000000000000CB
:1015200000000000000000000000000000000000BB
:1015300000000000000000000000000000000000AB
:10154000000000000000000000000000000000009B
:10155000000000000000000000000000000000008B
:10156000000000000000000000000000000000007B
:10157000000000000000000000000000000000006B
:10158000000000000000000000000000000000005B
:10159000000000000000000000000000000000004B
:1015A000000000000000000000000000000000003B
:1015B000000000000000000000000000000000002B
:1015C000000000000000000000000000000000001B
:1015D000000000000000000000000000000000000B
:1015E00000000000000000000000000000000000FB
:1015F00000000000000000000000000000000000EB
:1016000000000000000000000000000000000000DA
:1016100000000000000000000000000000000000CA
:1016200000000000000000000000000000000000BA
:1016300000000000000000000000000000000000AA
:10164000000000000000000000000000000000009A
:10165000000000000000000000000000000000008A
:1016600000000000240221022B000130E0000000F5
:101670002F00140004001D00240200002F021A0095
:1016800015001B00E2002A003002090016000600C7
:1016900052002800260213001700190051004600CE
:1016A0002E000A000700050000000352E300490075
:1016B000000029000000035401542A000000280003
:1016C0000000035425020D000B000E000000035221
:1016D00027020F0011001000500000002E02180019
:1016E000080036004F002C0030001C000C003700B2
:1016F00031004C001E023300120034001F020000B3
:10170000200238002D000130E40000000352E20006
:10171000E00000300030000000302B0000300030CE
:101720000030003000300030003000300030003039
:101730000030003000300030010000300030003058
:101740000030003001000030003000300030003048
:10175000000000302A00003000000030000000309F
:101760000100003000000030000000300030003088
:101770000030003000000030003000300030003019
:101780000100003000300030003000300100003037
:1017900000300030003000300030003000300030C9
:1017A00000300030003000304C00E600E400003033
:1017B00000300000010035000100010001000000C0
:1017C000023001000100010022000100023001008E
:1017D00001000100010001000230010001000100D0
:1017E00001000100023001000100010001000100C0
:1017F0000230010001000100000001002200010090
:1018000000000100000001000100010000000100D3
:101810000000010002300100010001000000010091
:10182000023001000100010001000100023001004E
:10183000010001000100010002300100010001006F
:10184000010001000230010001000100023001002E
:101850000230010001000100010000000100010050
:101860000100E100010000003A0001000100010058
:10187000010001003B000100010001000100010026
:101880003C000100010001004B0001003D0001008F
:10189000010001004E0001003E00010001000100B6
:1018A000000001003F0001000000010000000100F5
:1018B00040000100000001000000010041000100A3
:1018C00001000100000001004200010001000100D0
:1018D0004A00010043000100010001004D00010029
:1018E0004400010001000100010001004500010069
:1018F0000100010001000050000001000100E500AE
:101900000100000005010906A101050719E029E70A
:101910001500250195087501810295017508810161
:1019200005081901290595057501910295017503B1
:1019300091010507190029FF150026FF009506757E
:10194000088100C005010902A1010901A1000509E2
:1019500019012905150025019505750181029501DB
:10196000750381010501093009311581257F950233
:101970007508810609381581257F9501750881064E
:10198000050C0A38021581257F950175088106C06E
:10199000C005010980A101850216010026B7001AC1
:1019A00001002AB700751095018100C0050C0901DE
:1019B000A1018503160100269C021A01002A9C023F
:1019C000751095018100C005010906A101050719DF
:1019D000E029E71500250195087501810205081920
:1019E0000129059505750191029501750391010580
:1019F000071900297715002501957875018102C026
:101A00001201100100000008EDFE071301000102A1
:101A1000000109026D00040100A0FA0904000001A0
:101A20000301010009211101000122400007058185
:101A30000308000A09040100010301020009211141
:101A4000010001224D000705820308000A09040273
:101A500000010300000009211101000122360007E6
:101A600005830308000A09040300010300000009BC
:101A7000211101000122390007058403100001042F
:101A800003090416034500720067006F0044006FED
:101A9000007800200045005A00000016034500723F
:101AA0000067006F0044006F007800200045005A76
:101AB0000000000000000000000000000000010223
:101AC00004060A0F17202C3A4A5D71879DB3C7DAC6
:101AD000E9F5FCFFFCF5E9DAC7B39D87715D4A3A89
:101AE0002C20170F0A06040201000000000000006D
:101AF0000000000011241FBECFEFDAE0DEBFCDBF33
:101B000004B603FE24C08091C6029091C702A09142
:101B1000C802B091C9028750904BA740B04BB9F4AE
:101B20001092C6021092C7021092C8021092C90207
:101B300014BE84B7877F84BF88E10FB6F894809382
:101B40006000109260000FBEE0E0FFE3099511E035
:101B5000A0E0B1E0E6ECF6E602C005900D92A638F2
:101B6000B107D9F712E0A6E8B1E001C01D92A63C8A
:101B7000B107E1F70E9481170C9461330C940000C7
:101B80001092B9008AE08093B8000895982F84EAF3
:101B90008093BC008091BC0087FFFCCF8091B9008E
:101BA000887F883021F0803111F081E00895909392
:101BB000BB0084E88093BC008091BC0087FFFCCF11
:101BC0009091B900987F983111F480E0089580E0F9
:101BD000903409F081E0089584E98093BC008091FD
:101BE000BC0084FDFCCF08958093BB0084E8809303
:101BF000BC008091BC0087FFFCCF8091B90090E0D1
:101C0000887F883209F091E0892F089584E88093D5
:101C1000BC008091BC0087FFFCCF8091BB00089581
:101C2000E6E8F1E0E80FF11D8081089508951F9323
:101C3000CF93DF93C6E8D1E010E0899190E00E9455
:101C4000072A180F81E0C439D807B9F7812FDF912F
:101C5000CF911F910895809101018823A9F480E418
:101C60000E94C60D80930101882361F482E10E94E5
:101C7000F40D80930101882329F48FEF0E94F40D65
:101C8000809301010E94EC0D84B1807F84B985B1FD
:101C9000807F85B98AB1837F8AB98BB1837F8BB905
:101CA0003E98469808950E94DD0F809301010E949E
:101CB0002B0E80B38C7080BB81B3836F81BB80E0BF
:101CC00090E0FC01EA57FE4F1082FC01EC56FE4FFB
:101CD000108201968E309105A1F70E94C60F0895DB
:101CE000BF92CF92DF92EF92FF920F931F93CF9309
:101CF000DF9380910101882379F08091A2018F5FA9
:101D00008093A201882341F40E94DD0F809301019A
:101D1000882311F40E946E0F24E9E22E21E0F22EB6
:101D2000C0E0D0E090EAB92E81E0C82ED12C02E0CC
:101D3000C73010F580910101882309F045C080E487
:101D40000E94C60D80930101882399F482E10E94CC
:101D5000F40D80930101882361F4C6010C2E02C0AA
:101D6000880F991F0A94E2F780950E94F40D8093E2
:101D700001010E94EC0D28C0CA30D9F0CB3040F4EC
:101D8000C83089F0C93090F4C73009F09CC008C051
:101D9000CC30A1F0CC3080F0CD3009F094C011C02F
:101DA000209A289890C0219A29988DC0229A2A9822
:101DB0008AC0239A2B9887C0529A01C0539A5B9885
:101DC00082C03E9A46987FC080910101882311F01D
:101DD00010E03EC080E40E94C60D8093010188237C
:101DE00099F483E10E94F40D80930101882361F44A
:101DF00081E40E94C60D80930101882329F40E948A
:101E0000060E182F109501C010E00E94EC0D20C0A6
:101E100042E07C9902C034E001C030E07D9902C00C
:101E200028E001C020E07E9902C090E101C090E06E
:101E30008FB18095881F8827881F8295880F807EA4
:101E4000152F1C251170142B132B122B192B182B4B
:101E5000F7018081811719F01083009300010E941F
:101E60002B0E21960894E11CF11CCE30D10509F00F
:101E70005FCF809100018823C9F0815080930001D9
:101E8000882329F080EA9FE00197F1F70FC020E056
:101E900030E0F901EA57FE4FD901AC56BE4F8C91A4
:101EA00080832F5F3F4F2E30310599F70E946B0FD3
:101EB00081E0DF91CF911F910F91FF90EF90DF9024
:101EC000CF90BF9008958B2D8A95F1F75FB1799BE4
:101ED0009FCF40E09ECF0E945510089556985E987F
:101EE00025982D9826982E9827982F988FEF90E078
:101EF000909389008093880090938B0080938A0050
:101F000090938D0080938C00259A2D9A84EF91E018
:101F100020E931E0F9013197F1F70197D9F7269AD5
:101F20002E9A84EF91E020E931E0F9013197F1F741
:101F30000197D9F7279A2F9A84EF91E020E931E0B1
:101F4000F9013197F1F70197D9F725982D9884EF8A
:101F500091E020E931E0F9013197F1F70197D9F7E4
:101F600026982E9884EF91E020E931E0F90131972D
:101F7000F1F70197D9F727982F9856985E982598EA
:101F80002D9826982E9827982F98089589EA80935F
:101F9000800089E08093810024982C983F988AB132
:101FA0008F748AB96E98479A8BB1806B8BB9769A89
:101FB0000E946E0F0E945410089580E280930101E8
:101FC0008091A301882371F40E94C00D81E0809369
:101FD000A30180E197E220E931E0F9013197F1F7BF
:101FE0000197D9F780E40E94C60D809301018823F0
:101FF00071F50E94F40D80930101882341F50E9440
:10200000F40D80930101882311F58FE30E94F40DF4
:10201000809301018823D9F40E94EC0D80E40E9492
:10202000C60D80930101882391F48CE00E94F40D89
:1020300080930101882359F40E94F40D80930101DB
:10204000882329F48FE30E94F40D809301010E94FC
:10205000EC0D8091010108958091A4019091A5015A
:10206000A091A601B091A7010097A105B10519F0B3
:1020700080E090E0089520E08091A8019091A9016E
:10208000A091AA01B091AB010097A105B10509F09B
:1020900021E081E02827822F089590E084508A3142
:1020A00008F491E0892F0895089560918C02709151
:1020B0008D0280918E0290918F020E94142A569A6E
:1020C0005E9A25982D9826982E9827982F988130DB
:1020D00019F0833031F403C0259A2D9A02C0269A54
:1020E0002E9A0E942C10882311F4279A2F9A089573
:1020F000FF920F931F93182F062F0E946829F82E26
:10210000812F0E947829802F0E94B11F8F2D0E945D
:1021100078291F910F91FF9008952F923F924F922F
:102120005F926F927F928F929F92AF92BF92CF9267
:10213000DF92EF92FF920F931F93DF93CF9300D024
:1021400000D000D0CDB7DEB70E9468298A8382E133
:102150000E9471292091B10129838091AD0190E005
:10216000332433943822DC01A270B070BC83AB837B
:102170008091AE01882319F4442455240DC04424D1
:10218000823011F4442443945524833011F45524AF
:10219000539482E00E946B295AE1852E51E0952EDE
:1021A000AA2422242394EE24FF24F701E455FE4FB1
:1021B0008081882309F4B4C02224B1E0EB16F10435
:1021C00011F422242394F701EE5AFE4FE081F5E04A
:1021D000EF16F10439F43320F9F04CE4C42E46E054
:1021E000D42E21C024E0E216F10461F43320A1F0E2
:1021F0003981332389F48695869534ECC32E30E1FA
:10220000D32E57C096E0E916F10431F4332021F0C3
:10221000A981AA2309F4D6C0D401CD90DC90C114C1
:10222000D10409F47DC0E13009F043C0B5E08B9FD3
:1022300030011124BB2410E0F601E60DF71D0491D6
:102240000023A9F0802F0E94B11F802F0E945E1FE3
:10225000A394442019F0E1E0AE1629F0552001F1D5
:10226000F2E0AF16E9F482E00E94712919C02B81D7
:102270003C81232B09F454C031E0B31609F050C05F
:1022800086E0E816F10409F04BC0112309F448C0B8
:10229000812F0E94B11F812F0E945E1FA39440C016
:1022A0000894611C711C94E0B916D1F1B394102FFD
:1022B000C3CFA3E08A9F3001112400E010E0F801B1
:1022C000E60DF71DEE0FFF1FEC0DFD1D259134915E
:1022D0003E832D83232B21F1BD808B2D0E944D1039
:1022E000882321F08B2D0E94B11F04C08E816D8147
:1022F0000E9478108B2D0E945E1FA394442019F039
:1023000031E0A31629F0552031F082E0A81619F427
:1023100082E00E9471290F5F1F4F0330110579F68B
:102320000894E11CF11CA2E0B0E08A0E9B1EBCE008
:10233000EB16F10409F039CFAA2099F080911C0224
:10234000843611F410921C0280911C02E82FFF27A2
:10235000E7FDF095E854FE4FA0828F5F80931C024A
:1023600026C0332021F1222011F100911C020150DE
:1023700007FD03E6C02EDD24C7FCD094F601E85427
:10238000FE4FF080FF2099F010E007C08AE20E9423
:10239000B11F8AE20E945E1F1F5F1F15B8F3E8EBB2
:1023A000F1E0CE0EDF1ED6011C9200931C028A8142
:1023B0000E947829ECEAF1E01192B1E0E83BFB07DA
:1023C000D9F705C094E4C92E92E1D92E72CF269692
:1023D0000FB6F894DEBF0FBECDBFCF91DF911F9136
:1023E0000F91FF90EF90DF90CF90BF90AF909F90B4
:1023F0008F907F906F905F904F903F902F900895B7
:102400008F929F92AF92BF92CF92DF92EF92FF9204
:102410000F931F93CF93DF935C01613009F4CFC01A
:10242000613020F0623009F0F8C0DBC0FC0181812E
:1024300096E0899FD00111248081A80FB11DFD0174
:10244000EE0FFF1FEE0FFF1FEC53FC4E2591359151
:1024500045915491211531054105510509F4DDC01F
:1024600057FF71C0C9018F70907061E0E62EF12CAA
:10247000012D112D04C0EE0CFF1C001F111F8A95A9
:10248000D2F794E056954795379527959A95D1F7C9
:102490008FE0982E9222C92CDD24F601EA5BFE4FD4
:1024A0008080F601EE0FFF1FEE5FFE4FC081D181ED
:1024B000F5018281882311F1F2E09F1619F481EE73
:1024C0000E94B11FA801970104C0220F331F441FAF
:1024D000551F8A94D2F788819981AA81BB81822B6A
:1024E000932BA42BB52B88839983AA83BB83F601F6
:1024F000E455FE4F80818E2980838FC0A80197010B
:1025000004C0220F331F441F551F8A94D2F7209511
:1025100030954095509588819981AA81BB8182230D
:102520009323A423B52388839983AA83BB830E9422
:102530002C10882311F00E948D1082E0981609F06B
:102540006CC081EE68C0622FFD01EE0FFF1FEE0F21
:10255000FF1FEC5EFA4EE590F59005911491E114A1
:10256000F1040105110511F4DD2412C0DE2CE09107
:102570000601F091070180819181A281B381807071
:102580009070A070B0760097A105B10509F054C015
:10259000F5018281882361F008C08F2D6E2D37C030
:1025A000822F0E945E1F8E2D36C0832F99272FC049
:1025B000862F0E945E1FDD2081F18D2D2CC0FC0135
:1025C0008281882339F081EE0E94B11F82E00E944F
:1025D000642823C081EE0E945E1F82E00E9444288E
:1025E0001CC0FC016081718180E00E94BD1364E128
:1025F00070E00E940433FC01EE0FFF1FE25AFE4F11
:1026000060819181F5018281882321F0892F0E94C8
:10261000781003C0862F0E945E1F80E090E0DF915B
:10262000CF911F910F91FF90EF90DF90CF90BF90CF
:10263000AF909F908F900895F5018281882309F0D3
:10264000ACCFAECF81E0089581E008950E942413BD
:10265000089508950F931F93CF93DF93EC01188192
:102660000981812F902F0E949427612F702F0E9443
:10267000BD138C01BE010E942613882309F477C084
:102680008A818823C9F180911D028823F1F480E5B5
:102690000431180789F50E94291381E080931D02F7
:1026A0000E94A32A90931F0280931E02109226027A
:1026B0001092210210922002109223021092220204
:1026C000109225021092240227C080911E02909140
:1026D0001F020E94B02A883C910570F48091260266
:1026E000E82FF0E0EE0FFF1FE05EFD4F1183008347
:1026F0008F5F8093260210C080E50438180721F010
:102700000558104561F516C08A81882339F010926A
:10271000270282E00E94571F80E029C08091270293
:10272000882331F486E20E94B11F86E20E945E1F78
:1027300082E012C08A81882321F01092280280E270
:10274000E9CF80912802882331F487E20E94B11FEB
:1027500087E20E945E1F80E20E94501FDDCF81E071
:102760008093270280932802CE010E942213DF91DA
:10277000CF911F910F9108950895E62FF0E0EE0F8D
:10278000FF1F9CE0799F90011124E20FF31F98EA4C
:10279000899FC0011124E80FF91FEC59F94E2591CA
:1027A0003491C9010895FC01EE0FFF1FEC57F84E5C
:1027B00025913491C9010895FC01EE0FFF1FEC5FD4
:1027C000F64E25913491C9010895CF93DF93EC0122
:1027D00020E38030920740F580E2C030D80708F04F
:1027E000E7C0CB3BD10580F4C83AD10508F061C001
:1027F000C53AD10508F04EC0C430D10508F048C034
:10280000219709F0EEC1CEC0CF3FD10511F008F0FD
:10281000CCC0C03FD10508F0C2C0CE01805E904060
:10282000089708F0DEC134C090E5C130D90709F43B
:10283000DAC020E5C230D207A0F48FE4C031D80757
:1028400058F490E4C030D90708F0BBC021E3C03091
:10285000D20708F0C6C1B1C0C050D04509F0C1C10F
:10286000B4C097E5C030D90758F421E5C031D2078C
:1028700008F04EC180E5C431D80708F0B2C1B9C034
:10288000CE01805090478050904108F0AAC1A5C168
:102890009E01A9C1C53AD10519F481E890E47DC033
:1028A000C63AD10519F083E890E477C082E890E455
:1028B00074C0C83AD10519F482EE94E46EC0C93AE6
:1028C000D10519F489EE94E468C0CA3AD10519F427
:1028D0008AEE94E462C0CB3AD10519F485EB94E416
:1028E0005CC0CC3AD10519F486EB94E456C0CD3ADD
:1028F000D10519F487EB94E450C0C03BD10519F41D
:102900008CEC94E44AC0CE3AD10519F48DEC94E4F1
:1029100044C0CF3AD10519F483E895E43EC0C13BE9
:10292000D10519F48AE895E438C0C23BD10519F401
:1029300082E995E432C0C33BD10519F484E995E4FA
:102940002CC0C43BD10519F481E296E426C0C53BF6
:10295000D10519F483E296E420C0C63BD10519F4F1
:1029600084E296E41AC0C73BD10519F485E296E4E7
:1029700014C0C83BD10519F486E296E40EC0C93BE9
:10298000D10519F487E296E408C0CA3BD10519F0D5
:1029900080E094E402C08AE296E49C0124C19E0196
:1029A000306521C121E030E01EC19E013F711BC195
:1029B000CE019F700E94DC1317C19E013070306CF5
:1029C00012C19E013F70306A0EC10E944B1F84EC01
:1029D00099E020E931E0F9013197F1F70197D9F752
:1029E0000E94002B00C18091A50281608093A50206
:1029F000FAC00E94CE2C882311F40E94D92C0E9488
:102A0000BF2C8093C5021092C60290E5C230D90750
:102A100011F4816076C020E5C430D20711F48260E1
:102A200070C090E5C630D90711F484606AC020E513
:102A3000C830D20711F4886064C090E5CA30D90765
:102A400011F480615EC020E5CC30D20711F48062C1
:102A500058C090E5CE30D90711F4806452C020E50B
:102A6000C031D20711F480684CC090E5C231D9075B
:102A700011F48C6046C020E5C330D20721F4809168
:102A8000C5028E7F3EC080E5C530D80721F4809115
:102A9000C5028D7F36C090E5C730D90721F48091FB
:102AA000C5028B7F2EC020E5C930D20721F480916A
:102AB000C502877F26C080E5CB30D80721F48091FE
:102AC000C5028F7E1EC090E5CD30D90721F48091DC
:102AD000C5028F7D16C020E5CF30D20721F480914A
:102AE000C5028F7B0EC080E5C131D80721F48091EB
:102AF000C5028F7706C0C351D04529F48091C50225
:102B0000837F8093C5028091C5020E94AD2C6BC06B
:102B10004D2F55274F70507041305105F9F49E01EB
:102B2000A4E0220F331FAA95E1F720703370CE0185
:102B3000F3E0880F991FFA95E1F780769070282BC3
:102B4000392B3C68C370D07002C0440F551FCA9522
:102B5000E2F74F715070242B352B45C042305105A0
:102B600029F43C2F2227216F306A3DC043305105A4
:102B700051F49E0173E0220F331F7A95E1F7207E16
:102B800037703C680CC044305105B9F49E0163E0D5
:102B9000220F331F6A95E1F7207E37703A68C370C1
:102BA000D07081E090E002C0880F991FCA95E2F7CB
:102BB0008F719070282B392B16C04530510529F4A0
:102BC0003C2F2227246F306A0EC04630510559F43D
:102BD000CF71D0703C2F222702C09E013F7030621F
:102BE00002C020E030E0C901DF91CF9108950E943A
:102BF000BD13803E9105F0F4803C910588F581334A
:102C0000910509F475C08233910548F48932910524
:102C100009F464C08A32910509F07BC06EC0893323
:102C2000910509F182389105F1F08533910509F09C
:102C300070C04FC0833E910561F1843E910540F420
:102C4000803E9105B9F0823E910509F062C01CC03A
:102C5000863E910551F1873E910509F05AC02AC080
:102C60000E94D31308952091C50220FD0AC021FDC2
:102C700008C04CC08091C50280FF03C089E390E08A
:102C800045C080EE90E042C08091C50282FD08C040
:102C900004C08091C50282FF03C082EE90E036C07E
:102CA00084FD11C083EE90E031C08091C50283FDA8
:102CB00008C004C08091C50283FF03C086EE90E087
:102CC00025C084FF03C080E090E020C087EE90E044
:102CD0001DC08091C50285FF05C007C08091C50257
:102CE00085FF03C085E390E011C089E290E00EC04B
:102CF0008091C50286FF05C007C08091C50286FF8E
:102D000003C081E390E002C08AE290E00E94E513F4
:102D100008950E94E513089508950E948C16089561
:102D20001092BB020895089580912A020895DF93BE
:102D3000CF9300D00F92CDB7DEB7AC018091BC022B
:102D4000843029F583E08093E9002FEF95ED05C0ED
:102D5000892F8A95F1F7222329F08091E8002150EC
:102D600085FFF6CF8091E80085FF11C05B834A8321
:102D700083E08983CE01019663E070E040E050E09B
:102D80000E94001A8091E8008E778093E8000F90EF
:102D90000F900F90CF91DF910895DF93CF9300D0E4
:102DA0000F92CDB7DEB7AC018091BC02843029F51B
:102DB00083E08093E9002FEF95ED05C0892F8A9578
:102DC000F1F7222329F08091E800215085FFF6CF0A
:102DD0008091E80085FF11C05B834A8382E089838C
:102DE000CE01019663E070E040E050E00E94001ADE
:102DF0008091E8008E778093E8000F900F900F90FD
:102E0000CF91DF910895AC018091BC02843001F52F
:102E100082E08093E9002FEF95ED05C0892F8A9518
:102E2000F1F7222329F08091E800215085FFF6CFA9
:102E30008091E80085FF0CC0CA0165E070E040E0C9
:102E400050E00E94001A8091E8008E778093E8009D
:102E500008950F931F93182F092F9091BC0294305F
:102E600009F04CC0809132018823E1F080913D014E
:102E70008823C1F09093E9009FEF25E105C0822FE0
:102E80008A95F1F7992329F08091E800915085FF08
:102E9000F6CF8091E80085FF31C0812F902F60E14F
:102EA00070E018C081E08093E9009FEF25ED05C038
:102EB000822F8A95F1F7992329F08091E8009150AB
:102EC00085FFF6CF8091E80085FF18C0812F902FF5
:102ED00068E070E040E050E00E94001A8091E80055
:102EE0008E778093E800ABE2B2E0212F302FC9014A
:102EF000FC0180E101900D928150E1F71F910F914B
:102F0000089584B7877F84BF88E10FB6F8948093D3
:102F10006000109260000FBE80E880936100109204
:102F200061000E944C1E0E94DE1A0E943F1B80918D
:102F3000E20084608093E20078940E94DD1D0E948C
:102F4000DE1E83E391E00E94F31D0E947E310CC0DF
:102F50000E94662A8091BA02882331F00E948F2A4B
:102F6000882311F00E9415198091BC02853081F3ED
:102F70000E94521EF9CF8091BB02882349F40E941F
:102F8000DE1A0E943F1B8091E20084608093E20081
:102F900008958091BE02833009F457C0843030F424
:102FA000813071F0823009F0B1C098C08A3009F4E4
:102FB00085C08B3009F46AC0893009F0A7C020C0F1
:102FC0008091BD02813A09F0A1C08091E800877F1D
:102FD0008093E8008091C1029091C202892B21F474
:102FE00060E18BE292E003C060E080E090E070E09E
:102FF0000E942B198091E8008B778093E800089558
:103000008091BD02813209F081C08091C10290910E
:10301000C202009719F0039709F078C08091E80088
:10302000877F8093E80005C08091BC02882309F463
:103030006DC08091E80082FFF7CF8091F10080930E
:103040002A028091E8008B771CC08091BD02813AF2
:1030500009F05CC08091C1029091C202892B09F0F5
:1030600055C08091E800877F8093E8008091E80058
:1030700080FFFCCF809132018093F1008091E800C5
:103080008E778093E8000E948B1A08958091BD028C
:103090008132E1F58091C1029091C202892BB1F594
:1030A0008091E800877F8093E8000E948B1A8091CE
:1030B000BF02809332010E944B1F08958091BD0290
:1030C000813221F58091E800877F8093E8000E949B
:1030D0008B1A8091C0028093290208958091BD02CD
:1030E000813AA1F48091E800877F8093E800809185
:1030F000E80080FFFCCF809129028093F10080914D
:10310000E8008E778093E8000E948B1A089581E092
:1031100061EC42E00E94531A82E061EC42E00E94BE
:10312000531A83E061EC42E00E94531A84E061ECA0
:1031300042E10E94531A08950E945F2A0E9496312C
:103140000E94F81D0E948D1608950E9490310895E6
:10315000DA019330C1F0943030F4913051F0923074
:1031600009F05BC00BC0913221F1923209F055C0D9
:1031700037C0E0E0FAE122E130E053C0E2E1FAE1F9
:103180002DE630E04EC0813051F0813020F08230A9
:1031900009F043C008C0EFE7FAE1849107C0E3E813
:1031A000FAE1849103C0EBE9FAE18491282F30E041
:1031B00038C0613051F0613028F0623059F063302E
:1031C00061F50BC0E4E2FAE102C0EDE3FAE129E0C7
:1031D00030E027C0E6E5FAE1FACFEFE6FAE1F7CF13
:1031E000613061F0613028F0623069F06330A9F439
:1031F0000FC0E4E0F9E120E430E013C0E4E4F9E1D9
:103200002DE430E00EC0E1E9F9E126E330E009C049
:10321000E7ECF9E129E330E004C0E0E0F0E020E091
:1032200030E0ED93FC93C901089580E189BD82E10E
:1032300089BD09B400FEFDCF8091D8008F7D8093B9
:10324000D8008091E00082608093E0008091E000EF
:1032500081FDFCCF08959C014091C3025091C402AE
:103260004617570718F4F90190E043C0611571053E
:1032700011F0AB01F8CF8091E8008E778093E800E1
:1032800040E050E0F0CF8091BC02882309F447C0B1
:10329000853009F446C08091E80083FD44C08091E8
:1032A000E80082FD36C08091E80080FF22C0809156
:1032B000F3009091F200782F60E0292F30E0262B68
:1032C000372B07C081918093F100415050402F5F10
:1032D0003F4F4115510519F02830310598F390E022
:1032E0002830310509F491E08091E8008E778093D1
:1032F000E8004115510539F6992329F60AC0809155
:10330000BC02882361F0853061F08091E80083FD84
:103310000AC08091E80082FFF2CF80E0089582E049
:10332000089583E0089581E008959C014091C302CF
:103330005091C4024617570718F4F90190E044C0B1
:103340006115710511F0AB01F8CF8091E8008E771F
:103350008093E80040E050E0F0CF8091BC028823E9
:1033600009F448C0853009F447C08091E80083FD26
:1033700045C08091E80082FD37C08091E80080FF61
:1033800023C08091F3009091F200782F60E0292F04
:1033900030E0262B372B08C084918093F1003196C2
:1033A000415050402F5F3F4F4115510519F02830D3
:1033B000310590F390E02830310509F491E08091D7
:1033C000E8008E778093E8004115510531F6992386
:1033D00021F60AC08091BC02882361F0853061F03B
:1033E0008091E80083FD0AC08091E80082FFF2CF5F
:1033F00080E0089582E0089583E0089581E00895D3
:10340000BF92CF92DF92EF92FF920F931F93CF93D1
:10341000DF93182F092F7B016A010E94AC1AB82E86
:103420008823B1F5812F902F9C01E901C114D104AB
:1034300039F0F60180819181E81AF90AC80FD91F85
:1034400000E010E022C08091E80085FD16C0809168
:10345000E8008E778093E800C114D10449F0F601AA
:1034600080819181800F911F9183808385E011C0BD
:103470000E94AC1A882349F00CC089918093F10016
:103480000894E108F1080F5F1F4FE114F104D9F629
:103490008B2DDF91CF911F910F91FF90EF90DF90D7
:1034A000CF90BF900895382F282F2EC0822F8F7075
:1034B0008093E900231721F4762F942F50E006C063
:1034C0007091EC009091ED005091F00091FF1BC0C5
:1034D0008091EB008E7F8093EB008091ED008D7FDB
:1034E0008093ED008091EB0081608093EB007093FE
:1034F000EC009093ED005093F0008091EE0087FD7A
:1035000002C080E008952F5F273080F23F70309333
:10351000E90081E008958091BD0288239CF404C0F5
:103520008091BC028823B9F08091E80082FFF8CF37
:103530008091E8008B778093E80008958091BC0229
:10354000882349F08091E80080FFF8CF8091E8005F
:103550008E778093E80008954091E4005091E50053
:1035600024E68091EC0080FF24C08091E80080FD7B
:103570001EC08091BC02882311F482E0089585303A
:1035800011F483E008958091EB0085FF02C081E093
:1035900008958091E4009091E5008417950709F360
:1035A000222311F484E008952150AC01DACF80E0A9
:1035B00008958091E80082FFDCCFF9CF0E94511B73
:1035C0000E94591BE0EEF0E0808181608083A8EDCD
:1035D000B0E08C918F778C9319BCE7EDF0E080819F
:1035E0008E7F80838C918F7E8C931092BB02089586
:1035F000EF92FF920F931F930E94511B0E94591B41
:1036000008ED10E0F80180818F77808380818068E9
:10361000808380818F7D808319BC1092BC021092C0
:10362000B8021092BA021092B90280EEE82EF12C84
:10363000F70180818B7F8083F801808181608083A6
:1036400080E060E042E00E94531AE1EEF0E0808109
:103650008E7F8083E2EEF0E08081816080838081D4
:1036600088608083F70180818E7F8083F80180816C
:10367000806180831F910F91FF90EF900895E8ED96
:10368000F0E080818F7E8083E7EDF0E080818160D3
:10369000808384E082BF81E08093BB020E94F81A9D
:1036A0000895E8EDF0E080818E7F80831092E20043
:1036B00008951092DA001092E10008951F920F927F
:1036C0000FB60F9211241F932F933F934F935F9345
:1036D0006F937F938F939F93AF93BF93EF93FF93DA
:1036E0001091E9008091EC001092E9008091F000C7
:1036F000877F8093F00078940E946C1C1092E90000
:103700008091F00088608093F0001F701093E900B2
:10371000FF91EF91BF91AF919F918F917F916F91A9
:103720005F914F913F912F911F910F900FBE0F907E
:103730001F9018951F920F920FB60F9211242F937E
:103740003F934F935F936F937F938F939F93AF9329
:10375000BF93EF93FF938091E10082FF0BC08091B4
:10376000E20082FF07C08091E1008B7F8093E1003F
:103770000E94DC1D8091DA0080FF1FC08091D8007C
:1037800080FF1BC08091DA008E7F8093DA008091E9
:10379000D90080FF0DC080E189BD82E189BD09B4F7
:1037A00000FEFDCF81E08093BC020E94BB1705C0E4
:1037B00019BC1092BC020E9490168091E10080FF1B
:1037C00019C08091E20080FF15C08091E2008E7FD9
:1037D0008093E2008091E20080618093E20080911A
:1037E000D80080628093D80019BC85E08093BC0229
:1037F0000E94A5188091E10084FF30C08091E20012
:1038000084FF2CC080E189BD82E189BD09B400FE3E
:10381000FDCF8091D8008F7D8093D8008091E1000A
:103820008F7E8093E1008091E2008F7E8093E200A2
:103830008091E20081608093E2008091B802882349
:1038400011F084E007C08091E30087FD02C081E0B1
:1038500001C083E08093BC020E949C188091E1002B
:1038600083FF29C08091E20083FF25C08091E100A1
:10387000877F8093E10082E08093BC021092B802BF
:103880008091E1008E7F8093E1008091E2008E7F45
:103890008093E2008091E20080618093E20080E00A
:1038A00060E042E00E94531A8091F00088608093AB
:1038B000F0000E949316FF91EF91BF91AF919F91FD
:1038C0008F917F916F915F914F913F912F910F90C9
:1038D0000FBE0F901F9018951F93DF93CF93CDB716
:1038E000DEB7AC970FB6F894DEBF0FBECDBFEDEBE1
:1038F000F2E08091F100819322E0E53CF207C9F704
:103900000E94C9178091E80083FF3EC18091BD02EB
:103910003091BE02353009F487C0363040F4313082
:10392000C9F1313070F0333009F02EC133C0383076
:1039300009F4F9C0393009F409C1363009F024C15D
:1039400097C0803821F0823809F01EC108C09091DC
:10395000B9028091BA02882399F0926011C08091D7
:10396000C1028F708093E9008091EB0090E025E028
:10397000969587952A95E1F7982F91701092E90016
:103980008091E800877F8093E8009093F100109287
:10399000F100D4C0882319F0823009F0F5C090E01E
:1039A0008F719070009721F0029709F0EDC00CC064
:1039B0008091BF02813009F0E7C01092BA02333023
:1039C00069F58093BA022AC08091BF02882331F53D
:1039D0002091C1022F7009F4D7C02093E900809193
:1039E000EB0080FF1BC0333021F48091EB0080623C
:1039F00013C08091EB0080618093EB0081E090E048
:103A000002C0880F991F2A95E2F78093EA0010926E
:103A1000EA008091EB0088608093EB001092E9004F
:103A20008091E800877F8DC0882309F0ADC0109198
:103A3000BF021F778091E3008078812B8093E300A1
:103A40008091E800877F8093E8000E948B1A809124
:103A5000E80080FFFCCF8091E30080688093E30062
:103A6000112311F482E001C083E08093BC028CC07A
:103A70008058823008F088C08091BF029091C002C7
:103A800023E08C3D920709F034C083E08C838AE206
:103A90008B837FB7F894DE0115966EE040E050E02E
:103AA00011E2E62FF0E010935700849140FF03C02D
:103AB00082958F706F5F8F70282F30E08A3018F0FA
:103AC000C901C79602C0C901C0968D939D934F5FEF
:103AD0005F4F4431510529F77FBF8091E800877F10
:103AE0008093E800CE0103966AE270E00E942B19F1
:103AF00014C06091C102AE014F5F5F4F0E94A818D1
:103B0000BC01009709F440C08091E800877F809352
:103B1000E80089819A810E9495198091E8008B774D
:103B20008093E80031C0803879F58091E800877F84
:103B30008093E8008091B8028093F1008091E800C2
:103B40008E778093E8000E948B1A1EC08823E1F4D0
:103B50009091BF029230C0F48091E800877F8093FB
:103B6000E8009093B8020E948B1A8091B8028823D3
:103B700031F48091E30087FD02C081E001C084E060
:103B80008093BC020E9487188091E80083FF0AC0DE
:103B90008091E800877F8093E8008091EB0080624D
:103BA0008093EB00AC960FB6F894DEBF0FBECDBF8E
:103BB000CF91DF911F91089508951F938091BC02CA
:103BC000882379F01091E9008091EC001092E900CF
:103BD0008091E80083FF02C00E946C1C1F7010934C
:103BE000E9001F9108959093400280933F02089549
:103BF000E0913F02F0914002309711F480E0089587
:103C00000190F081E02D09950895E0913F02F09137
:103C10004002309721F00280F381E02D099508954C
:103C2000E0913F02F0914002309721F00480F5814D
:103C3000E02D099508959C0180913D0290913E02EE
:103C40002817390779F030933E0220933D02E09126
:103C50003F02F0914002309729F00680F781E02D75
:103C6000C901099508959C0180913B0290913C0205
:103C70002817390779F030933C0220933B02E091FA
:103C80003F02F0914002309729F00084F185E02D49
:103C9000C9010995089508950E944B1E08950E9438
:103CA0008D160895AF92BF92CF92DF92EF92FF925E
:103CB0000F931F93DF93CF93CDB7DEB72A970FB63D
:103CC000F894DEBF0FBECDBF0E94700E0DE010E075
:103CD00081E0A82EB12CC02E802F0E94100EE82E5D
:103CE000F801EF5BFD4FF080F82691F18091A5027D
:103CF00081FF02C00E94160E25E030E0C501022EB1
:103D000002C0880F991F0A94E2F7D82E8F21D1F0B4
:103D10002983CA821B82ED2011F081E08B830E94EF
:103D2000A32A8160782F9D838C8349815A816B817E
:103D30008D810E941D23F801EF5BFD4F80818D2551
:103D400080831DC0215030408FEF2F3F3807B1F6E0
:103D5000015010408FEF0F3F180709F0BCCF0E94B1
:103D6000A32A2FEF2E832F8318868160782F9A87BE
:103D700089874FEF5FEF60E08A850E941D230E94D4
:103D8000782E10914F020E94F81D181731F00E94F2
:103D9000F81D80934F020E944F1E2A960FB6F8948A
:103DA000DEBF0FBECDBFCF91DF911F910F91FF906E
:103DB000EF90DF90CF90BF90AF9008950E949A2A25
:103DC0000E94530E0E94602B0895DF93CF9300D082
:103DD00000D00F92CDB7DEB70F900F900F900F90DD
:103DE0000F90CF91DF910895DF93CF9300D000D053
:103DF00000D0CDB7DEB726960FB6F894DEBF0FBE63
:103E0000CDBFCF91DF9108950E94DB27482F892FE6
:103E100082958F70282F30E02C3031054CF42A30F9
:103E200031056CF42250304022303105E8F407C0EF
:103E30002C30310579F02F303105B1F40BC0403F03
:103E400039F0413F18F4403E78F402C0443F61F439
:103E500081E008959F70892F90E023E096958795E3
:103E60002A95E1F78170089580E008950E948B29DA
:103E70000E949B290E945A290E94B3290E94612E08
:103E80000E946D2E80E090E00E941B1E80E090E07A
:103E90000E94331E08950E947B290E94361F0895B8
:103EA000882321F00E9471290E94B3290895882354
:103EB00021F00E946B290E94B3290895282F88239E
:103EC00009F44EC0823859F40E94F81D81FF48C0A1
:103ED00089E30E94E8280E94B32989E30CC0833853
:103EE00069F40E94F81D80FF3BC083E50E94E8282A
:103EF0000E94B32983E50E9426291FC0843859F403
:103F00000E94F81D82FF2CC087E40E94E8280E94CE
:103F1000B32987E4F0CF8450813A10F4822FEBCF9D
:103F2000822F805E883060F4277081E090E001C0CD
:103F3000880F2A95EAF70E9471290E94B3290895F3
:103F4000822F855A833028F480E090E00E941B1E67
:103F50000895285A233120F480E090E00E94331E17
:103F600008951F93182F882309F4D0C0823859F47C
:103F70000E94F81D81FDCAC089E30E94E8280E94C2
:103F8000B32989E30CC0833879F40E94F81D80FDC1
:103F9000BDC083E50E94E8280E94B32983E50E9402
:103FA00026290E94B329B2C0843859F40E94F81D12
:103FB00082FDACC087E40E94E8280E94B32987E410
:103FC000EECF8450813A50F4812F0E94AF30882385
:103FD00009F09CC0812F0E94E828E3CF812F805EEA
:103FE000883050F4177081E090E001C0880F1A9576
:103FF000EAF70E946B29D5CF812F855A8330A0F430
:10400000153A19F481E890E00CC0163A19F482E8E8
:1040100090E007C0173A19F080E090E002C083E812
:1040200090E00E941B1E72C0812F885A833108F0D5
:104030006DC0183A19F482EE90E066C0193A19F48E
:1040400089EE90E061C01A3A19F48AEE90E05CC003
:104050001B3A19F485EB90E057C01C3A19F486EB33
:1040600090E052C01B3B19F483EB90E04DC01C3B29
:1040700019F484EB90E048C01D3A19F487EB90E006
:1040800043C0103B19F48CEC90E03EC01E3A19F48A
:104090008DEC90E039C01F3A19F483E891E034C008
:1040A000113B19F48AE891E02FC0123B19F482E920
:1040B00091E02AC0133B19F484E991E025C0143B38
:1040C00019F481E292E020C0153B19F483E292E0FA
:1040D0001BC0163B19F484E292E016C0173B19F49A
:1040E00085E292E011C0183B19F486E292E00CC020
:1040F000193B19F487E292E007C01A3B19F080E0FF
:1041000090E002C08AE292E00E94331E1F9108955F
:104110000F931F93CF93DF93EC01298138818B811B
:104120009C81892BD9F02F3FA1F43F3F91F416C019
:10413000688179818A810E94E627182F092F0E94C1
:1041400093270E949227CE01612F702F0E94B320E7
:1041500005C0CE010E942A13882351F7DF91CF9129
:104160001F910F9108959F92AF92BF92CF92DF92CD
:10417000EF92FF920F931F93DF93CF9300D000D065
:104180000F92CDB7DEB75C016B01DE011196FC0129
:1041900085E001900D928150E1F70B81F501F580EA
:1041A000F2944FE0F422002311F00E948B290E9428
:1041B000E228882379F0002369F08C2D805E883016
:1041C00048F082E00E94E4290E94E2289924939416
:1041D000982601C099248D2D82958F7090E08530AE
:1041E000910509F4AAC08630910554F484309105F4
:1041F0000CF084C02D2D207F02970CF045C013C019
:104200008C30910544F48A3091050CF067C1089711
:1042100009F0EFC19EC08C30910509F4D9C10F9708
:1042200009F0E7C1DFC18D2D8F70222311F4182F03
:1042300003C0182F1295107F002389F0112309F471
:10424000B3C18C2D805E883020F4812F0E946B29B1
:1042500003C0812F0E947E290E94B329A5C18C2D05
:104260000E945E1F112309F4C4C1F0E2CF0E27E0C3
:104270002C1520F0812F0E94712903C0812F0E94EC
:1042800084290E94B329B5C18D2D8F70203211F47D
:10429000182F03C0182F1295107FCC2021F081E039
:1042A000C81611F516C0002359F0FF2009F435C1D6
:1042B000E1E0FE1609F031C1812F0E949E2999C1CB
:1042C000FF2021F0F1E0FF1609F493C10E94A1291B
:1042D0002AC1002329F021E02F1508F48AC11DC14D
:1042E000FF2009F086C11FC1002321F0FF2009F43F
:1042F00014C15AC1FF2009F416C161C18D2D8695E4
:104300008695837090E0009721F0019709F071C1C4
:104310000AC0002319F0C601937002C080E090E04B
:104320000E941B1E66C1002319F0C601937002C0D3
:1043300080E090E00E94331E5CC1002321F08C2DB0
:104340000E946F2D03C08C2D0E94D92D0E946D2ECE
:1043500050C18D2D837009F05EC0002309F049C162
:104360002C2D229526952770220F220F8C2D8F70D1
:10437000E82EFF2400E010E0022E04C0EE0CFF1C2B
:10438000001F111F0A94D2F7C4FC05C060E070E062
:1043900080E090E00FC06FE070E080E090E004C04B
:1043A000660F771F881F991F2A95D2F76095709521
:1043B00080959095D694D694E3E0DE224D2D50E082
:1043C00041305105A9F0423051051CF4452B49F00C
:1043D00010C14230510589F04330510509F009C13F
:1043E00013C06E297F29802B912B0E94B32801C115
:1043F0006E297F29802B912B0BC06E297F29802B62
:10440000912B0E94A228F5C00E94B328C801B701D1
:104410000E94C428EEC090E0002311F49695879581
:10442000817009F4E6C02C2D229526952770220F65
:10443000220F8C2D8F70E82EFF2400E010E0022E5A
:1044400004C0EE0CFF1C001F111F0A94D2F7C4FC1D
:1044500005C060E070E080E090E00FC06FE070E0C9
:1044600080E090E004C0660F771F881F991F2A958F
:10447000D2F76095709580959095D694D694F3E098
:10448000DF224D2D50E041305105A9F04230510559
:104490001CF4452B49F0ADC04230510589F0433042
:1044A000510509F0A6C013C06E297F29802B912BDE
:1044B0000E9406289EC06E297F29802B912B0BC05D
:1044C0006E297F29802B912B0E94F52792C00E9494
:1044D0000628C801B7010E9417288BC021EFC21619
:1044E000A9F12C1540F080EEC81608F459C0EFEE83
:1044F000EC1558F41CC0F3EFCF1691F1CF1658F11C
:1045000024EFC21609F04CC035C01C2D1F708D2D34
:104510008F71002331F00E946428812F0E94571F61
:1045200068C00E944428812F0E94501F62C000234F
:1045300021F0FF2009F05DC004C081E08F1508F470
:1045400058C08D2D8F710E94282853C08D2D8F71DA
:104550000023D9F12FC08D2D8F71002359F135C063
:10456000002329F08D2D8F710E94802842C00E9467
:1045700090283FC0002351F01D2D1F71812F0E94F4
:104580006428812F63E00E94FD2933C081E00E94EE
:10459000E429E1E0EF1568F582E00E94E42929C0F2
:1045A000002359F0FF2021F08C2D0E94B11F21C063
:1045B0008D2D8F710E9464281CC0FF2021F08C2D4E
:1045C0000E945E1F16C08D2D8F710E94442811C05D
:1045D000FFE0DF22C5016C2D4D2D0E9400120E94CC
:1045E000192707C02FE0D222C5016C2D4D2D0E9446
:1045F000BC13992089F00E94DE2880FD0DC0F501D2
:1046000012820E94D8280E946428C5010E94882036
:104610000E94D8280E9444280F900F900F900F906E
:104620000F90CF91DF911F910F91FF90EF90DF904E
:10463000CF90BF90AF909F900895DF93CF93CDB769
:10464000DEB72B970FB6F894DEBF0FBECDBF342F69
:104650004F83252F588769877A878B87472F582F55
:10466000FE01319686E0DF011D928A95E9F76B83A2
:1046700039832A834C835D83432F522F8D819E8102
:104680000E945A262B960FB6F894DEBF0FBECDBF00
:10469000CF91DF9108950F931F930091570215C09A
:1046A00010E0F801EE0FFF1FE00FF11FEE0FFF1FEC
:1046B000E85AFD4F408151816281738184819581E7
:1046C0000E94F41E0F5F1F4F07708091560208175B
:1046D00039F71F910F910895409150025091510266
:1046E0006091520270915302809154029091550250
:1046F0000E94F41E08950F931F93CF93DF93809130
:10470000550282958F7009F06DC080915202882306
:1047100009F468C06091570200915602409153021B
:10472000509154021091510270915002EA01C095CB
:10473000D09555C04115510509F44FC01F3F49F4AC
:1047400080E090E07F3F11F481E090E0882309F061
:1047500044C0262F30E0F901EE0FFF1FE20FF31FD8
:10476000DF01AA0FBB1FA85ABD4F11968C9111975C
:10477000181799F58C91781781F5EE0FFF1FE65AFF
:10478000FD4F8081882349F513968D919C91149754
:104790008417950718F0841B950B02C08C0F9D1F82
:1047A000883C9105D0F4809155028F708061809390
:1047B0005502F901EE0FFF1FE20FF31FEE0FFF1F6F
:1047C000E35AFD4F80818F708061808380E592E0A5
:1047D0000E9488200E944B2305C06F5F677060179E
:1047E00009F0A8CFDF91CF911F910F910895DF922B
:1047F000EF92FF920F931F93DF93CF93CDB7DEB766
:104800006B970FB6F894DEBF0FBECDBF8C01DC01F5
:104810001296DC9012974C9111965C911197139619
:10482000ED90FC90149720915302309154026091C6
:104830005102709150022115310509F4DBC16F3F1F
:1048400009F003C27F3F09F000C2D4C1E216F306AB
:1048500040F0C701821B930B883C910508F0EEC025
:1048600008C0209530952E0D3F1D283C310508F0DD
:10487000E5C080915502807F09F095C06F3F09F037
:10488000EAC17F3F09F0E7C115C0741799F4DD2034
:1048900089F4809155028F708061809355020E9447
:1048A0006C2380E592E00E94882080915502F801F7
:1048B0008583BCC1FD82EC825A834983DB82DE01A1
:1048C0001696FE01319685E001900D928150E1F738
:1048D0006885DE011B96FE01369685E001900D92FB
:1048E0008150E1F72C853B858E859F85892B09F4C6
:1048F00051C02F3F09F0B3C13F3F09F0B0C14AC0DA
:10490000FD82EC825A834983DB82DE011B96FE0125
:10491000319685E001900D928150E1F7FC847B8512
:104920006D8580915702909156021FC0282F30E06C
:10493000F901EE0FFF1FE20FF31FDF01AA0FBB1FEC
:10494000A85ABD4F11968C911197F81651F48C917D
:10495000781739F4EE0FFF1FE65AFD4F8081681774
:10496000C9F42F5F3F4F822F87708917F9F68DC1E9
:104970009F7059F0442349F459C19F7031F0D80118
:1049800015968C91807F09F451C1405E483008F43F
:104990004DC148C1DD2009F449C1809155028160B3
:1049A0008093550243C16F3F09F05DC17F3F09F01D
:1049B0005AC114C0741791F4DD2081F4809155021E
:1049C000F8018583C8010E948820A0E5B2E0F801C3
:1049D00086E001900D928150E1F720C15A8349830E
:1049E00089819A810E94041F882309F41BC1DD205C
:1049F00009F418C130915502832F82958F7090E091
:104A000002979CF09091510220915002FE01709605
:104A100086E0DF011D928A95E9F7998B288BFC8A45
:104A2000EB8A3D8BCF010E948820A0E5B2E0F8011F
:104A300086E001900D928150E1F7EEC08091550221
:104A4000807FA9F47E2DFD82EC825A834983DB822C
:104A50006D2D8D810E94E51E00E512E0C8010E94C7
:104A6000882086E0F80111928A95E9F7C0C06F3F6F
:104A700009F0FDC07F3F09F0FAC014C0741791F42B
:104A8000DD2081F480915502D80115968C93C801E0
:104A90000E948820E0E5F2E086E0DF011D928A9521
:104AA000E9F7BEC05A83498389819A810E94041F15
:104AB000882309F4B7C0DD2009F4B4C03091550251
:104AC000832F82958F7090E002979CF09091510215
:104AD00020915002FE01769686E0DF011D928A95B4
:104AE000E9F79F8B2E8BFA8EE98E3B8FCF010E94C8
:104AF0008820A0E5B2E0F80186E001900D92815097
:104B0000E1F78AC06F3F09F0B6C07F3F09F0B3C03C
:104B100071C0E216F30640F0C701821B930B883C7C
:104B2000910508F053C008C0209530952E0D3F1D0B
:104B3000283C310508F04AC0DD2009F473C06F3FFE
:104B400009F09FC07F3F09F09CC029C0741739F558
:104B50009091550290FD1AC0892F82958F70B1F007
:104B6000F80195838F3031F08F5F8295807F9F7041
:104B7000982B9583C8010E948820A0E5B2E0F80137
:104B800086E001900D928150E1F748C0A0E5B2E0C7
:104B9000F80186E001900D928150E1F741C05A83FF
:104BA000498389819A810E94041F882349F0A0E5E6
:104BB000B2E0F80186E001900D928150E1F72CC03F
:104BC000809155028160809355022CC07E2DFD821C
:104BD000EC825A834983DB826D2D8D810E94E51E14
:104BE000E0E5F2E086E0DF011D928A95E9F70E9498
:104BF0006C231CC0DD20B1F05A83498389819A81DE
:104C00000E94041F882371F0A0E5B2E0F80186E05D
:104C100001900D928150E1F70E947B230E946C234A
:104C200081E005C0C8010E948820FACF80E06B9621
:104C30000FB6F894DEBF0FBECDBFCF91DF911F91AD
:104C40000F91FF90EF90DF9008958091520288239A
:104C500009F458CFFBCD651709F02CCE16CE613084
:104C600009F498CE4DCE651709F0B8CEA3CE6517DE
:104C700009F018CF03CF80915202882309F0BACFF0
:104C800048CF651709F08BCF61CF5A83498389815B
:104C90009A810E94DB27482F892F82958F70282FB9
:104CA00030E0223031050CF463CE243031050CF0B5
:104CB000B9CF63CE0F931F93DF93CF93CDB7DEB7FA
:104CC0002C970FB6F894DEBF0FBECDBF4F83588729
:104CD00069877A878B879C878E01095F1F4FC80180
:104CE0000E94F7238823D9F028853F818A859B85F8
:104CF000892B09F46BC02F3F49F480E090E03F3FDF
:104D000011F481E090E0882309F060C04F8158855C
:104D100069857A858B859C850E94F41E57C0DE01CB
:104D20001196F80186E001900D928150E1F7F9812A
:104D3000EA814C815D814115510509F447C0EF3F7F
:104D400009F04CC0FF3F09F049C040C0F983EA8335
:104D50005D834C83F901EE0FFF1FE20FF31FEE0F8F
:104D6000FF1FE85AFD4FDE01119686E00D9001927B
:104D70008150E1F7609356020E944B2327C0919F18
:104D8000C0011124885A9D4F0E94F723882309F4FB
:104D900045C08091570290E0FC01EE0FFF1FE80F25
:104DA000F91FEE0FFF1FE85AFD4F408151816281CC
:104DB0007381848195810E94F41E8091570290E056
:104DC0000196877090708093570201C016E0909111
:104DD000570280915602981791F620C08091560292
:104DE000282F30E02F5F3F4FB9016770707021505E
:104DF00030408091570290E06817790709F0A6CFFC
:104E00000E944B1F1092560210925702E0E5F2E00A
:104E100086E0DF011D928A95E9F7D8CF2C960FB670
:104E2000F894DEBF0FBECDBFCF91DF911F910F91E0
:104E30000895CF92DF92EF92FF921F93CF93DF936B
:104E4000EC01009709F466C010E090EAC92E9FE0DB
:104E5000D92E81E0E82EF12CFE0121969491943711
:104E600048F4943008F044C0913079F0923009F061
:104E700051C01BC0953709F437C0953750F1892FC1
:104E80008458803708F046C037C0FE0121969491BF
:104E9000892F805E883060F597708E2D01C0880F55
:104EA0009A95EAF70E948E290FC0FE0121969491EF
:104EB000892F805E883058F497708E2D01C0880F3E
:104EC0009A95EAF70E9494290E94B32919C0892F64
:104ED00015C0FE01249104C0C6010197F1F72150CD
:104EE0002223D1F721960CC0FE012196149108C00F
:104EF000892F0E94B11F04C0892F8F770E945E1FE7
:104F0000212F04C0C6010197F1F72150222309F493
:104F1000A3CFF8CFDF91CF911F91FF90EF90DF905B
:104F2000CF90089508950895AF92BF92DF92EF92C7
:104F3000FF920F931F93CF93DF935C01E090880261
:104F4000F090890200918A0210918B0280918C026C
:104F500090918D02A0918E02B0918F02E82AF92AD9
:104F60000A2B1B2BCFE1D0E0DC2ED801C7010C2E81
:104F700004C0B695A795979587950A94D2F7817046
:104F80009070892B39F08C2FB5010E94F715813074
:104F9000910531F421978FEFCF3FD80729F7DD2412
:104FA0008D2DDF91CF911F910F91FF90EF90DF90AA
:104FB000BF90AF9008950F931F938C010E94942788
:104FC000B8010E94F7151F910F910895CB010E941F
:104FD000DB27089560938C0270938D0280938E027C
:104FE00090938F020E94361F08959B01AC0160913F
:104FF0008C0270918D0280918E0290918F026227B7
:105000007327842795270E94EA2708959B01AC0106
:1050100060918C0270918D0280918E0290918F022E
:1050200062237323842395230E94EA2708959B011A
:10503000AC0160918C0270918D0280918E029091F2
:105040008F02622B732B842B952B0E94EA270895E5
:1050500021E030E040E050E004C0220F331F441F45
:10506000551F8A95D2F780918C0290918D02A09164
:105070008E02B0918F02282739274A275B27CA0161
:10508000B9010E94EA27089521E030E040E050E0B5
:1050900004C0220F331F441F551F8A95D2F7209555
:1050A00030954095509580918C0290918D02A09101
:1050B0008E02B0918F02282339234A235B23CA0131
:1050C000B9010E94EA27089521E030E040E050E075
:1050D00004C0220F331F441F551F8A95D2F78091B9
:1050E0008C0290918D02A0918E02B0918F02282B9C
:1050F000392B4A2B5B2BCA01B9010E94EA2708957C
:1051000021E030E040E050E004C0220F331F441F94
:10511000551F8A95D2F7CA01B9010E94EA2708955E
:1051200060E070E080E090E00E94EA2708956093DC
:1051300088027093890280938A0290938B020E9466
:10514000361F08959B01AC0160918802709189021D
:1051500080918A0290918B0262277327842795277A
:105160000E94972808959B01AC016091880270917C
:10517000890280918A0290918B0262237323842397
:1051800095230E94972808959B01AC0160918802A5
:105190007091890280918A0290918B02622B732B0D
:1051A000842B952B0E94972808950E949728089594
:1051B0008091A40285958595859508958091A40296
:1051C000877008958091A402877009F081E00895A6
:1051D000382F809132018823E1F080913D018823AE
:1051E000C1F0832F8695869586958F3070F5E09176
:1051F0003E01F0913F01E80FF11D377081E090E032
:1052000002C0880F991F3A95E2F72181282B21834C
:105210000895A0913E01B0913F01FD0120E08FEF84
:105220009281931791F08F3F19F4992309F4822FFB
:105230002F5F31962E30A1F78F3F39F0992787FDE8
:105240009095A80FB91F12963C930895482F80910E
:1052500032018823E9F080913D018823C9F0842F31
:105260008695869586958F3020F5E0913E01F091E8
:105270003F01E80FF11D477081E090E002C0880F08
:10528000991F4A95E2F780952181822381830895B1
:1052900020E030E0E0913E01F0913F01E20FF31F8A
:1052A0008281841709F412822F5F3F4F2E3031051F
:1052B00089F7089581E090E0E0913E01F0913F018F
:1052C000E80FF91F1082019680319105A9F7089522
:1052D0008091A00208959091A002982B9093A00233
:1052E000089580959091A00298239093A00208952C
:1052F0008093A00208951092A00208959091A302B5
:10530000982B9093A302089580959091A3029823DF
:105310009093A30208951092A30208959091A2027F
:10532000982B9093A202089580959091A2029823C1
:105330009093A20208951092A20208958093A10270
:1053400008951092A1020895E0913E01F0913F016D
:1053500020E091E0818181112F5F9F5F3196903134
:10536000C9F7822F0895E0913E01F0913F018091AD
:10537000A0028083E0913E01F0913F0180819091F5
:10538000A302892B8083E0913E01F0913F0180814F
:105390009091A202892B80839091A102992369F0B8
:1053A000E0913E01F0913F018081892B80830E9432
:1053B000A429882311F00E94A12980913E01909197
:1053C0003F010E94051E08952091A402482F409598
:1053D00042234093A402842F877071F430E0842F1D
:1053E000992787FD90952817390731F0842F8595E7
:1053F000859585950E9444280895982F990F990FB7
:10540000990F962B9093A4020E94642808959C0102
:1054100040E005C0C9010197282339234F5F2115BA
:105420003105C1F7842F08959B01AC01AA27BB2742
:105430000097A105B10521F4DA01C90160E001C0BE
:1054400060E1292F3A2F4B2F5527211531054105B2
:10545000510519F49C01AD0101C0685FDA01C90171
:1054600074E0B695A795979587957A95D1F70097AB
:10547000A105B10519F4DA01C90101C06C5F9C01F5
:10548000AD01F2E05695479537952795FA95D1F7F6
:10549000211531054105510519F49C01AD0101C0EB
:1054A0006E5F56954795379527952115310541052E
:1054B000510509F06F5F862F0895089508950E94A1
:1054C0004B1F0E94F81D0E948D1608958091BC020A
:1054D000843021F11092A60220E488E190E00FB61A
:1054E000F894A895809360000FBE2093600080E040
:1054F0000E948D1683B7817F846083BF83B78160EC
:1055000083BF7894889583B78E7F83BF88E10FB679
:10551000F89480936000109260000FBE08950E947E
:105520005D2A0E94700E0E945E2A0E94170E811151
:1055300081E0089582E084BD93E095BD9AEF97BD28
:1055400080936E0008958FB7F8942091A702309150
:10555000A8024091A9025091AA028FBFC9010895E3
:10556000EF92FF920F931F93BC018FB7F894E090D6
:10557000A702F090A8020091A9021091AA028FBF81
:10558000A801970140705070CB01A0E0B0E028174F
:1055900039074A075B0720F09701261B370B05C028
:1055A0009B01209530952E0D3F1DC9011F910F9134
:1055B000FF90EF9008951F920F920FB60F92112453
:1055C0008F939F93AF93BF938091A7029091A8026E
:1055D000A091A902B091AA020196A11DB11D8093CC
:1055E000A7029093A802A093A902B093AA02BF9128
:1055F000AF919F918F910F900FBE0F901F901895B4
:105600000E94DE1AF89480E29EE420E931E0F9017C
:105610003197F1F70197D9F787E090EBA7E0B0EB6E
:105620008093C6029093C702A093C802B093C902A8
:105630002CE088E190E00FB6F894A8958093600084
:105640000FBE20936000FFCFEF92FF920F931F9346
:10565000CF93DF93082F1DE0812F0E94100EC5E02D
:10566000D0E0E82EFF24C7010C2E02C09595879547
:105670000A94E2F780FF09C080E06C2F712F0E942E
:10568000BD13081711F481E008C021978FEFCF3FB9
:10569000D80749F7115000F780E0DF91CF911F91B3
:1056A0000F91FF90EF9008951F93182F8CE20E94A6
:1056B000242B882319F0812F0E94242B1F910895F9
:1056C0001F93CF93DF930E94CE2C882311F40E9466
:1056D000D92C14E6C0E4DCE905C00E94700ECE01AE
:1056E0000197F1F71150C8F789E20E94542B8823E3
:1056F00009F02FC18AE20E94542B882311F00E94E6
:10570000D92C85E00E94542B882311F00E94002B95
:105710000E94C92C8093A50287E00E94542B882305
:10572000B9F18BE10E94542B882349F09091A50296
:10573000892F869580958170880F9D7F26C08EE089
:105740000E94542B882359F09091A502892F8695A9
:10575000869580958170880F880F9B7F16C080E1A9
:105760000E94542B9091A502882359F0892F869589
:105770008695869580958170880F880F880F977F12
:1057800004C0892F809581709E7F982B9093A502ED
:105790008091A5020E94B92C0E94BF2C8093C50263
:1057A00080EE0E94542B882349F08091C502982FE7
:1057B000909591708E7F892B8093C50289E30E941A
:1057C000542B882359F09091C502892F8695809596
:1057D0008170880F9D7F982B9093C50282EE0E9466
:1057E000542B882369F09091C502892F8695869560
:1057F00080958170880F880F9B7F982B9093C502AE
:1058000086EE0E94542B882379F09091C502892F4F
:1058100086958695869580958170880F880F880F6C
:10582000977F982B9093C50283EE0E94542B882378
:1058300069F09091C502892F82958F708095817053
:105840008295807F9F7E982B9093C50285E30E946E
:10585000542B882379F09091C502892F82958695E3
:105860008770809581708295880F807E9F7D982BB0
:105870009093C50281E30E94542B882389F0909174
:10588000C502892F82958695869583708095817053
:105890008295880F880F807C9F7B982B9093C50200
:1058A00081E10E94542B882379F08091C502982FC2
:1058B000991F9927991F21E09227979599279795E6
:1058C0008F77892B8093C5028091C5020E94AD2CF1
:1058D0008091C502881F8827881F80933D0187E239
:1058E0000E94542B182F8EE10E94542B81111260BC
:1058F0008FE10E94542B8111146080E20E94542B8E
:105900008111186081E20E94542B8111106182E2A2
:105910000E94542B8111106283E20E94542B81114A
:10592000106484E20E94542B81111068112341F00D
:10593000812F0E94B32C612F70E080E090E007C0BF
:105940000E94C42C90E0A0E0B0E0BC01CD010E9418
:10595000D528DF91CF911F910895682F84E090E0C2
:105960000E9439330895682F83E090E00E94393314
:105970000895682F82E090E00E943933089584E012
:1059800090E00E942B33089583E090E00E942B3337
:10599000089582E090E00E942B33089580E090E02B
:1059A0000E94333320E08D5E9E4F09F421E0822F68
:1059B000089580E090E06DEE7EEF0E944B3382E030
:1059C00090E060E00E94393383E090E060E00E9464
:1059D000393384E090E060E00E94393385E090E064
:1059E00060E00E94393308958091B10280FF0BC0BE
:1059F0009091420185E0989FC0011124959587956B
:105A00009595879530C081FF09C09091420185E04E
:105A1000989FC00111249595879525C082FF03C0EA
:105A2000909142010DC08091B002882319F485E065
:105A300090E008956091430190914201861728F00B
:105A400085E0989FC00111240EC0899F9001112408
:105A5000C901880F991F880F991F820F931F70E04B
:105A60000E941833CB018038910510F08FE708951C
:105A7000009709F481E008958091B10280FF05C08C
:105A8000809144018695869518C081FF04C080915D
:105A90004401869512C082FF03C0809144010DC06D
:105AA0002091B002222319F481E090E008956091E2
:105AB000450180914401261710F090E007C0289F0F
:105AC000C001112470E00E941833CB018038910589
:105AD00010F08FE70895009709F481E00895803F62
