:100000000C94CE0D0C94120E0C94120E0C94120E35
:100010000C94120E0C94120E0C94120E0C94120EE0
:100020000C94120E0C94120E0C94131C0C94D71BEF
:100030000C94120E0C94120E0C94120E0C94120EC0
:100040000C94120E0C941C320C94120E0C94120E82
:100050000C94120E0C94542B0C94120E0C94120E41
:100060000C94120E0C94120E0C94120E0C94120E90
:100070000C94120E0C94120E0C94120E0C94120E80
:100080000C94120E0C94120E0C94120E0C94120E70
:100090000C94120E0C94120E0C94120E0C94120E60
:1000A0000C94120E0C94120E0C94120E0000000010
:1000B00000140000000016000000001416000000EC
:1000C00006000000001406000000160600000014E0
:1000D0001606000017000000001417000000161795
:1000E00000000014161700000700000000140700AD
:1000F00000000A00000000140A0000001D000000BB
:1001000000141D000000161D00000000000000008B
:100110001300000000141300000016130000001468
:1001200016130000171D00000014171700001B0015
:10013000000000141B000000071D0000001407074A
:1001400000000A1D000000140A0A00000B00000055
:1001500000140B000000160B00000014160B00002A
:10016000060B00000014060B000016060B00000032
:1001700000000000170B00000014170B0000000027
:100180000000001416170B000900000000140900FD
:1001900000000A0B000000140A0B00001D0B0000F9
:1001A00000141D0B00000000000000000000000013
:1001B000130B00000014130B000016130B000014A7
:1001C00016130B000E00000000140E000000160EA7
:1001D00000000014160E00000500000000140500C9
:1001E00000000000000000140505000011000000E0
:1001F000001411000000161100000014111100007D
:100200001A00000000141A00000016160000001466
:10021000161600001900000000141900000016193D
:100220000000000000000000070819000014071972
:1002300000000A11000000140A1100003300000041
:1002400000143300000016330000001416330000C1
:1002500013110000001433330000000000000014EC
:10026000131300000D00000000140D00000000003A
:1002700000000000000000000708330000140733EE
:100280000000000000000014070D00001C0000002A
:1002900000141C000000161C00000014161C0000B6
:1002A000061C00000014060600000000000000000C
:1002B00000000000171C00000000000000001617DE
:1002C0001C00000000000000071C000000140909C9
:1002D00000000A1C0000001409170000331C000075
:1002E000000000000000000000000000000000000E
:1002F000131C000000000000000016131C00001476
:1003000016130B1C0E1100000014060E11001B1C0E
:100310000000000000000000051C00000014051C87
:1003200000000000000000000000000015000000B8
:100330000014150000001608150000141515000023
:10034000061500000014061500001606150000141E
:1003500016061500171500000014171500001617D3
:10036000150000000000000007150000001407152C
:1003700000000A15000000140A1500001D150000F9
:10038000000000000000000000000000000000006D
:1003900013150000001413150000161315000014A7
:1003A00013131500000000000014171715001B158B
:1003B00000000000000000000708150000140707F7
:1003C00015000000000000140A0A1500150B0000BB
:1003D000000000000000160B1500000000000000E7
:1003E000060B1500001406061500000000000000B2
:1003F00000000000170B15000014170B0F00000081
:10040000000000000000000009150000001409159C
:1004100000000000000000140909150000000000A1
:1004200000000000000000000000000000000000CC
:10043000130B15000014130B150000000000000042
:10044000000000000E150000000000000000000089
:100450000000000000000000051500000014051554
:100460000000000000000014050515000F0000004A
:1004700000140F000000160F00000014160F0000FB
:10048000060F00000014060F00000000000000002E
:100490000000000004000000001404000000160426
:1004A000000000141604000007080F0000140604E2
:1004B00000000A0F000000140A0F000033150000AE
:1004C00000140F0F000000000000000000000000FA
:1004D000130F00000014130F000016130F00001478
:1004E00013130F000D08150000000000000016088F
:1004F00015190000000000000000000000140707AC
:100500000F000000000000140A0A0F000F1C00007A
:10051000000000000000160F1C000000000000009A
:1005200006151C00001406060F0000000000000065
:100530000000000017151C00000000000000161746
:10054000151C000000000000090F00000014090F36
:10055000000000000000001409090F000000000066
:10056000000000000000000000000000000000008B
:10057000130B0F000000000000000000000000004E
:10058000000000000E0F000000000000000000004E
:100590000000000000000000050F00000014050F1F
:1005A000000000000000000000000000000000004B
:1005B0000008000000001200000000081200000007
:1005C00014000000000814000000121400000008CD
:1005D0001214000018000000000818000000121893
:1005E0000000000812180000141800000008141879
:1005F0000000121418000008121418000C0000006B
:1006000000080C000000120C00000008120C000092
:10061000140C00000008140C000012140C00000858
:1006200012140C00180C00000008180C000012181E
:100630000C00000812180C0014180C000008141804
:100640000C001214180C00081214180C0000000002
:10065000000808000000121200000012080000004C
:100660001414000000140800000014120000000818
:1006700014120000181800000018080000001812DA
:1006800000000008181200001814000000081814D8
:100690000000121814000008121814000C0C0000BE
:1006A000000C080000000C12000000080C120000F2
:1006B0000C14000000080C140000120C14000008B8
:1006C000120C14000C18000000080C1800000C128A
:1006D00018000008120C1800140C18000008140C64
:1006E000180012140C18000812140C180000000056
:1006F00000150000000011000000001511000000AE
:100700000F00000000150F00000016000000000F91
:100710000F0000000A00000000150A000000110A86
:100720000000000A110000000F0A00000000000095
:1007300000000700000000070F0000000600000096
:100740000015060000001106000000000000000077
:100750001300000000151300000016130000001322
:100760000F000000050000000015050000000A0A47
:100770000000000000000000050F00000000000065
:10078000000000000000000F050000000B0000004A
:10079000001D0000000019000000001D11000000F5
:1007A0001A000000001D0F000000160B0000000FD3
:1007B000190000000A0B000000150A0B00003300AE
:1007C00000000015330000001B00000000000000C6
:1007D000000016330000000F33000000060B00007D
:1007E0000015060B000011060B0000151900000093
:1007F000130B000000000000000000000000000FCC
:10080000060B000009000000001509000000330578
:1008100000000033050815000F090000000000006B
:10082000000033130000000000000000170000006B
:100830000015170000001117000000151117000027
:100840000F17000000000000000016170000001540
:10085000161700000E00000000150E000000110E1B
:1008600000000000000000000E0F0000000000006B
:100870000000160E0000000F0E000000061700001A
:10088000000000000000170C121100000000000022
:100890001317000000000000000011161700000FE1
:1008A00013000000060E0000000000000000051705
:1008B0000000000000000000060E0F000000000015
:1008C000000000000000000000000000170B000006
:1008D0000015170B000011170B00001D170B00006F
:1008E0000F170B00000000000000000000000000D7
:1008F000000000000A0B1700001D0E000000110A86
:10090000170B0000000000001B1700000000000093
:10091000000007170B0000000000000017060B0086
:1009200000000000000000000000000000000000C7
:1009300013170B0000000000000000000000000082
:10094000000000000917000000091708150009172A
:10095000081100000000000000000000000000007E
:100960000000331317000000000000001600000014
:1009700000151600000011160000001511160000E9
:100980000F16000000150F16000016160000000FCD
:100990000F1600000A16000000150A160000110AC2
:1009A0001600000A11160000000000000000000000
:1009B00000000716000000000000000006160000FE
:1009C00000150616000011060816000000000000C1
:1009D000131600000015131600001613160000135E
:1009E0000F081600051600000015051600000A0A7B
:1009F0001600000000000000050F081600000000AF
:100A0000000000000000000F051600000B1600009B
:100A1000001D1600000019081600001D1116000028
:100A20001A081600001D0F160000160B0816000FFE
:100A3000190816000A0B160000000000000033160B
:100A400000000015331600001B081600000000000F
:100A5000000016331600000F3316000007000000D8
:100A600000150700000011070000001D070000002E
:100A7000130B160000150F07000000000000000F08
:100A800007000000070A0000000000000000330516
:100A900016000033050815160000000000000000D5
:100AA00000003313160000000000000017160000BD
:100AB00000151716000011171600000000000000B6
:100AC0000F17160000000000000016171600001592
:100AD000161716000E16000000150E160000110E57
:100AE00016000000000000000000000000000000F0
:100AF0000000160E1600000F0E1600000617160056
:100B0000000000000000170C121116000000000089
:100B10000000000000000000000000000000000FC6
:100B200013160000060E1600000000000000051756
:100B30001600000000000000060E0F08160000005E
:100B4000000000000000000000000000170B16006D
:100B50000015170B160011170B16001D170B1600AA
:100B60000000000000000000000000000000000085
:100B7000000000000A0B1716001D0E160000110AD7
:100B8000170B16000000000000000000000000002D
:100B9000000007170B1600000000000007160000F9
:100BA00000150716000011071600001D07160000AB
:100BB00013170B1600150F07160000000000000F9A
:100BC0000716000000000000000000000000000008
:100BD0000000000000000000000000000000000015
:100BE0000000331317160000000000000000000092
:100BF0000008000000001C00000000081C000000AD
:100C0000160000000008160000001C160000000876
:100C10001C1600000000000000002C000000000076
:100C20002B00000000000000000000002800000071
:100C300000000000000000000000000000000000B4
:100C4000000000000000000000001E020000000084
:100C50001F0200000000200200000000210200002E
:100C60000000220200000000230200000000240215
:100C70000000000025020000000026020000000025
:100C80001E02270200001E021E0200001E021F029A
:100C900000001E02200200001E02210200001E02AF
:100CA000220200002702000000001E0227020000AE
:100CB0001F02270200002002270200002102270253
:100CC0000000220227020000230227020000240263
:100CD000270200002502270200002602270200004A
:100CE0001E02270227021E021E0227021E021F02E8
:100CF00027021E02200227021E02210227021E02D4
:100D0000220227020000000000001E020000000076
:100D10001F0200000000200200000000210200006D
:100D20000000220200000000230200000000240254
:100D30000000000025020000000026020000000064
:100D40001E02270200001E021E0200001E021F02D9
:100D500000001E02200200001E02210200001E02EE
:100D6000220200002702000000001E0227020000ED
:100D70001F02270200002002270200002102270292
:100D800000002202270200002302270200002402A2
:100D90002702000025022702000026022702000089
:100DA0001E02270227021E021E0227021E021F0227
:100DB00027021E02200227021E02210227021E0213
:100DC000220227020000000000003800000000009E
:100DD0002900000000002900370000003200000058
:100DE0000000000000000000000000000000000003
:100DF00000000000250000000000000000000000CE
:100E000000000000000000000000000000000000E2
:100E100000000000000000000000000000000000D2
:100E200000000000000000000000000000000000C2
:100E300000000000000000000000000000000000B2
:100E400000000000000000000000000000000000A2
:100E50000000000000000000000000000000000092
:100E60000000000000000000000000000000000082
:100E70000000000000000000000000000000000072
:100E80000000000000000000000000000000000062
:100E90000000000000000000000000000000000052
:100EA0000000000000000000000000000000000042
:100EB0000000000000000000000000000000000032
:100EC0000000000000000000000000000000000022
:100ED0000000000000000000000000000000000012
:100EE0000000000000000000000000000000000002
:100EF00000000000000000000000000000000000F2
:100F000000000000000000000000000000000000E1
:100F100000000000000000000000000000000000D1
:100F200000000000000000000000000000000000C1
:100F300000000000000000000000000000000000B1
:100F4000000000000000000000000700000000009A
:100F50002100160000000700000000000000000053
:100F60000000000000000000110021001700000038
:100F7000000000000C0011000A000000000000004A
:100F800021000F000F000000000000000800150005
:100F90000000000000000000000000000000000051
:100FA000000000000C0011000A000000000000001A
:100FB00021001900080000000000000000000000EF
:100FC0000000000000000000000000000000000021
:100FD00000000000080015000000000000000000F4
:100FE0000000000000000000000000000000000001
:100FF00000000000000000000000000000000000F1
:10100000000000000C0011000A00000000000000B9
:1010100021000700000000000000000000000000A8
:1010200000000000000000000000000000000000C0
:1010300000000000000000000000000000000000B0
:1010400000000000000000000000000000000000A0
:101050000000000000000000000000000000000090
:101060000000000008001500000000000000000063
:10107000210033000000000000000000000000001C
:101080000000000000000000000000000000000060
:101090000000000000000000000000000000000050
:1010A0000000000000000000000000000000000040
:1010B0000000000000000000000000000000000030
:1010C00000000000000000000000220000000000FE
:1010D0002500000000000000000000002D000000BE
:1010E000000022002D0000000000000000000000B1
:1010F00000000000230000000000000000000000CD
:1011000000000000000000000000000000000000DF
:1011100000000000000000000000000000000000CF
:101120000000000036020000000000000000000087
:101130000000000000000000000000002D0036024A
:10114000000022002D003602000000000000000018
:10115000000000000000000000000000000000008F
:10116000000000000000000000000000000000007F
:10117000000000000000000000000000000000006F
:10118000000000001000000000000000000000004F
:101190000000000000000000000000002D00100012
:1011A000000022002D0010000000000000000000E0
:1011B000000000000000000000000000000000002F
:1011C000000000000000000000000000000000001F
:1011D000000000000000000000000000000000000F
:1011E00000000000360000000000000000000000C9
:1011F0000000000000000000000000002D0036008C
:10120000000022002D003600000000000000000059
:1012100000000000000000000000000000000000CE
:1012200000000000000000000000000000000000BE
:1012300000000000000000000000000000000000AE
:101240000000000000000000000036020000000066
:1012500036020000000037000000000022000000FD
:10126000000000000000000064000000000000001A
:10127000000000002100000000000000000000004D
:10128000000000000000000000000000200000003E
:10129000000000000000000000000000000000004E
:1012A000000000002D000000000000000000000011
:1012B00000000000000000000000000022002D00DF
:1012C00050000000000000000000000000000000CE
:1012D000000000000000000000000000000000000E
:1012E00000000000000000000000000000000000FE
:1012F00000000000000000000000000000000000EE
:1013000000000000100200000000000000000000CB
:101310000000000000000000000000006402000067
:1013200000000000000000006400640250000000A3
:10133000000000002100210050000000000000001B
:10134000000000000000000000000000200020005D
:10135000500000000000000000000000000000003D
:101360000000000038000000000000000000000045
:10137000000000000000000000000000000000006D
:10138000000000000000000000000000000000005D
:10139000000000000000000000000000000000004D
:1013A000000000000000000000000000000000003D
:1013B000000000000000000000000000000000002D
:1013C000000000000000000000000000000000001D
:1013D00020000080200000800000000084000080C9
:1013E000000000003000008021000080210000800B
:1013F00052000080800000803200008031000080B8
:10140000400000804100008050000080810000808A
:101410003300008042000080430000800000000094
:1014200011000080820000803400008044000080B1
:101430004500008000000000510000808300008013
:10144000350000804600008047000080000000005A
:101450001000008000000000B200008000000000CA
:10146000100000800000000010000080000000005C
:10147000B000008000000000B0000080000000000C
:101480001000008093000080A500008060000080B4
:1014900061000080000000001000008092000080C9
:1014A000A400008062000080630000800000000053
:1014B0005200008091000080A30000806400008042
:1014C0006500008000000000110000809000008096
:1014D000A2000080A10000806600008067000080FC
:1014E000540000809400008000000000A0000080F4
:1014F0007000008071000080530000800000000038
:1015000000000000000000007200008072000080F7
:1015100000000000000000000000000000000000CB
:1015200000000000000000000000000000000000BB
:1015300000000000000000000000000000000000AB
:10154000000000000000000000000000000000009B
:10155000000000000000000000000000000000008B
:10156000000000000000000000000000000000007B
:10157000000000000000000000000000000000006B
:10158000000000000000000000000000000000005B
:10159000000000000000000000000000000000004B
:1015A000000000000000000000000000000000003B
:1015B000000000000000000000000000000000002B
:1015C000000000000000000000000000000000001B
:1015D000000000000000000000000000000000000B
:1015E00000000000000000000000000000000000FB
:1015F00000000000000000000000000000000000EB
:1016000000000000000000000000000000000000DA
:1016100000000000000000000000000000000000CA
:1016200000000000000000000000000000000000BA
:1016300000000000000000000000000000000000AA
:10164000000000000000000000000000000000009A
:10165000000000000000000000000000000000008A
:10166000000000001E0030002B000130E0000000F0
:101670002214040014001A001E00035221141D003D
:1016800015001B00E2002A002E14090016000600B7
:1016900052002800220013001700190051004600D4
:1016A0002E000A000700050000000452E300490074
:1016B000000029000000045401542A000000280002
:1016C0000000045432000D000B000E000000045214
:1016D0002D000F0011003300500000002E021800F2
:1016E000080010004F002C002D141C000C003602C6
:1016F00025144C0038003600120021002714035234
:101700002014370223000130E40000000452E200FC
:10171000E00000300030000000302B0000300030CE
:101720000030003000300030003000300030003039
:101730000030003000300030010000300030003058
:101740000030003001000030003000300030003048
:10175000000000302A00003000000030000000309F
:101760000100003000000030000000300030003088
:101770000030003000000030003000300030003019
:101780000100003000300030003000300100003037
:1017900000300030003000300030003000300030C9
:1017A00000300030003000304C00E600E400003033
:1017B0000030000034000230010001000100000090
:1017C000240001000100010034000100220001009A
:1017D00001000100010001002000010001000100E2
:1017E000010001001E0001000100010001000100D4
:1017F00026000100010001000000010001000100BD
:1018000000000100000001000000010000000100D4
:10181000000001002700010001000100000001009C
:101820001F00010001000100010001002100010072
:10183000010002300100010023000100010002301C
:1018400002300100250002300100023002300100A8
:101850000230100002300100010000000000000012
:101860000000000000000000000000002700000051
:101870000000010000000000000000000000000067
:101880000000000000002600000000000000000032
:101890000000000000000000000000000000000048
:1018A0000000000000000000000000000000000038
:1018B0000000000000000000000000000000000028
:1018C0002400000000000000000000001F000000D5
:1018D00000000000000034000330000000000000A1
:1018E00000000000033000000000000000002F0294
:1018F00003300000000001000000000000000000B4
:1019000000000000010001000100E10001000000F2
:101910003A00010001000100010001003B0001004C
:1019200001000100010001003C0001000100010074
:101930004B0001003D000100010001004E000100CC
:101940003E00010001000100000001003F00010015
:101950000000010000000100400001000000010043
:101960000000010041000100010001000000010031
:1019700042000100010001004A0001004300010093
:10198000010001004D0001004400010001000100C0
:1019900001000100450001000100010001000050AC
:1019A000000001000100E50001000000050109063A
:1019B000A101050719E029E7150025019508750122
:1019C0008102950175088101050819012905950510
:1019D000750191029501750391010507190029FF11
:1019E000150026FF00950675088100C00501090253
:1019F000A1010901A1000509190129051500250109
:101A00009505750181029501750381010501093074
:101A100009311581257F95027508810609381581E0
:101A2000257F950175088106050C0A380215812568
:101A30007F950175088106C0C005010980A1018557
:101A40000216010026B7001A01002AB7007510958A
:101A5000018100C0050C0901A101850316010026C2
:101A60009C021A01002A9C02751095018100C00594
:101A7000010906A101050719E029E71500250195CF
:101A8000087501810205081901290595057501915F
:101A900002950175039101050719002977150025A5
:101AA00001957875018102C0120110010000000843
:101AB000EDFE071301000102000109026D0004019F
:101AC00000A0FA090400000103010100092111012D
:101AD00000012240000705810308000A09040100F3
:101AE0000103010200092111010001224D00070537
:101AF000820308000A090402000103000000092112
:101B0000110100012236000705830308000A0904B9
:101B10000300010300000009211101000122390026
:101B2000070584031000010403090416034500722D
:101B30000067006F0044006F007800200045005AE5
:101B400000000016034500720067006F0044006F3C
:101B5000007800200045005A00000000000000004E
:101B6000000000000000010204060A0F17202C3AB2
:101B70004A5D71879DB3C7DAE9F5FCFFFCF5E9DA48
:101B8000C7B39D87715D4A3A2C20170F0A060402DD
:101B900001000000000000000000000011241FBE32
:101BA000CFEFDAE0DEBFCDBF04B603FE24C08091E4
:101BB000C2029091C302A091C402B091C5028750A5
:101BC000904BA740B04BB9F41092C2021092C302DE
:101BD0001092C4021092C50214BE84B7877F84BFDE
:101BE00088E10FB6F89480936000109260000FBEF9
:101BF000E0E0FFE3099511E0A0E0B1E0E8EBF7E6F3
:101C000002C005900D92A238B107D9F712E0A2E800
:101C1000B1E001C01D92A23CB107E1F70E94FA17A2
:101C20000C94DA330C9400001092B9008AE080938F
:101C3000B8000895982F84EA8093BC008091BC007E
:101C400087FFFCCF8091B900887F883021F08031F8
:101C500011F081E008959093BB0084E88093BC006C
:101C60008091BC0087FFFCCF9091B900987F98319C
:101C700011F480E0089580E0903409F081E0089547
:101C800084E98093BC008091BC0084FDFCCF089562
:101C90008093BB0084E88093BC008091BC0087FFE8
:101CA000FCCF8091B90090E0887F883209F091E004
:101CB000892F089584E88093BC008091BC0087FF41
:101CC000FCCF8091BB000895E2E8F1E0E80FF11D40
:101CD0008081089508951F93CF93DF93C2E8D1E0E8
:101CE00010E0899190E00E94802A180F81E0C039AD
:101CF000D807B9F7812FDF91CF911F910895809177
:101D000001018823A9F480E40E941A0E8093010146
:101D1000882361F482E10E94480E809301018823A8
:101D200029F48FEF0E94480E809301010E94400E1B
:101D300084B1807F84B985B1807F85B98AB1837F82
:101D40008AB98BB1837F8BB93E98469808950E94DB
:101D50003110809301010E947F0E80B38C7080BB94
:101D600081B3836F81BB80E090E0FC01EE57FE4FB2
:101D70001082FC01E057FE4F108201968E309105D3
:101D8000A1F70E941A100895BF92CF92DF92EF92AE
:101D9000FF920F931F93CF93DF93809101018823CC
:101DA00079F080919E018F5F80939E01882341F49A
:101DB0000E94311080930101882311F40E94C20F08
:101DC00020E9E22E21E0F22EC0E0D0E090EAB92E28
:101DD00081E0C82ED12C02E0C73010F580910101BE
:101DE000882309F045C080E40E941A0E8093010107
:101DF000882399F482E10E94480E80930101882390
:101E000061F4C6010C2E02C0880F991F0A94E2F7F4
:101E100080950E94480E809301010E94400E28C0C8
:101E2000CA30D9F0CB3040F4C83089F0C93090F4D2
:101E3000C73009F09CC008C0CC30A1F0CC3080F095
:101E4000CD3009F094C011C0209A289890C0219AF2
:101E500029988DC0229A2A988AC0239A2B9887C0E5
:101E6000529A01C0539A5B9882C03E9A46987FC0AE
:101E700080910101882311F010E03EC080E40E94AF
:101E80001A0E80930101882399F483E10E94480E81
:101E900080930101882361F481E40E941A0E8093EB
:101EA0000101882329F40E945A0E182F109501C0B1
:101EB00010E00E94400E20C042E07C9902C034E055
:101EC00001C030E07D9902C028E001C020E07E9989
:101ED00002C090E101C090E08FB18095881F8827F3
:101EE000881F8295880F807E152F1C251170142B5A
:101EF000132B122B192B182BF7018081811719F046
:101F00001083009300010E947F0E21960894E11C2B
:101F1000F11CCE30D10509F05FCF809100018823FC
:101F2000C9F0815080930001882329F080EA9FE066
:101F30000197F1F70FC020E030E0F901EE57FE4FB6
:101F4000D901A057BE4F8C9180832F5F3F4F2E3019
:101F5000310599F70E94BF0F81E0DF91CF911F916A
:101F60000F91FF90EF90DF90CF90BF9008958B2D51
:101F70008A95F1F75FB1799B9FCF40E09ECF0E9499
:101F8000B510089556985E9825982D9826982E9805
:101F900027982F988FEF90E0909389008093880086
:101FA00090938B0080938A0090938D0080938C0097
:101FB000259A2D9A84EF91E020E931E0F9013197DB
:101FC000F1F70197D9F7269A2E9A84EF91E020E94C
:101FD00031E0F9013197F1F70197D9F7279A2F9A54
:101FE00084EF91E020E931E0F9013197F1F70197B1
:101FF000D9F725982D9884EF91E020E931E0F90197
:102000003197F1F70197D9F726982E9884EF91E050
:1020100020E931E0F9013197F1F70197D9F72798D5
:102020002F9856985E9825982D9826982E98279840
:102030002F98089589EA8093800089E08093810039
:1020400024982C983F988AB18F748AB96E98479AD1
:102050008BB1806B8BB9769A0E94C20F0E94B4102C
:10206000089580E28093010180919F01882371F49B
:102070000E94140E81E080939F0180E197E220E9A5
:1020800031E0F9013197F1F70197D9F780E40E9427
:102090001A0E80930101882371F50E94480E8093E7
:1020A0000101882341F50E94480E80930101882395
:1020B00011F58FE30E94480E809301018823D9F423
:1020C0000E94400E80E40E941A0E80930101882332
:1020D00091F48CE00E94480E80930101882359F40A
:1020E0000E94480E80930101882329F48FE30E9407
:1020F000480E809301010E94400E809101010895D5
:102100008091A0019091A101A091A201B091A301A1
:102110000097A105B10519F080E090E0089520E056
:102120008091A4019091A501A091A601B091A70171
:102130000097A105B10509F021E081E02827822F51
:102140000895282F803119F480E090E0089584509C
:102150008A3118F481E090E0089580E090E0233324
:1021600011F481E090E008950895609188027091E3
:10217000890280918A0290918B020E948D2A569A40
:102180005E9A25982D9826982E9827982F9881301A
:1021900019F0843031F403C0259A2D9A02C0269A92
:1021A0002E9A0E948010882311F4279A2F9A08955E
:1021B000FF920F931F93182F062F0E94E129F82EEC
:1021C000812F0E94F129802F0E942A208F2D0E94AA
:1021D000F1291F910F91FF9008952F923F924F92F6
:1021E0005F926F927F928F929F92AF92BF92CF92A7
:1021F000DF92EF92FF920F931F93DF93CF9300D064
:1022000000D000D0CDB7DEB70E94E1298A8382E1F9
:102210000E94EA292091AD0129838091A90190E0D3
:10222000332433943822DC01A270B070BC83AB83BA
:102230008091AA01882319F4442455240DC0442414
:10224000823011F4442443945524833011F45524EE
:10225000539482E00E94E4295AE1852E51E0952EA4
:10226000EE24FF24AA2422242394F701E855FE4FEC
:102270008081882309F4B4C02224B1E0EB16F10474
:1022800011F422242394F701EE5AFE4FE081F5E089
:10229000EF16F10439F43320F9F04CE4C42E46E093
:1022A000D42E21C024E0E216F10461F43320A1F021
:1022B0003981332389F48695869534ECC32E30E139
:1022C000D32E57C096E0E916F10431F4332021F003
:1022D000A981AA2309F4D6C0D401CD90DC90C11401
:1022E000D10409F47DC0E13009F043C0B5E08B9F13
:1022F00030011124BB2410E0F601E60DF71D049116
:102300000023A9F0802F0E942A20802F0E94D71F2F
:10231000A394442019F0E1E0AE1629F0552001F114
:10232000F2E0AF16E9F482E00E94EA2919C02B819D
:102330003C81232B09F454C031E0B31609F050C09E
:1023400086E0E816F10409F04BC0112309F448C0F7
:10235000812F0E942A20812F0E94D71FA39440C062
:102360000894611C711C94E0B916D1F1B394102F3C
:10237000C3CFA3E08A9F3001112400E010E0F801F0
:10238000E60DF71DEE0FFF1FEC0DFD1D259134919D
:102390003E832D83232B21F1BD808B2D0E94A11024
:1023A000882321F08B2D0E942A2004C08E816D810C
:1023B0000E94D8108B2D0E94D71FA394442019F09F
:1023C00031E0A31629F0552031F082E0A81619F467
:1023D00082E00E94EA290F5F1F4F0330110579F652
:1023E0000894E11CF11CA2E0B0E08A0E9B1EBCE048
:1023F000EB16F10409F039CFAA2099F08091180268
:10240000843611F41092180280911802E82FFF27E9
:10241000E7FDF095EC54FE4FA0828F5F8093180289
:1024200026C0332021F1222011F100911802015021
:1024300007FD03E6C02EDD24C7FCD094F601EC5462
:10244000FE4FF080FF2099F010E007C08AE20E9462
:102450002A208AE20E94D71F1F5F1F15B8F3E4EB02
:10246000F1E0CE0EDF1ED6011C92009318028A8185
:102470000E94F129E8EAF1E01192B1E0E43BFB07A8
:10248000D9F705C094E4C92E92E1D92E72CF2696D1
:102490000FB6F894DEBF0FBECDBFCF91DF911F9175
:1024A0000F91FF90EF90DF90CF90BF90AF909F90F3
:1024B0008F907F906F905F904F903F902F900895F6
:1024C0008F929F92AF92BF92CF92DF92EF92FF9244
:1024D0000F931F93CF93DF936C01613009F4D3C046
:1024E000613038F0623009F4E0C0633009F00EC1A9
:1024F000F7C0FC01818196E0899FD0011124808181
:10250000A80FB11DFD01EE0FFF1FEE0FFF1FEC53D3
:10251000FC4E259135914591549121153105410588
:10252000510509F4F3C057FF71C0C9018F70907055
:1025300061E0E62EF12C012D112D04C0EE0CFF1CE4
:10254000001F111F8A95D2F794E05695479537954D
:1025500027959A95D1F78FE0982E9222A92CBB242B
:10256000F501EA5BFE4F8080F501EE0FFF1FEE5F85
:10257000FE4FC081D181F6018281882311F1F2E002
:102580009F1619F481EE0E942A20A801970104C029
:10259000220F331F441F551F8A94D2F788819981D7
:1025A000AA81BB81822B932BA42BB52B8883998383
:1025B000AA83BB83F501E855FE4F80818E29808375
:1025C000A5C0A801970104C0220F331F441F551F47
:1025D0008A94D2F7209530954095509588819981BD
:1025E000AA81BB8182239323A423B5238883998363
:1025F000AA83BB830E948010882311F00E94ED10F3
:1026000082E0981609F082C081EE7EC0622FFD0143
:10261000EE0FFF1FEE0FFF1FEC5EFA4EE590F590F8
:1026200005911491E114F1040105110511F4BB2485
:1026300012C0BE2CE0910601F091070180819181CA
:10264000A281B38180709070A070B0760097A105D0
:10265000B10509F06AC0F6018281882361F008C0E3
:102660008F2D6E2D38C0822F0E94D71F8E2D4CC00B
:10267000832F992730C0862F0E94D71FBB2009F4D3
:1026800045C08B2D41C0FC018281882339F081EE49
:102690000E942A2082E00E94DD2838C081EE0E943C
:1026A000D71F82E00E94BD2831C0FC01608171818A
:1026B00080E00E94361462E170E00E947D33FC01EC
:1026C000EE0FFF1FE25AFE4F60819181F601828179
:1026D000882321F0892F0E94D81018C0862F14C09B
:1026E000FC018281882391F06081718180E00E94E9
:1026F0003614182F8FE20E942A208FE20E94D71FE3
:10270000812F0E942A20812F0E94D71F80E090E015
:10271000DF91CF911F910F91FF90EF90DF90CF90BD
:10272000BF90AF909F908F900895F601828188238B
:1027300009F096CF98CF81E0089581E008950E9436
:102740009D13089508950F931F93CF93DF93EC018A
:1027500018810981812F902F0E940D28612F702FE1
:102760000E9436148C01BE010E949F13882309F435
:1027700077C08A818823C9F1809119028823F1F4F6
:1027800080E50431180789F50E94A21381E0809347
:1027900019020E941C2B90931B0280931A02109224
:1027A000220210921D0210921C0210921F0210921F
:1027B0001E02109221021092200227C080911A025C
:1027C00090911B020E94292B883C910570F4809106
:1027D0002202E82FF0E0EE0FFF1FE45EFD4F1183B1
:1027E00000838F5F8093220210C080E504381807B1
:1027F00021F00558104561F516C08A81882339F00B
:102800001092230282E00E94D01F80E029C08091B4
:102810002302882331F486E20E942A2086E20E9465
:10282000D71F82E012C08A81882321F010922402EF
:1028300080E2E9CF80912402882331F487E20E946C
:102840002A2087E20E94D71F80E20E94C91FDDCFA5
:1028500081E08093230280932402CE010E949B1387
:10286000DF91CF911F910F9108950895E62FF0E029
:10287000EE0FFF1F9CE0799F90011124E20FF31FE0
:1028800098EA899FC0011124E80FF91FEC59F94E0D
:1028900025913491C9010895FC01EE0FFF1FE45DFD
:1028A000F74E25913491C9010895FC01EE0FFF1FE9
:1028B000E455F64E25913491C9010895CF93DF93E5
:1028C000EC0120E38030920740F580E2C030D80769
:1028D00008F0E7C0CB3BD10580F4C83AD10508F039
:1028E00061C0C53AD10508F04EC0C430D10508F02A
:1028F00048C0219709F0EEC1CEC0CF3FD10511F0FD
:1029000008F0CCC0C03FD10508F0C2C0CE01805E47
:102910009040089708F0DEC134C090E5C130D90777
:1029200009F4DAC020E5C230D207A0F48FE4C03148
:10293000D80758F490E4C030D90708F0BBC021E3B1
:10294000C030D20708F0C6C1B1C0C050D04509F0B0
:10295000C1C1B4C097E5C030D90758F421E5C031F2
:10296000D20708F04EC180E5C431D80708F0B2C1E3
:10297000B9C0CE01805090478050904108F0AAC164
:10298000A5C19E01A9C1C53AD10519F481E890E419
:102990007DC0C63AD10519F083E890E477C082E89B
:1029A00090E474C0C83AD10519F482EE94E46EC084
:1029B000C93AD10519F489EE94E468C0CA3AD10540
:1029C00019F48AEE94E462C0CB3AD10519F485EB90
:1029D00094E45CC0CC3AD10519F486EB94E456C07B
:1029E000CD3AD10519F487EB94E450C0C03BD10532
:1029F00019F48CEC94E44AC0CE3AD10519F48DEC6C
:102A000094E444C0CF3AD10519F483E895E43EC07C
:102A1000C13BD10519F48AE895E438C0C23BD10521
:102A200019F482E995E432C0C33BD10519F484E975
:102A300095E42CC0C43BD10519F481E296E426C08C
:102A4000C53BD10519F483E296E420C0C63BD1050D
:102A500019F484E296E41AC0C73BD10519F485E263
:102A600096E414C0C83BD10519F486E296E40EC082
:102A7000C93BD10519F487E296E408C0CA3BD105E9
:102A800019F080E094E402C08AE296E49C0124C13B
:102A90009E01306521C121E030E01EC19E013F71E1
:102AA0001BC1CE019F700E94551417C19E0130704A
:102AB000306C12C19E013F70306A0EC10E94C41F6B
:102AC00084EC99E020E931E0F9013197F1F70197C1
:102AD000D9F70E94792B00C18091A1028160809377
:102AE000A102FAC00E94472D882311F40E94522DA2
:102AF0000E94382D8093C1021092C20290E5C2302C
:102B0000D90711F4816076C020E5C430D20711F4F2
:102B1000826070C090E5C630D90711F484606AC045
:102B200020E5C830D20711F4886064C090E5CA304F
:102B3000D90711F480615EC020E5CC30D20711F4D2
:102B4000806258C090E5CE30D90711F4806452C03D
:102B500020E5C031D20711F480684CC090E5C23145
:102B6000D90711F48C6046C020E5C330D20721F4A8
:102B70008091C1028E7F3EC080E5C530D80721F428
:102B80008091C1028D7F36C090E5C730D90721F40E
:102B90008091C1028B7F2EC020E5C930D20721F47D
:102BA0008091C102877F26C080E5CB30D80721F411
:102BB0008091C1028F7E1EC090E5CD30D90721F4EF
:102BC0008091C1028F7D16C020E5CF30D20721F45D
:102BD0008091C1028F7B0EC080E5C131D80721F4FE
:102BE0008091C1028F7706C0C351D04529F48091EE
:102BF000C102837F8093C1028091C1020E94262D71
:102C00006BC04D2F55274F70507041305105F9F46E
:102C10009E01A4E0220F331FAA95E1F720703370C4
:102C2000CE01F3E0880F991FFA95E1F78076907056
:102C3000282B392B3C68C370D07002C0440F551F3D
:102C4000CA95E2F74F715070242B352B45C04230A6
:102C5000510529F43C2F2227216F306A3DC04330B3
:102C6000510551F49E0173E0220F331F7A95E1F76D
:102C7000207E37703C680CC044305105B9F49E0189
:102C800063E0220F331F6A95E1F7207E37703A68C0
:102C9000C370D07081E090E002C0880F991FCA9580
:102CA000E2F78F719070282B392B16C045305105F3
:102CB00029F43C2F2227246F306A0EC0463051057C
:102CC00059F4CF71D0703C2F222702C09E013F7073
:102CD000306202C020E030E0C901DF91CF91089559
:102CE0000E943614803E9105F0F4803C910588F5F1
:102CF0008133910509F475C08233910548F4893216
:102D0000910509F464C08A32910509F07BC06EC058
:102D10008933910509F182389105F1F085339105E8
:102D200009F070C04FC0833E910561F1843E91056A
:102D300040F4803E9105B9F0823E910509F062C0F1
:102D40001CC0863E910551F1873E910509F05AC09D
:102D50002AC00E944C1408952091C10220FD0AC08F
:102D600021FD08C04CC08091C10280FF03C089E3EF
:102D700090E045C080EE90E042C08091C10282FDAB
:102D800008C004C08091C10282FF03C082EE90E0BF
:102D900036C084FD11C083EE90E031C08091C10245
:102DA00083FD08C004C08091C10283FF03C086EE8A
:102DB00090E025C084FF03C080E090E020C087EE53
:102DC00090E01DC08091C10285FF05C007C08091C1
:102DD000C10285FF03C085E390E011C089E290E065
:102DE0000EC08091C10286FF05C007C08091C1025C
:102DF00086FF03C081E390E002C08AE290E00E9477
:102E00005E1408950E945E14089508950E940517A7
:102E100008951092B70208950895809126020895AA
:102E2000DF93CF9300D00F92CDB7DEB7AC01809186
:102E3000B802843029F583E08093E9002FEF95ED07
:102E400005C0892F8A95F1F7222329F08091E800A7
:102E5000215085FFF6CF8091E80085FF11C05B838C
:102E60004A8383E08983CE01019663E070E040E00D
:102E700050E00E94791A8091E8008E778093E800F4
:102E80000F900F900F90CF91DF910895DF93CF9324
:102E900000D00F92CDB7DEB7AC018091B80284307C
:102EA00029F583E08093E9002FEF95ED05C0892F88
:102EB0008A95F1F7222329F08091E800215085FFBF
:102EC000F6CF8091E80085FF11C05B834A8382E0E2
:102ED0008983CE01019663E070E040E050E00E94FB
:102EE000791A8091E8008E778093E8000F900F9018
:102EF0000F90CF91DF910895AC018091B80284309A
:102F000001F582E08093E9002FEF95ED05C0892F50
:102F10008A95F1F7222329F08091E800215085FF5E
:102F2000F6CF8091E80085FF0CC0CA0165E070E033
:102F300040E050E00E94791A8091E8008E778093FB
:102F4000E80008950F931F93182F092F9091B8024E
:102F5000943009F04CC0809132018823E1F08091D7
:102F60003D018823C1F09093E9009FEF25E105C062
:102F7000822F8A95F1F7992329F08091E8009150EA
:102F800085FFF6CF8091E80085FF31C0812F902F1B
:102F900060E170E018C081E08093E9009FEF25EDCB
:102FA00005C0822F8A95F1F7992329F08091E800D6
:102FB000915085FFF6CF8091E80085FF18C0812FE2
:102FC000902F68E070E040E050E00E94791A809114
:102FD000E8008E778093E800A7E2B2E0212F302F3F
:102FE000C901FC0180E101900D928150E1F71F9130
:102FF0000F91089584B7877F84BF88E10FB6F89456
:1030000080936000109260000FBE80E880936100A2
:10301000109261000E94C51E0E94571B0E94B81B9F
:103020008091E20084608093E20078940E94561EB2
:103030000E94571F83E391E00E946C1E0E94F731AB
:103040000CC00E94DF2A8091B602882331F00E94D2
:10305000082B882311F00E948E198091B8028530C8
:1030600081F30E94CB1EF9CF8091B702882349F4E7
:103070000E94571B0E94B81B8091E20084608093DD
:10308000E20008958091BA02833009F457C0843079
:1030900030F4813071F0823009F0B1C098C08A30CC
:1030A00009F485C08B3009F46AC0893009F0A7C0E3
:1030B00020C08091B902813A09F0A1C08091E80056
:1030C000877F8093E8008091BD029091BE02892B9A
:1030D00021F460E187E292E003C060E080E090E0EC
:1030E00070E00E94A4198091E8008B778093E8003B
:1030F00008958091B902813209F081C08091BD02AA
:103100009091BE02009719F0039709F078C0809162
:10311000E800877F8093E80005C08091B80288238B
:1031200009F46DC08091E80082FFF7CF8091F10033
:10313000809326028091E8008B771CC08091B902B1
:10314000813A09F05CC08091BD029091BE02892B4A
:1031500009F055C08091E800877F8093E800809156
:10316000E80080FFFCCF809132018093F1008091D4
:10317000E8008E778093E8000E94041B08958091F8
:10318000B9028132E1F58091BD029091BE02892B96
:10319000B1F58091E800877F8093E8000E94041BCE
:1031A0008091BB02809332010E94C41F08958091D8
:1031B000B902813221F58091E800877F8093E80091
:1031C0000E94041B8091BC02809325020895809187
:1031D000B902813AA1F48091E800877F8093E800EA
:1031E0008091E80080FFFCCF809125028093F10060
:1031F0008091E8008E778093E8000E94041B089578
:1032000081E061EC42E00E94CC1A82E061EC42E095
:103210000E94CC1A83E061EC42E00E94CC1A84E068
:1032200061EC42E10E94CC1A08950E94D82A0E94C3
:103230000F320E94711E0E94061708950E940932E3
:103240000895DA019330C1F0943030F4913051F0A8
:10325000923009F05BC00BC0913221F1923209F03B
:1032600055C037C0E8EAFAE122E130E053C0EAEBAA
:10327000FAE12DE630E04EC0813051F0813020F08F
:10328000823009F043C008C0E7E2FBE1849107C047
:10329000EBE2FBE1849103C0E3E4FBE18491282F9E
:1032A00030E038C0613051F0613028F0623059F0C0
:1032B000633061F50BC0ECECFAE102C0E5EEFAE137
:1032C00029E030E027C0EEEFFAE1FACFE7E1FBE1D9
:1032D000F7CF613061F0613028F0623069F063301F
:1032E000A9F40FC0ECEAF9E120E430E013C0ECEE01
:1032F000F9E12DE430E00EC0E9E3FAE126E330E045
:1033000009C0EFE6FAE129E330E004C0E0E0F0E0D4
:1033100020E030E0ED93FC93C901089580E189BD80
:1033200082E189BD09B400FEFDCF8091D8008F7D78
:103330008093D8008091E00082608093E0008091CB
:10334000E00081FDFCCF08959C014091BF025091A7
:10335000C0024617570718F4F90190E043C0611501
:10336000710511F0AB01F8CF8091E8008E77809362
:10337000E80040E050E0F0CF8091B802882309F4E3
:1033800047C0853009F446C08091E80083FD44C001
:103390008091E80082FD36C08091E80080FF22C065
:1033A0008091F3009091F200782F60E0292F30E0B7
:1033B000262B372B07C081918093F100415050405C
:1033C0002F5F3F4F4115510519F02830310598F313
:1033D00090E02830310509F491E08091E8008E7783
:1033E0008093E8004115510539F6992329F60AC062
:1033F0008091B802882361F0853061F08091E80007
:1034000083FD0AC08091E80082FFF2CF80E008953A
:1034100082E0089583E0089581E008959C01409141
:10342000BF025091C0024617570718F4F90190E007
:1034300044C06115710511F0AB01F8CF8091E8002F
:103440008E778093E80040E050E0F0CF8091B802A2
:10345000882309F448C0853009F447C08091E8000A
:1034600083FD45C08091E80082FD37C08091E8006F
:1034700080FF23C08091F3009091F200782F60E0EC
:10348000292F30E0262B372B08C084918093F10040
:103490003196415050402F5F3F4F4115510519F073
:1034A0002830310590F390E02830310509F491E09F
:1034B0008091E8008E778093E8004115510531F640
:1034C000992321F60AC08091B802882361F08530E3
:1034D00061F08091E80083FD0AC08091E80082FFDE
:1034E000F2CF80E0089582E0089583E0089581E0BE
:1034F0000895BF92CF92DF92EF92FF920F931F93A6
:10350000CF93DF93182F092F7B016A010E94251B9F
:10351000B82E8823B1F5812F902F9C01E901C114A9
:10352000D10439F0F60180819181E81AF90AC80FB7
:10353000D91F00E010E022C08091E80085FD16C090
:103540008091E8008E778093E800C114D10449F09F
:10355000F60180819181800F911F9183808385E0A6
:1035600011C00E94251B882349F00CC089918093CB
:10357000F1000894E108F1080F5F1F4FE114F10416
:10358000D9F68B2DDF91CF911F910F91FF90EF9086
:10359000DF90CF90BF900895382F282F2EC0822F14
:1035A0008F708093E900231721F4762F942F50E039
:1035B00006C07091EC009091ED005091F00091FFE9
:1035C0001BC08091EB008E7F8093EB008091ED001B
:1035D0008D7F8093ED008091EB0081608093EB0004
:1035E0007093EC009093ED005093F0008091EE000A
:1035F00087FD02C080E008952F5F273080F23F7082
:103600003093E90081E008958091B90288239CF409
:1036100004C08091B8028823B9F08091E80082FF4D
:10362000F8CF8091E8008B778093E800089580912F
:10363000B802882349F08091E80080FFF8CF80919C
:10364000E8008E778093E80008954091E40050915F
:10365000E50024E68091EC0080FF24C08091E80022
:1036600080FD1EC08091B802882311F482E0089585
:10367000853011F483E008958091EB0085FF02C04E
:1036800081E008958091E4009091E500841795070A
:1036900009F3222311F484E008952150AC01DACF1C
:1036A00080E008958091E80082FFDCCFF9CF0E948E
:1036B000CA1B0E94D21BE0EEF0E080818160808313
:1036C000A8EDB0E08C918F778C9319BCE7EDF0E01A
:1036D00080818E7F80838C918F7E8C931092B70235
:1036E0000895EF92FF920F931F930E94CA1B0E94AE
:1036F000D21B08ED10E0F80180818F7780838081F4
:103700008068808380818F7D808319BC1092B8028D
:103710001092B4021092B6021092B50280EEE82E1A
:10372000F12CF70180818B7F8083F801808181609B
:10373000808380E060E042E00E94CC1AE1EEF0E09D
:1037400080818E7F8083E2EEF0E0808181608083E3
:10375000808188608083F70180818E7F8083F8017B
:103760008081806180831F910F91FF90EF90089579
:10377000E8EDF0E080818F7E8083E7EDF0E08081EE
:103780008160808384E082BF81E08093B7020E94E1
:10379000711B0895E8EDF0E080818E7F80831092A8
:1037A000E20008951092DA001092E10008951F924D
:1037B0000F920FB60F9211241F932F933F934F93A5
:1037C0005F936F937F938F939F93AF93BF93EF9389
:1037D000FF931091E9008091EC001092E900809134
:1037E000F000877F8093F00078940E94E51C10928F
:1037F000E9008091F00088608093F0001F701093C2
:10380000E900FF91EF91BF91AF919F918F917F91CF
:103810006F915F914F913F912F911F910F900FBE2C
:103820000F901F9018951F920F920FB60F921124B0
:103830002F933F934F935F936F937F938F939F93B8
:10384000AF93BF93EF93FF938091E10082FF0BC092
:103850008091E20082FF07C08091E1008B7F80931E
:10386000E1000E94551E8091DA0080FF1FC0809108
:10387000D80080FF1BC08091DA008E7F8093DA0031
:103880008091D90080FF0DC080E189BD82E189BDB2
:1038900009B400FEFDCF81E08093B8020E94341885
:1038A00005C019BC1092B8020E9409178091E1006E
:1038B00080FF19C08091E20080FF15C08091E20076
:1038C0008E7F8093E2008091E20080618093E2002D
:1038D0008091D80080628093D80019BC85E08093E5
:1038E000B8020E941E198091E10084FF30C08091CF
:1038F000E20084FF2CC080E189BD82E189BD09B46A
:1039000000FEFDCF8091D8008F7D8093D8008091FC
:10391000E1008F7E8093E1008091E2008F7E8093B2
:10392000E2008091E20081608093E2008091B40225
:10393000882311F084E007C08091E30087FD02C076
:1039400081E001C083E08093B8020E941519809144
:10395000E10083FF29C08091E20083FF25C08091B0
:10396000E100877F8093E10082E08093B8021092AB
:10397000B4028091E1008E7F8093E1008091E200AB
:103980008E7F8093E2008091E20080618093E2006C
:1039900080E060E042E00E94CC1A8091F0008860F4
:1039A0008093F0000E940C17FF91EF91BF91AF91AF
:1039B0009F918F917F916F915F914F913F912F9147
:1039C0000F900FBE0F901F9018951F93DF93CF930A
:1039D000CDB7DEB7AC970FB6F894DEBF0FBECDBF44
:1039E000E9EBF2E08091F100819322E0E13CF20703
:1039F000C9F70E9442188091E80083FF3EC1809180
:103A0000B9023091BA02353009F487C0363040F43B
:103A10003130C9F1313070F0333009F02EC133C08C
:103A2000383009F4F9C0393009F409C1363009F0E9
:103A300024C197C0803821F0823809F01EC108C027
:103A40009091B5028091B602882399F0926011C0DE
:103A50008091BD028F708093E9008091EB0090E02F
:103A600025E0969587952A95E1F7982F9170109209
:103A7000E9008091E800877F8093E8009093F1004F
:103A80001092F100D4C0882319F0823009F0F5C0FB
:103A900090E08F719070009721F0029709F0EDC0CF
:103AA0000CC08091BB02813009F0E7C01092B602D1
:103AB000333069F58093B6022AC08091BB02882317
:103AC00031F52091BD022F7009F4D7C02093E90091
:103AD0008091EB0080FF1BC0333021F48091EB001C
:103AE000806213C08091EB0080618093EB0081E0E5
:103AF00090E002C0880F991F2A95E2F78093EA00B0
:103B00001092EA008091EB0088608093EB001092A5
:103B1000E9008091E800877F8DC0882309F0ADC05F
:103B20001091BB021F778091E3008078812B8093F6
:103B3000E3008091E800877F8093E8000E94041BE7
:103B40008091E80080FFFCCF8091E3008068809343
:103B5000E300112311F482E001C083E08093B802F6
:103B60008CC08058823008F088C08091BB02909150
:103B7000BC0223E08C3D920709F034C083E08C83C3
:103B80008AE28B837FB7F894DE0115966EE040E001
:103B900050E011E2E62FF0E010935700849140FFCF
:103BA00003C082958F706F5F8F70282F30E08A304E
:103BB00018F0C901C79602C0C901C0968D939D93A4
:103BC0004F5F5F4F4431510529F77FBF8091E80077
:103BD000877F8093E800CE0103966AE270E00E943E
:103BE000A41914C06091BD02AE014F5F5F4F0E94E7
:103BF0002119BC01009709F440C08091E800877F3B
:103C00008093E80089819A810E940E1A8091E800D1
:103C10008B778093E80031C0803879F58091E80097
:103C2000877F8093E8008091B4028093F1008091B7
:103C3000E8008E778093E8000E94041B1EC0882352
:103C4000E1F49091BB029230C0F48091E800877F4C
:103C50008093E8009093B4020E94041B8091B40208
:103C6000882331F48091E30087FD02C081E001C028
:103C700084E08093B8020E9400198091E80083FFDD
:103C80000AC08091E800877F8093E8008091EB0074
:103C900080628093EB00AC960FB6F894DEBF0FBE47
:103CA000CDBFCF91DF911F91089508951F9380910B
:103CB000B802882379F01091E9008091EC0010920D
:103CC000E9008091E80083FF02C00E94E51C1F709C
:103CD0001093E9001F91089590933C0280933B025A
:103CE0000895E0913B02F0913C02309711F480E09E
:103CF00008950190F081E02D09950895E0913B022F
:103D0000F0913C02309721F00280F381E02D09957B
:103D10000895E0913B02F0913C02309721F004803D
:103D2000F581E02D099508959C01809139029091CB
:103D30003A022817390779F030933A022093390272
:103D4000E0913B02F0913C02309729F00680F78128
:103D5000E02DC901099508959C0180913702909149
:103D600038022817390779F0309338022093370248
:103D7000E0913B02F0913C02309729F00084F185FC
:103D8000E02DC9010995089508950E94C41E089563
:103D90000E9406170895AF92BF92CF92DF92EF92E2
:103DA000FF920F931F93DF93CF93CDB7DEB72A9780
:103DB0000FB6F894DEBF0FBECDBF0E94C40E0DE05B
:103DC00010E081E0A82EB12CC02E802F0E94640E3E
:103DD000E82EF801E35CFD4FF080F82691F1809128
:103DE000A10281FF02C00E946A0E25E030E0C501F9
:103DF000022E02C0880F991F0A94E2F7D82E8F2155
:103E0000D1F02983CA821B82ED2011F081E08B83DF
:103E10000E941C2B8160782F9D838C8349815A815D
:103E20006B818D810E949623F801E35CFD4F8081B8
:103E30008D2580831DC0215030408FEF2F3F3807E4
:103E4000B1F6015010408FEF0F3F180709F0BCCFBB
:103E50000E941C2B2FEF2E832F8318868160782FD2
:103E60009A8789874FEF5FEF60E08A850E949623EB
:103E70000E94F12E10914B020E94711E181731F012
:103E80000E94711E80934B020E94C81E2A960FB694
:103E9000F894DEBF0FBECDBFCF91DF911F910F9180
:103EA000FF90EF90DF90CF90BF90AF9008950E9469
:103EB000132B0E94A70E0E94D92B0895DF93CF9356
:103EC00000D000D00F92CDB7DEB70F900F900F90BB
:103ED0000F900F90CF91DF910895DF93CF9300D093
:103EE00000D000D0CDB7DEB726960FB6F894DEBF6F
:103EF0000FBECDBFCF91DF9108950E945428482F67
:103F0000892F82958F70282F30E02C3031054CF4AA
:103F10002A3031056CF42250304022303105E8F46B
:103F200007C02C30310579F02F303105B1F40BC0CA
:103F3000403F39F0413F18F4403E78F402C0443F1E
:103F400061F481E008959F70892F90E023E09695B9
:103F500087952A95E1F78170089580E008950E9481
:103F6000042A0E94142A0E94D3290E942C2A0E940B
:103F7000DA2E0E94E62E80E090E00E94941E80E0FF
:103F800090E00E94AC1E08950E94F4290E94AF1F89
:103F90000895882321F00E94EA290E942C2A08957E
:103FA000882321F00E94E4290E942C2A0895282FBA
:103FB000882309F44EC0823859F40E94711E81FF93
:103FC00048C089E30E9461290E942C2A89E30CC021
:103FD000833869F40E94711E80FF3BC083E50E9414
:103FE00061290E942C2A83E50E949F291FC08438E2
:103FF00059F40E94711E82FF2CC087E40E9461293F
:104000000E942C2A87E4F0CF8450813A10F4822F4A
:10401000EBCF822F805E883060F4277081E090E0E3
:1040200001C0880F2A95EAF70E94EA290E942C2AEB
:104030000895822F855A833028F480E090E00E9412
:10404000941E0895285A233120F480E090E00E94C5
:10405000AC1E08951F93182F882309F4D0C082380E
:1040600059F40E94711E81FDCAC089E30E94612932
:104070000E942C2A89E30CC0833879F40E94711EB7
:1040800080FDBDC083E50E9461290E942C2A83E542
:104090000E949F290E942C2AB2C0843859F40E94A1
:1040A000711E82FDACC087E40E9461290E942C2A07
:1040B00087E4EECF8450813A50F4812F0E9428315A
:1040C000882309F09CC0812F0E946129E3CF812FB2
:1040D000805E883050F4177081E090E001C0880F56
:1040E0001A95EAF70E94E429D5CF812F855A8330AB
:1040F000A0F4153A19F481E890E00CC0163A19F4CE
:1041000082E890E007C0173A19F080E090E002C022
:1041100083E890E00E94941E72C0812F885A8331F8
:1041200008F06DC0183A19F482EE90E066C0193AB2
:1041300019F489EE90E061C01A3A19F48AEE90E021
:104140005CC01B3A19F485EB90E057C01C3A19F497
:1041500086EB90E052C01B3B19F483EB90E04DC01E
:104160001C3B19F484EB90E048C01D3A19F487EB2E
:1041700090E043C0103B19F48CEC90E03EC01E3A36
:1041800019F48DEC90E039C01F3A19F483E891E0FE
:1041900034C0113B19F48AE891E02FC0123B19F4A6
:1041A00082E991E02AC0133B19F484E991E025C02B
:1041B000143B19F481E292E020C0153B19F483E22C
:1041C00092E01BC0163B19F484E292E016C0173B44
:1041D00019F485E292E011C0183B19F486E292E0EE
:1041E0000CC0193B19F487E292E007C01A3B19F0A2
:1041F00080E090E002C08AE292E00E94AC1E1F9133
:1042000008950F931F93CF93DF93EC012981388199
:104210008B819C81892BD9F02F3FA1F43F3F91F4F2
:1042200016C0688179818A810E945F28182F092F22
:104230000E940C280E940B28CE01612F702F0E9433
:104240002C2105C0CE010E94A313882351F7DF91D2
:10425000CF911F910F9108959F92AF92BF92CF92ED
:10426000DF92EF92FF920F931F93DF93CF9300D0D3
:1042700000D00F92CDB7DEB75C016B01DE01119665
:10428000FC0185E001900D928150E1F70B81F50171
:10429000F580F2944FE0F422002311F00E94042AEA
:1042A0000E945B29882379F0002369F08C2D805EC1
:1042B000883048F082E00E945D2A0E945B299924A0
:1042C0009394982601C099248D2D82958F7090E04B
:1042D0008530910509F4AAC08630910554F48430E4
:1042E00091050CF084C02D2D207F02970CF045C065
:1042F00013C08C30910544F48A3091050CF067C1ED
:10430000089709F0EFC19EC08C30910509F4D9C11E
:104310000F9709F0E7C1DFC18D2D8F70222311F4B3
:10432000182F03C0182F1295107F002389F0112336
:1043300009F4B3C18C2D805E883020F4812F0E9457
:10434000E42903C0812F0E94F7290E942C2AA5C1CD
:104350008C2D0E94D71F112309F4C4C1F0E2CF0EA7
:1043600027E02C1520F0812F0E94EA2903C0812F1D
:104370000E94FD290E942C2AB5C18D2D8F702032FC
:1043800011F4182F03C0182F1295107FCC2021F0A4
:1043900081E0C81611F516C0002359F0FF2009F47A
:1043A00035C1E1E0FE1609F031C1812F0E94172AC4
:1043B00099C1FF2021F0F1E0FF1609F493C10E949A
:1043C0001A2A2AC1002329F021E02F1508F48AC1F6
:1043D0001DC1FF2009F086C11FC1002321F0FF206D
:1043E00009F414C15AC1FF2009F416C161C18D2D11
:1043F00086958695837090E0009721F0019709F0EB
:1044000071C10AC0002319F0C601937002C080E098
:1044100090E00E94941E66C1002319F0C6019370BB
:1044200002C080E090E00E94AC1E5CC1002321F03D
:104430008C2D0E94E82D03C08C2D0E94522E0E94CC
:10444000E62E50C18D2D837009F05EC0002309F067
:1044500049C12C2D229526952770220F220F8C2DD5
:104460008F70E82EFF2400E010E0022E04C0EE0C56
:10447000FF1C001F111F0A94D2F7C4FC05C060E0A6
:1044800070E080E090E00FC06FE070E080E090E0CE
:1044900004C0660F771F881F991F2A95D2F7609571
:1044A000709580959095D694D694E3E0DE224D2DBC
:1044B00050E041305105A9F0423051051CF4452B24
:1044C00049F010C14230510589F04330510509F0DF
:1044D00009C113C06E297F29802B912B0E942C29A2
:1044E00001C16E297F29802B912B0BC06E297F295A
:1044F000802B912B0E941B29F5C00E942C29C801FA
:10450000B7010E943D29EEC090E0002311F496957A
:104510008795817009F4E6C02C2D22952695277089
:10452000220F220F8C2D8F70E82EFF2400E010E068
:10453000022E04C0EE0CFF1C001F111F0A94D2F7BC
:10454000C4FC05C060E070E080E090E00FC06FE068
:1045500070E080E090E004C0660F771F881F991F0D
:104560002A95D2F76095709580959095D694D694BB
:10457000F3E0DF224D2D50E041305105A9F04230EB
:1045800051051CF4452B49F0ADC04230510589F06E
:104590004330510509F0A6C013C06E297F29802B36
:1045A000912B0E947F289EC06E297F29802B912B02
:1045B0000BC06E297F29802B912B0E946E2892C000
:1045C0000E947F28C801B7010E9490288BC021EF6C
:1045D000C216A9F12C1540F080EEC81608F459C097
:1045E000EFEEEC1558F41CC0F3EFCF1691F1CF1697
:1045F00058F124EFC21609F04CC035C01C2D1F70B5
:104600008D2D8F71002331F00E94DD28812F0E94B3
:10461000D01F68C00E94BD28812F0E94C91F62C0A0
:10462000002321F0FF2009F05DC004C081E08F1558
:1046300008F458C08D2D8F710E94A12853C08D2D74
:104640008F710023D9F12FC08D2D8F71002359F167
:1046500035C0002329F08D2D8F710E94F92842C0AA
:104660000E9409293FC0002351F01D2D1F71812F89
:104670000E94DD28812F63E00E94762A33C081E00A
:104680000E945D2AE1E0EF1568F582E00E945D2A54
:1046900029C0002359F0FF2021F08C2D0E942A20F0
:1046A00021C08D2D8F710E94DD281CC0FF2021F0BC
:1046B0008C2D0E94D71F16C08D2D8F710E94BD2892
:1046C00011C0FFE0DF22C5016C2D4D2D0E9460124C
:1046D0000E94922707C02FE0D222C5016C2D4D2DDC
:1046E0000E943514992089F00E94572980FD0DC041
:1046F000F50112820E9451290E94DD28C5010E9405
:1047000001210E9451290E94BD280F900F900F9007
:104710000F900F90CF91DF911F910F91FF90EF902D
:10472000DF90CF90BF90AF909F900895DF93CF938D
:10473000CDB7DEB72B970FB6F894DEBF0FBECDBF57
:10474000342F4F83252F588769877A878B87472F88
:10475000582FFE01319686E0DF011D928A95E9F718
:104760006B8339832A834C835D83432F522F8D8142
:104770009E810E94D3262B960FB6F894DEBF0FBE03
:10478000CDBFCF91DF9108950F931F9300915302F6
:1047900015C010E0F801EE0FFF1FE00FF11FEE0F44
:1047A000FF1FEC5AFD4F40815181628173818481EA
:1047B00095810E946D1F0F5F1F4F077080915202FD
:1047C000081739F71F910F91089540914C025091AD
:1047D0004D0260914E0270914F0280915002909173
:1047E00051020E946D1F08950F931F93CF93DF9383
:1047F0008091510282958F7009F06DC080914E02B8
:10480000882309F468C060915302009152024091DC
:104810004F025091500210914D0270914C02EA01EA
:10482000C095D09555C04115510509F44FC01F3FA3
:1048300049F480E090E07F3F11F481E090E088232C
:1048400009F044C0262F30E0F901EE0FFF1FE20F00
:10485000F31FDF01AA0FBB1FAC5ABD4F11968C91FD
:104860001197181799F58C91781781F5EE0FFF1FA6
:10487000EA5AFD4F8081882349F513968D919C91CA
:1048800014978417950718F0841B950B02C08C0FA2
:104890009D1F883C9105D0F4809151028F708061FA
:1048A00080935102F901EE0FFF1FE20FF31FEE0F8D
:1048B000FF1FE75AFD4F80818F70806180838CE4F9
:1048C00092E00E9401210E94C42305C06F5F6770BF
:1048D000601709F0A8CFDF91CF911F910F91089534
:1048E000DF92EF92FF920F931F93DF93CF93CDB799
:1048F000DEB76B970FB6F894DEBF0FBECDBF8C014D
:10490000DC011296DC9012974C9111965C911197F4
:104910001396ED90FC90149720914F023091500225
:1049200060914D0270914C022115310509F4DBC1F3
:104930006F3F09F003C27F3F09F000C2D4C1E21605
:10494000F30640F0C701821B930B883C910508F0E9
:10495000EEC008C0209530952E0D3F1D283C310536
:1049600008F0E5C080915102807F09F095C06F3F4B
:1049700009F0EAC17F3F09F0E7C115C0741799F447
:10498000DD2089F4809151028F7080618093510203
:104990000E94E5238CE492E00E9401218091510263
:1049A000F8018583BCC1FD82EC825A834983DB8296
:1049B000DE011696FE01319685E001900D92815040
:1049C000E1F76885DE011B96FE01369685E00190D1
:1049D0000D928150E1F72C853B858E859F85892B33
:1049E00009F451C02F3F09F0B3C13F3F09F0B0C1F6
:1049F0004AC0FD82EC825A834983DB82DE011B962A
:104A0000FE01319685E001900D928150E1F7FC8422
:104A10007B856D8580915302909152021FC0282F93
:104A200030E0F901EE0FFF1FE20FF31FDF01AA0FC5
:104A3000BB1FAC5ABD4F11968C911197F81651F4CB
:104A40008C91781739F4EE0FFF1FEA5AFD4F8081E1
:104A50006817C9F42F5F3F4F822F87708917F9F6C7
:104A60008DC19F7059F0442349F459C19F7031F0B2
:104A7000D80115968C91807F09F451C1405E483071
:104A800008F44DC148C1DD2009F449C180915102AB
:104A900081608093510243C16F3F09F05DC17F3F48
:104AA00009F05AC114C0741791F4DD2081F480918B
:104AB0005102F8018583C8010E940121ACE4B2E0F3
:104AC000F80186E001900D928150E1F720C15A83F0
:104AD000498389819A810E947D1F882309F41BC123
:104AE000DD2009F418C130915102832F82958F7017
:104AF00090E002979CF090914D0220914C02FE01B3
:104B0000709686E0DF011D928A95E9F7998B288BD4
:104B1000FC8AEB8A3D8BCF010E940121ACE4B2E01C
:104B2000F80186E001900D928150E1F7EEC080918E
:104B30005102807FA9F47E2DFD82EC825A83498345
:104B4000DB826D2D8D810E945E1F0CE412E0C80196
:104B50000E94012186E0F80111928A95E9F7C0C010
:104B60006F3F09F0FDC07F3F09F0FAC014C0741711
:104B700091F4DD2081F480915102D80115968C9337
:104B8000C8010E940121ECE4F2E086E0DF011D9201
:104B90008A95E9F7BEC05A83498389819A810E9428
:104BA0007D1F882309F4B7C0DD2009F4B4C030911B
:104BB0005102832F82958F7090E002979CF0909124
:104BC0004D0220914C02FE01769686E0DF011D9297
:104BD0008A95E9F79F8B2E8BFA8EE98E3B8FCF015A
:104BE0000E940121ACE4B2E0F80186E001900D9250
:104BF0008150E1F78AC06F3F09F0B6C07F3F09F0EE
:104C0000B3C071C0E216F30640F0C701821B930BDC
:104C1000883C910508F053C008C0209530952E0DB2
:104C20003F1D283C310508F04AC0DD2009F473C05F
:104C30006F3F09F09FC07F3F09F09CC029C07417E7
:104C400039F59091510290FD1AC0892F82958F708D
:104C5000B1F0F80195838F3031F08F5F8295807FBE
:104C60009F70982B9583C8010E940121ACE4B2E0AB
:104C7000F80186E001900D928150E1F748C0ACE464
:104C8000B2E0F80186E001900D928150E1F741C059
:104C90005A83498389819A810E947D1F882349F024
:104CA000ACE4B2E0F80186E001900D928150E1F7AA
:104CB0002CC0809151028160809351022CC07E2DC6
:104CC000FD82EC825A834983DB826D2D8D810E94A7
:104CD0005E1FECE4F2E086E0DF011D928A95E9F7C1
:104CE0000E94E5231CC0DD20B1F05A8349838981ED
:104CF0009A810E947D1F882371F0ACE4B2E0F80134
:104D000086E001900D928150E1F70E94F4230E9409
:104D1000E52381E005C0C8010E940121FACF80E0AF
:104D20006B960FB6F894DEBF0FBECDBFCF91DF916B
:104D30001F910F91FF90EF90DF90089580914E02A8
:104D4000882309F458CFFBCD651709F02CCE16CE79
:104D5000613009F498CE4DCE651709F0B8CEA3CED8
:104D6000651709F018CF03CF80914E02882309F010
:104D7000BACF48CF651709F08BCF61CF5A834983EB
:104D800089819A810E945428482F892F82958F709B
:104D9000282F30E0223031050CF463CE2430310569
:104DA0000CF0B9CF63CE0F931F93DF93CF93CDB7A2
:104DB000DEB72C970FB6F894DEBF0FBECDBF4F8382
:104DC000588769877A878B879C878E01095F1F4F79
:104DD000C8010E9470248823D9F028853F818A85E4
:104DE0009B85892B09F46BC02F3F49F480E090E04C
:104DF0003F3F11F481E090E0882309F060C04F81CB
:104E0000588569857A858B859C850E946D1F57C062
:104E1000DE011196F80186E001900D928150E1F7D4
:104E2000F981EA814C815D814115510509F447C042
:104E3000EF3F09F04CC0FF3F09F049C040C0F98383
:104E4000EA835D834C83F901EE0FFF1FE20FF31F2E
:104E5000EE0FFF1FEC5AFD4FDE01119686E00D901C
:104E600001928150E1F7609352020E94C42327C04F
:104E7000919FC00111248C5A9D4F0E947024882359
:104E800009F445C08091530290E0FC01EE0FFF1F32
:104E9000E80FF91FEE0FFF1FEC5AFD4F40815181C3
:104EA00062817381848195810E946D1F809153027C
:104EB00090E00196877090708093530201C016E0D5
:104EC0009091530280915202981791F620C08091E0
:104ED0005202282F30E02F5F3F4FB901677070708A
:104EE000215030408091530290E06817790709F013
:104EF000A6CF0E94C41F1092520210925302ECE4FB
:104F0000F2E086E0DF011D928A95E9F7D8CF2C9672
:104F10000FB6F894DEBF0FBECDBFCF91DF911F91CA
:104F20000F910895CF92DF92EF92FF921F93CF934C
:104F3000DF93EC01009709F466C010E090EAC92EF7
:104F40009FE0D92E81E0E82EF12CFE01219694916C
:104F5000943748F4943008F044C0913079F092309E
:104F600009F051C01BC0953709F437C0953750F18F
:104F7000892F8458803708F046C037C0FE0121963B
:104F80009491892F805E883060F597708E2D01C0D6
:104F9000880F9A95EAF70E94072A0FC0FE01219612
:104FA0009491892F805E883058F497708E2D01C0BF
:104FB000880F9A95EAF70E940D2A0E942C2A19C0A0
:104FC000892F15C0FE01249104C0C6010197F1F795
:104FD00021502223D1F721960CC0FE012196149175
:104FE00008C0892F0E942A2004C0892F8F770E9431
:104FF000D71F212F04C0C6010197F1F721502223AA
:1050000009F4A3CFF8CFDF91CF911F91FF90EF90DC
:10501000DF90CF90089508950895AF92BF92DF92E8
:10502000EF92FF920F931F93CF93DF935C01E09079
:105030008402F0908502009186021091870280918F
:10504000880290918902A0918A02B0918B02E82A8D
:10505000F92A0A2B1B2BCFE1D0E0DC2ED801C701A7
:105060000C2E04C0B695A795979587950A94D2F70C
:1050700081709070892B39F08C2FB5010E947016C9
:105080008130910531F421978FEFCF3FD80729F771
:10509000DD248D2DDF91CF911F910F91FF90EF9027
:1050A000DF90BF90AF9008950F931F938C010E94E3
:1050B0000D28B8010E9470161F910F910895CB0121
:1050C0000E94542808956093880270938902809307
:1050D0008A0290938B020E94AF1F08959B01AC013E
:1050E000609188027091890280918A0290918B026E
:1050F00062277327842795270E94632808959B01C0
:10510000AC01609188027091890280918A0290912D
:105110008B0262237323842395230E9463280895BE
:105120009B01AC01609188027091890280918A0292
:1051300090918B02622B732B842B952B0E946328FA
:10514000089521E030E040E050E004C0220F331F1A
:10515000441F551F8A95D2F7809188029091890249
:10516000A0918A02B0918B02282739274A275B2712
:10517000CA01B9010E946328089521E030E040E0AF
:1051800050E004C0220F331F441F551F8A95D2F7E9
:105190002095309540955095809188029091890294
:1051A000A0918A02B0918B02282339234A235B23E2
:1051B000CA01B9010E946328089521E030E040E06F
:1051C00050E004C0220F331F441F551F8A95D2F7A9
:1051D0008091880290918902A0918A02B0918B02FD
:1051E000282B392B4A2B5B2BCA01B9010E9463285B
:1051F000089521E030E040E050E004C0220F331F6A
:10520000441F551F8A95D2F7CA01B9010E9463282D
:10521000089560E070E080E090E00E9463280895C7
:105220006093840270938502809386029093870234
:105230000E94AF1F08959B01AC01609184027091A0
:1052400085028091860290918702622773278427C6
:1052500095270E94102908959B01AC01609184025A
:105260007091850280918602909187026223732358
:10527000842395230E94102908959B01AC0160911D
:105280008402709185028091860290918702622B40
:10529000732B842B952B0E94102908950E941029AE
:1052A00008958091A00285958595859508958091B2
:1052B000A002877008958091A002877009F081E0B4
:1052C0000895382F809132018823E1F080913D01CB
:1052D0008823C1F0832F8695869586958F3070F54B
:1052E000E0913E01F0913F01E80FF11D377081E040
:1052F00090E002C0880F991F3A95E2F72181282B90
:1053000021830895A0913E01B0913F01FD0120E06D
:105310008FEF9281931791F08F3F19F4992309F43D
:10532000822F2F5F31962E30A1F78F3F39F09927CA
:1053300087FD9095A80FB91F12963C930895482FAA
:10534000809132018823E9F080913D018823C9F0E2
:10535000842F8695869586958F3020F5E0913E01C5
:10536000F0913F01E80FF11D477081E090E002C02D
:10537000880F991F4A95E2F78095218182238183C6
:10538000089520E030E0E0913E01F0913F01E20F0E
:10539000F31F8281841709F412822F5F3F4F2E3052
:1053A000310589F7089581E090E0E0913E01F091A8
:1053B0003F01E80FF91F1082019680319105A9F78E
:1053C000089580919C02089590919C02982B90934F
:1053D0009C020895809590919C02982390939C0242
:1053E000089580939C02089510929C0208959091D4
:1053F0009F02982B90939F020895809590919F0211
:10540000982390939F02089510929F02089590917F
:105410009E02982B90939E020895809590919E02F3
:10542000982390939E02089510929E02089580936F
:105430009D02089510929D020895E0913E01F09121
:105440003F0120E091E0818181112F5F9F5F3196C4
:105450009031C9F7822F0895E0913E01F0913F010C
:1054600080919C028083E0913E01F0913F01808118
:1054700090919F02892B8083E0913E01F0913F0142
:10548000808190919E02892B808390919D02992327
:1054900069F0E0913E01F0913F018081892B80838A
:1054A0000E941D2A882311F00E941A2A80913E0131
:1054B00090913F010E947E1E08952091A002482FE6
:1054C000409542234093A002842F877071F430E00E
:1054D000842F992787FD90952817390731F0842F5D
:1054E0008595859585950E94BD280895982F990FDB
:1054F000990F990F962B9093A0020E94DD28089592
:105500009C0140E005C0C9010197282339234F5F62
:1055100021153105C1F7842F08959B01AC01AA27FD
:10552000BB270097A105B10521F4DA01C90160E0AC
:1055300001C060E1292F3A2F4B2F55272115310546
:105540004105510519F49C01AD0101C0685FDA0104
:10555000C90174E0B695A795979587957A95D1F787
:105560000097A105B10519F4DA01C90101C06C5F0A
:105570009C01AD01F2E05695479537952795FA9530
:10558000D1F7211531054105510519F49C01AD01F3
:1055900001C06E5F569547953795279521153105C2
:1055A0004105510509F06F5F862F0895089508950C
:1055B0000E94C41F0E94711E0E94061708958091C8
:1055C000B802843021F11092A20220E488E190E038
:1055D0000FB6F894A895809360000FBE20936000EA
:1055E00080E00E94061783B7817F846083BF83B702
:1055F000816083BF7894889583B78E7F83BF88E16D
:105600000FB6F89480936000109260000FBE08956A
:105610000E94D62A0E94C40E0E94D72A0E946B0EB6
:10562000811181E0089582E084BD93E095BD9AEFF9
:1056300097BD80936E0008958FB7F8942091A302D0
:105640003091A4024091A5025091A6028FBFC901DA
:105650000895EF92FF920F931F93BC018FB7F894B8
:10566000E090A302F090A4020091A5021091A6027E
:105670008FBFA801970140705070CB01A0E0B0E04F
:10568000281739074A075B0720F09701261B370BBD
:1056900005C09B01209530952E0D3F1DC9011F911E
:1056A0000F91FF90EF9008951F920F920FB60F92F7
:1056B00011248F939F93AF93BF938091A3029091F6
:1056C000A402A091A502B091A6020196A11DB11D50
:1056D0008093A3029093A402A093A502B093A60284
:1056E000BF91AF919F918F910F900FBE0F901F9020
:1056F00018950E94571BF89480E29EE420E931E05F
:10570000F9013197F1F70197D9F787E090EBA7E01E
:10571000B0EB8093C2029093C302A093C402B093F3
:10572000C5022CE088E190E00FB6F894A89580932C
:1057300060000FBE20936000FFCFEF92FF920F93A7
:105740001F93CF93DF93082F1DE0812F0E94640EDB
:10575000C5E0D0E0E82EFF24C7010C2E02C09595CD
:1057600087950A94E2F780FF09C080E06C2F712FC3
:105770000E943614081711F481E008C021978FEFBA
:10578000CF3FD80749F7115000F780E0DF91CF9164
:105790001F910F91FF90EF9008951F93182F8CE2A7
:1057A0000E949D2B882319F0812F0E949D2B1F9111
:1057B00008951F93CF93DF930E94472D882311F400
:1057C0000E94522D14E6C0E4DCE905C00E94C40E1C
:1057D000CE010197F1F71150C8F789E20E94CD2B55
:1057E000882309F02FC18AE20E94CD2B882311F073
:1057F0000E94522D85E00E94CD2B882311F00E943B
:10580000792B0E94422D8093A10287E00E94CD2B2C
:105810008823B9F18BE10E94CD2B882349F0909128
:10582000A102892F869580958170880F9D7F26C063
:105830008EE00E94CD2B882359F09091A102892FF0
:105840008695869580958170880F880F9B7F16C0FE
:1058500080E10E94CD2B9091A102882359F0892FDD
:1058600086958695869580958170880F880F880F1C
:10587000977F04C0892F809581709E7F982B90938D
:10588000A1028091A1020E94322D0E94382D8093A6
:10589000C10280EE0E94CD2B882349F08091C10285
:1058A000982F909591708E7F892B8093C10289E308
:1058B0000E94CD2B882359F09091C102892F8695A3
:1058C00080958170880F9D7F982B9093C10282EE06
:1058D0000E94CD2B882369F09091C102892F869573
:1058E000869580958170880F880F9B7F982B909369
:1058F000C10286EE0E94CD2B882379F09091C102DF
:10590000892F86958695869580958170880F880F5A
:10591000880F977F982B9093C10283EE0E94CD2B26
:10592000882369F09091C102892F82958F708095AC
:1059300081708295807F9F7E982B9093C10285E332
:105940000E94CD2B882379F09091C102892F8295F6
:1059500086958770809581708295880F807E9F7D67
:10596000982B9093C10281E30E94CD2B882389F06C
:105970009091C102892F8295869586958370809536
:1059800081708295880F880F807C9F7B982B9093E5
:10599000C10281E10E94CD2B882379F08091C10260
:1059A000982F991F9927991F21E09227979599275A
:1059B00097958F77892B8093C1028091C1020E94B5
:1059C000262D8091C102881F8827881F80933D0162
:1059D00087E20E94CD2B182F8EE10E94CD2B8111E2
:1059E00012608FE10E94CD2B8111146080E20E9431
:1059F000CD2B8111186081E20E94CD2B81111061A5
:105A000082E20E94CD2B8111106283E20E94CD2B95
:105A10008111106484E20E94CD2B81111068112342
:105A200041F0812F0E942C2D612F70E080E090E0EA
:105A300007C00E943D2D90E0A0E0B0E0BC01CD0188
:105A40000E944E29DF91CF911F910895682F84E025
:105A500090E00E94B2330895682F83E090E00E94A6
:105A6000B2330895682F82E090E00E94B233089527
:105A700084E090E00E94A433089583E090E00E94C7
:105A8000A433089582E090E00E94A433089580E05A
:105A900090E00E94AC3320E08D5E9E4F09F421E03F
:105AA000822F089580E090E06DEE7EEF0E94C43377
:105AB00082E090E060E00E94B23383E090E060E03A
:105AC0000E94B23384E090E060E00E94B23385E04F
:105AD00090E060E00E94B23308958091AD0280FFB3
