:100000000C94280D0C946C0D0C946C0D0C946C0DD0
:100010000C946C0D0C946C0D0C946C0D0C946C0D7C
:100020000C946C0D0C946C0D0C94151B0C94D91A3B
:100030000C946C0D0C946C0D0C946C0D0C946C0D5C
:100040000C946C0D0C941E310C946C0D0C946C0D76
:100050000C946C0D0C94562A0C946C0D0C946C0D35
:100060000C946C0D0C946C0D0C946C0D0C946C0D2C
:100070000C946C0D0C946C0D0C946C0D0C946C0D1C
:100080000C946C0D0C946C0D0C946C0D0C946C0D0C
:100090000C946C0D0C946C0D0C946C0D0C946C0DFC
:1000A0000C946C0D0C946C0D0C946C0D0000000005
:1000B000000400000000160000000004160000000C
:1000C0000600000000040600000016060000000400
:1000D00016060000170000000004170000001617A5
:1000E00000000004161700000700000000040700CD
:1000F00000000A00000000040A0000001A000000CE
:1001000000041A000000161A0000000000000000A1
:100110001300000000041300000016130000000488
:1001200016130000171A00000004171700001B0028
:10013000000000041B000000071A0000000407076D
:1001400000000A1A000000040A0A00000B00000068
:1001500000040B000000160B00000004160B00004A
:10016000060B00000004060B000016060B00000042
:1001700000000000170B00000004170B0000000037
:100180000000000416170B0009000000000409001D
:1001900000000A0B000000040A0B00001A0B00000C
:1001A00000041A0B00000000000000000000000026
:1001B000130B00000004130B000016130B000004C7
:1001C00016130B000E00000000040E000000160EB7
:1001D00000000004160E00000500000000040500E9
:1001E00000000000000000040505000011000000F0
:1001F000000411000000161100000004111100009D
:100200001D00000000041D00000016160000000480
:10021000161600001900000000041900000016194D
:100220000000000000000000070819000004071982
:1002300000000A11000000040A1100001000000074
:10024000000410000000161000000004161000004A
:100250001311000000041010000000000000000452
:10026000131300000D00000000040D00000000004A
:100270000000000000000000070810000004071044
:100280000000000000000004070D00001C0000003A
:1002900000041C000000161C00000004161C0000D6
:1002A000061C00000004060600000000000000001C
:1002B00000000000171C00000000000000001617DE
:1002C0001C00000000000000071C000000040909D9
:1002D00000000A1C0000000409170000101C0000A8
:1002E000000000000000000000000000000000000E
:1002F000131C000000000000000016131C00000486
:1003000016130B1C0E1100000004060E11001B1C1E
:100310000000000000000000051C00000004051C97
:1003200000000000000000000000000015000000B8
:100330000004150000001608150000041515000043
:10034000061500000004061500001606150000043E
:1003500016061500171500000004171500001617E3
:10036000150000000000000007150000000407153C
:1003700000000A15000000040A1500001A1500000C
:10038000000000000000000000000000000000006D
:1003900013150000000413150000161315000004C7
:1003A00013131500000000000004171715001B159B
:1003B0000000000000000000070815000004070707
:1003C00015000000000000040A0A1500150B0000CB
:1003D000000000000000160B1500000000000000E7
:1003E000060B1500000406061500000000000000C2
:1003F00000000000170B15000004170B0F00000091
:1004000000000000000000000915000000040915AC
:1004100000000000000000040909150000000000B1
:1004200000000000000000000000000000000000CC
:10043000130B15000004130B150000000000000052
:10044000000000000E150000000000000000000089
:100450000000000000000000051500000004051564
:100460000000000000000004050515000F0000005A
:1004700000040F000000160F00000004160F00001B
:10048000060F00000004060F00000000000000003E
:100490000000000014000000000414000000161406
:1004A000000000041614000007080F0000040614E2
:1004B00000000A0F000000040A0F000010150000E1
:1004C00000040F0F0000000000000000000000000A
:1004D000130F00000004130F000016130F00000498
:1004E00013130F000D08150000000000000016088F
:1004F00015190000000000000000000000040707BC
:100500000F000000000000040A0A0F000F1C00008A
:10051000000000000000160F1C000000000000009A
:1005200006151C00000406060F0000000000000075
:100530000000000017151C00000000000000161746
:10054000151C000000000000090F00000004090F46
:10055000000000000000000409090F000000000076
:10056000000000000000000000000000000000008B
:10057000130B0F000000000000000000000000004E
:10058000000000000E0F000000000000000000004E
:100590000000000000000000050F00000004050F2F
:1005A000000000000000000000000000000000004B
:1005B0000008000000001200000000081200000007
:1005C00004000000000804000000120400000008FD
:1005D00012040000180000000008180000001218A3
:1005E0000000000812180000041800000008041899
:1005F0000000120418000008120418000C0000008B
:1006000000080C000000120C00000008120C000092
:10061000040C00000008040C000012040C00000888
:1006200012040C00180C00000008180C000012182E
:100630000C00000812180C0004180C000008041824
:100640000C001204180C00081204180C0000000022
:10065000000808000000121200000012080000004C
:100660000404000000040800000004120000000858
:1006700004120000181800000018080000001812EA
:1006800000000008181200001804000000081804F8
:100690000000121804000008121804000C0C0000DE
:1006A000000C080000000C12000000080C120000F2
:1006B0000C04000000080C040000120C04000008E8
:1006C000120C04000C18000000080C1800000C129A
:1006D00018000008120C1800040C18000008040C84
:1006E000180012040C18000812040C180000000076
:1006F00000150000000011000000001511000000AE
:100700000F00000000150F00000016000000000F91
:100710000F0000000A00000000150A000000110A86
:100720000000000A110000000F0A00000000000095
:1007300000000700000000070F0000000600000096
:100740000015060000001106000000000000000077
:100750001300000000151300000016130000001322
:100760000F000000050000000015050000000A0A47
:100770000000000000000000050F00000000000065
:10078000000000000000000F050000000B0000004A
:10079000001A0000000019000000001A11000000FB
:1007A0001D000000001A0F000000160B0000000FD3
:1007B000190000000A0B000000150A0B00001000D1
:1007C00000000015100000001B00000000000000E9
:1007D000000016100000000F10000000060B0000C3
:1007E0000015060B000011060B0000151900000093
:1007F000130B000000000000000000000000000FCC
:10080000060B00000900000000150900000010059B
:1008100000000010050815000F090000000000008E
:10082000000010130000000000000000170000008E
:100830000015170000001117000000151117000027
:100840000F17000000000000000016170000001540
:10085000161700000E00000000150E000000110E1B
:1008600000000000000000000E0F0000000000006B
:100870000000160E0000000F0E000000061700001A
:10088000000000000000170C121100000000000022
:100890001317000000000000000011161700000FE1
:1008A00013000000060E0000000000000000051705
:1008B0000000000000000000060E0F000000000015
:1008C000000000000000000000000000170B000006
:1008D0000015170B000011170B00001A170B000072
:1008E0000F170B00000000000000000000000000D7
:1008F000000000000A0B1700001A0E000000110A89
:10090000170B0000000000001B1700000000000093
:10091000000007170B0000000000000017060B0086
:1009200000000000000000000000000000000000C7
:1009300013170B0000000000000000000000000082
:10094000000000000917000000091708150009172A
:10095000081100000000000000000000000000007E
:100960000000101317000000000000001600000037
:1009700000151600000011160000001511160000E9
:100980000F16000000150F16000016160000000FCD
:100990000F1600000A16000000150A160000110AC2
:1009A0001600000A11160000000000000000000000
:1009B00000000716000000000000000006160000FE
:1009C00000150616000011060816000000000000C1
:1009D000131600000015131600001613160000135E
:1009E0000F081600051600000015051600000A0A7B
:1009F0001600000000000000050F081600000000AF
:100A0000000000000000000F051600000B1600009B
:100A1000001A1600000019081600001A111600002E
:100A20001D081600001A0F160000160B0816000FFE
:100A3000190816000A0B160000000000000010162E
:100A400000000015101600001B0816000000000032
:100A5000000016101600000F10160000070000001E
:100A600000150700000011070000001A0700000031
:100A7000130B160000150F07000000000000000F08
:100A800007000000070A0000000000000000100539
:100A900016000010050815160000000000000000F8
:100AA00000001013160000000000000017160000E0
:100AB00000151716000011171600000000000000B6
:100AC0000F17160000000000000016171600001592
:100AD000161716000E16000000150E160000110E57
:100AE00016000000000000000000000000000000F0
:100AF0000000160E1600000F0E1600000617160056
:100B0000000000000000170C121116000000000089
:100B10000000000000000000000000000000000FC6
:100B200013160000060E1600000000000000051756
:100B30001600000000000000060E0F08160000005E
:100B4000000000000000000000000000170B16006D
:100B50000015170B160011170B16001A170B1600AD
:100B60000000000000000000000000000000000085
:100B7000000000000A0B1716001A0E160000110ADA
:100B8000170B16000000000000000000000000002D
:100B9000000007170B1600000000000007160000F9
:100BA00000150716000011071600001A07160000AE
:100BB00013170B1600150F07160000000000000F9A
:100BC0000716000000000000000000000000000008
:100BD0000000000000000000000000000000000015
:100BE00000001013171600000000000000000000B5
:100BF0000008000000001C00000000081C000000AD
:100C0000160000000008160000001C160000000876
:100C10001C1600000000000000002C000000000076
:100C20002B00000000000000000000002800000071
:100C300000000000000000000000000000000000B4
:100C4000000000000000000000001E000000000086
:100C50001F00000000002000000000002100000034
:100C6000000022000000000023000000000024001B
:100C70000000000025000000000026000000000029
:100C80001E00270000001E001E0000001E001F00A6
:100C900000001E00200000001E00210000001E00B9
:100CA000220000002700000000001E0027000000B6
:100CB0001F0027000000200027000000210027005F
:100CC000000022002700000023002700000024006D
:100CD0002700000025002700000026002700000054
:100CE0001E00270027001E001E0027001E001F00F8
:100CF00027001E00200027001E00210027001E00E4
:100D0000220027000000000000001E00000000007C
:100D10001F00000000002000000000002100000073
:100D2000000022000000000023000000000024005A
:100D30000000000025000000000026000000000068
:100D40001E00270000001E001E0000001E001F00E5
:100D500000001E00200000001E00210000001E00F8
:100D6000220000002700000000001E0027000000F5
:100D70001F0027000000200027000000210027009E
:100D800000002200270000002300270000002400AC
:100D90002700000025002700000026002700000093
:100DA0001E00270027001E001E0027001E001F0037
:100DB00027001E00200027001E00210027001E0023
:100DC000220027000000000000001E0200000000BA
:100DD0002900000000002900330200002502000065
:100DE0000000000000000000000000000000000003
:100DF000000000002D0200000000000000000000C4
:100E000000000000000000000000000000000000E2
:100E100000000000000000000000000000000000D2
:100E200000000000000000000000000000000000C2
:100E300000000000000000000000000000000000B2
:100E400000000000000000000000000000000000A2
:100E50000000000000000000000000000000000092
:100E60000000000000000000000000000000000082
:100E70000000000000000000000000000000000072
:100E80000000000000000000000000000000000062
:100E90000000000000000000000000000000000052
:100EA0000000000000000000000000000000000042
:100EB0000000000000000000000000000000000032
:100EC0000000000000000000000000000000000022
:100ED0000000000000000000000000000000000012
:100EE0000000000000000000000000000000000002
:100EF00000000000000000000000000000000000F2
:100F000000000000000000000000000000000000E1
:100F100000000000000000000000000000000000D1
:100F200000000000000000000000000000000000C1
:100F300000000000000000000000000000000000B1
:100F4000000000000000000000000700000000009A
:100F50003400160000000700000000000000000040
:100F60000000000000000000110034001700000025
:100F7000000000000C0011000A000000000000004A
:100F800034000F000F0000000000000008001500F2
:100F90000000000000000000000000000000000051
:100FA000000000000C0011000A000000000000001A
:100FB00034001900080000000000000000000000DC
:100FC0000000000000000000000000000000000021
:100FD00000000000080015000000000000000000F4
:100FE0000000000000000000000000000000000001
:100FF00000000000000000000000000000000000F1
:10100000000000000C0011000A00000000000000B9
:101010003400070000000000000000000000000095
:1010200000000000000000000000000000000000C0
:1010300000000000000000000000000000000000B0
:1010400000000000000000000000000000000000A0
:101050000000000000000000000000000000000090
:101060000000000008001500000000000000000063
:10107000340010000000000000000000000000002C
:101080000000000000000000000000000000000060
:101090000000000000000000000000000000000050
:1010A0000000000000000000000000000000000040
:1010B0000000000000000000000000000000000030
:1010C00000000000000000000000260200000000F8
:1010D0002D020000000000000000000027020000B8
:1010E00000002602270200000000000000000000AF
:1010F000000000002D0000000000000000000000C3
:1011000000000000000000000000000000000000DF
:1011100000000000000000000000000000000000CF
:101120000000000037000000000000000000000088
:10113000000000000000000000000000270237004F
:101140000000260227023700000000000000000017
:10115000000000000000000000000000000000008F
:10116000000000000000000000000000000000007F
:10117000000000000000000000000000000000006F
:101180000000000036000000000000000000000029
:1011900000000000000000000000000027023600F0
:1011A00000002602270236000000000000000000B8
:1011B000000000000000000000000000000000002F
:1011C000000000000000000000000000000000001F
:1011D000000000000000000000000000000000000F
:1011E00000000000330000000000000000000000CC
:1011F0000000000000000000000000002702330093
:10120000000026022702330000000000000000005A
:1012100000000000000000000000000000000000CE
:1012200000000000000000000000000000000000BE
:1012300000000000000000000000000000000000AE
:101240000000000000000000000037000000000067
:1012500037000000000033020000000026020000FA
:101260000000000000000000360200000000000046
:10127000000000003400000000000000000000003A
:101280000000000000000000000000003402000028
:10129000000000000000000000000000000000004E
:1012A0000000000027020000000000000000000015
:1012B00000000000000000000000000026022702DD
:1012C00050000000000000000000000000000000CE
:1012D000000000000000000000000000000000000E
:1012E00000000000000000000000000000000000FE
:1012F00000000000000000000000000000000000EE
:1013000000000000380200000000000000000000A3
:101310000000000000000000000000003702000094
:1013200000000000000000003602370250000000FC
:1013300000000000340034005000000000000000F5
:101340000000000000000000000000003402340231
:10135000500000000000000000000000000000003D
:10136000000000001E02000000000000000000005D
:10137000000000000000000000000000000000006D
:10138000000000000000000000000000000000005D
:10139000000000000000000000000000000000004D
:1013A000000000000000000000000000000000003D
:1013B000000000000000000000000000000000002D
:1013C000000000000000000000000000000000001D
:1013D00020000080200000800000000084000080C9
:1013E000000000003000008021000080210000800B
:1013F00052000080800000803200008031000080B8
:10140000400000804100008050000080810000808A
:101410003300008042000080430000800000000094
:1014200011000080820000803400008044000080B1
:101430004500008000000000510000808300008013
:10144000350000804600008047000080000000005A
:101450001000008000000000B200008000000000CA
:10146000100000800000000010000080000000005C
:10147000B000008000000000B0000080000000000C
:101480001000008093000080A500008060000080B4
:1014900061000080000000001000008092000080C9
:1014A000A400008062000080630000800000000053
:1014B0005200008091000080A30000806400008042
:1014C0006500008000000000110000809000008096
:1014D000A2000080A10000806600008067000080FC
:1014E000540000809400008000000000A0000080F4
:1014F0007000008071000080530000800000000038
:1015000000000000000000007200008072000080F7
:1015100000000000000000000000000000000000CB
:1015200000000000000000000000000000000000BB
:1015300000000000000000000000000000000000AB
:10154000000000000000000000000000000000009B
:10155000000000000000000000000000000000008B
:10156000000000000000000000000000000000007B
:10157000000000000000000000000000000000006B
:10158000000000000000000000000000000000005B
:10159000000000000000000000000000000000004B
:1015A000000000000000000000000000000000003B
:1015B000000000000000000000000000000000002B
:1015C000000000000000000000000000000000001B
:1015D000000000000000000000000000000000000B
:1015E00000000000000000000000000000000000FB
:1015F00000000000000000000000000000000000EB
:1016000000000000000000000000000000000000DA
:1016100000000000000000000000000000000000CA
:1016200000000000000000000000000000000000BA
:1016300000000000000000000000000000000000AA
:10164000000000000000000000000000000000009A
:10165000000000000000000000000000000000008A
:10166000000000002E004C002A00E100354200007E
:101670001E00140004001D7134004D001F001A00EC
:1016800016001B00E1042A002000080007000600E5
:1016900050002C0021001500090019004F004A00DD
:1016A000220017000A0005000000657400000254C3
:1016B0000000007F0000E3000154025400000077A6
:1016C0000000E20023001C000B0011000000297143
:1016D000240018000D00100052004B0025000C00E3
:1016E0000E00360051002800260012000F003700BF
:1016F0002F002B00270013003300387130004E00FC
:101700002D0031003478E500C10000000252E200F3
:10171000E00000300030000000302B0000300030CE
:101720000030003000300030003000300030003039
:101730000030003000300030010000300030003058
:101740000030003001000030003000300030003048
:10175000000000302A00003000000030000000309F
:101760000100003000000030000000300030003088
:101770000030003000000030003000300030003019
:101780000100003000300030003000300100003037
:1017900000300030003000300030003000300030C9
:1017A00000300030003000304C00E600E400003033
:1017B00000300000010001000100E1000100000014
:1017C0003A00010001000100010001003B0001009E
:1017D00001000100010001003C00010001000100C6
:1017E0004B0001003D000100010001004E0001001E
:1017F0003E00010001000100000001003F00010067
:101800000000010000000100400001000000010094
:101810000000010041000100010001000000010082
:1018200042000100010001004A00010043000100E4
:10183000010001004D000100440001000100010011
:1018400001000100450001000100010001000050FD
:10185000000001000100E500010000000000F0A20E
:1018600005010906A101050719E029E71500250171
:101870009508750181029501750881010508190116
:1018800029059505750191029501750391010507DB
:10189000190029FF150026FF00950675088100C074
:1018A00005010902A1010901A10005091901290584
:1018B00015002501950575018102950175038101CA
:1018C0000501093009311581257F950275088106CA
:1018D00009381581257F950175088106050C0A38A0
:1018E000021581257F950175088106C0C005010993
:1018F00080A101850216010026B7001A01002AB74F
:1019000000751095018100C0050C0901A101850336
:10191000160100269C021A01002A9C0275109501EE
:101920008100C005010906A101050719E029E71595
:101930000025019508750181020508190129059501
:10194000057501910295017503910105071900299B
:101950007715002501957875018102C012011001EB
:1019600000000008EDFE071301000102000109025A
:101970006D00040100A0FA09040000010301010048
:101980000921110100012240000705810308000A16
:1019900009040100010301020009211101000122D3
:1019A0004D000705820308000A0904020001030034
:1019B00000000921110100012236000705830308F8
:1019C000000A0904030001030000000921110100BD
:1019D00001223900070584031000010403090416DD
:1019E000034500720067006F0044006F007800201C
:1019F0000045005A00000016034500720067006FA2
:101A00000044006F007800200045005A00000000EC
:101A100000000000000000000000010204060A0FA0
:101A200017202C3A4A5D71879DB3C7DAE9F5FCFFB0
:101A3000FCF5E9DAC7B39D87715D4A3A2C20170F90
:101A40000A0604020100000000000000000000007F
:101A500011241FBECFEFDAE0DEBFCDBF04B603FE18
:101A600024C080919E0290919F02A091A002B0910B
:101A7000A1028750904BA740B04BB9F410929E0240
:101A800010929F021092A0021092A10214BE84B77D
:101A9000877F84BF88E10FB6F8948093600010922E
:101AA00060000FBEE0E0FFE3099511E0A0E0B1E0C7
:101AB000ECEBF5E602C005900D92AE35B107D9F713
:101AC00012E0AEE5B1E001C01D92AE39B107E1F719
:101AD0000E94FC160C94DC320C9400001092B900A9
:101AE0008AE08093B8000895982F84EA8093BC0020
:101AF0008091BC0087FFFCCF8091B900887F88303F
:101B000021F0803111F081E008959093BB0084E8CA
:101B10008093BC008091BC0087FFFCCF9091B900FE
:101B2000987F983111F480E0089580E0903409F0B6
:101B300081E0089584E98093BC008091BC0084FD1D
:101B4000FCCF08958093BB0084E88093BC00809113
:101B5000BC0087FFFCCF8091B90090E0887F88327D
:101B600009F091E0892F089584E88093BC0080916A
:101B7000BC0087FFFCCF8091BB000895EEE5F1E04B
:101B8000E80FF11D8081089508951F93CF93DF938F
:101B9000CEE5D1E010E0899190E00E948229180FF3
:101BA00081E0CC36D807B9F7812FDF91CF911F9113
:101BB0000895809101018823A9F480E40E94740DA6
:101BC00080930101882361F482E10E94A20D809339
:101BD0000101882329F48FEF0E94A20D8093010157
:101BE0000E949A0D84B1807F84B985B1807F85B9C8
:101BF0008AB1837F8AB98BB1837F8BB93E9846982F
:101C000008950E948B0F809301010E94D90D80B32B
:101C10008C7080BB81B3836F81BB80E090E0FC015E
:101C2000E25AFE4F1082FC01E459FE4F10820196E9
:101C30008E309105A1F70E94740F0895BF92CF9244
:101C4000DF92EF92FF920F931F93CF93DF938091D8
:101C50000101882379F080917A018F5F80937A0166
:101C6000882341F40E948B0F80930101882311F493
:101C70000E941C0F2CE6E22E21E0F22EC0E0D0E004
:101C800090EAB92E81E0C82ED12C02E0C73010F5C1
:101C900080910101882309F045C080E40E94740D01
:101CA00080930101882399F482E10E94A20D809320
:101CB0000101882361F4C6010C2E02C0880F991F10
:101CC0000A94E2F780950E94A20D809301010E9480
:101CD0009A0D28C0CA30D9F0CB3040F4C83089F012
:101CE000C93090F4C73009F09CC008C0CC30A1F0D6
:101CF000CC3080F0CD3009F094C011C0209A2898E3
:101D000090C0219A29988DC0229A2A988AC0239A35
:101D10002B9887C0529A01C0539A5B9882C03E9A12
:101D200046987FC080910101882311F010E03EC0E9
:101D300080E40E94740D80930101882399F483E16B
:101D40000E94A20D80930101882361F481E40E9426
:101D5000740D80930101882329F40E94B40D182F7B
:101D6000109501C010E00E949A0D20C042E07C99BD
:101D700002C034E001C030E07D9902C028E001C01B
:101D800020E07E9902C090E101C090E08FB1809583
:101D9000881F8827881F8295880F807E152F1C2515
:101DA0001170142B132B122B192B182BF701808178
:101DB000811719F01083009300010E94D90D21961C
:101DC0000894E11CF11CCE30D10509F05FCF809161
:101DD00000018823C9F0815080930001882329F0F5
:101DE00080EA9FE00197F1F70FC020E030E0F901B1
:101DF000E25AFE4FD901A459BE4F8C9180832F5FC8
:101E00003F4F2E30310599F70E94190F81E0DF9185
:101E1000CF911F910F91FF90EF90DF90CF90BF90E7
:101E200008958B2D8A95F1F75FB1799B9FCF40E0A4
:101E30009ECF0E940310089556985E9825982D987D
:101E400026982E9827982F988FEF90E090938900EE
:101E50008093880090938B0080938A0090938D00EC
:101E600080938C00259A2D9A84EF91E020E931E04F
:101E7000F9013197F1F70197D9F7269A2E9A84EF55
:101E800091E020E931E0F9013197F1F70197D9F7B5
:101E9000279A2F9A84EF91E020E931E0F9013197F8
:101EA000F1F70197D9F725982D9884EF91E020E973
:101EB00031E0F9013197F1F70197D9F726982E987B
:101EC00084EF91E020E931E0F9013197F1F70197D2
:101ED000D9F727982F9856985E9825982D98269888
:101EE0002E9827982F98089589EA8093800089E09A
:101EF0008093810024982C983F988AB18F748AB976
:101F00006E98479A8BB1806B8BB9769A0E941C0FA2
:101F10000E940210089580E28093010180917B016C
:101F2000882371F40E946E0D81E080937B0180E133
:101F300097E220E931E0F9013197F1F70197D9F7FC
:101F400080E40E94740D80930101882371F50E9442
:101F5000A20D80930101882341F50E94A20D809378
:101F60000101882311F58FE30E94A20D80930101E6
:101F70008823D9F40E949A0D80E40E94740D809306
:101F80000101882391F48CE00E94A20D809301014D
:101F9000882359F40E94A20D80930101882329F41B
:101FA0008FE30E94A20D809301010E949A0D8091FF
:101FB0000101089580917C0190917D01A0917E01A5
:101FC000B0917F010097A105B10519F080E090E084
:101FD000089520E08091800190918101A09182017B
:101FE000B09183010097A105B10509F021E081E0DE
:101FF0002827822F089590E084508A3108F491E0D8
:10200000892F08950895609164027091650280910E
:102010006602909167020E948F29569A5E9A2598CF
:102020002D9826982E9827982F98813019F0823075
:1020300031F403C0259A2D9A02C0269A2E9A0E9446
:10204000DA0F882311F4279A2F9A0895FF920F939D
:102050001F93182F062F0E94E328F82E812F0E942D
:10206000F328802F0E942C1F8F2D0E94F3281F9190
:102070000F91FF9008952F923F924F925F926F922F
:102080007F928F929F92AF92BF92CF92DF92EF9208
:10209000FF920F931F93DF93CF9300D000D000D017
:1020A000CDB7DEB70E94E3288A8382E10E94EC2844
:1020B0002091890129838091850190E03324339414
:1020C0003822DC01A270B070BC83AB8380918601A2
:1020D000882319F4442455240DC04424823011F47B
:1020E000442443945524833011F45524539482E0BE
:1020F0000E94E6285AE1852E51E0952EAA2422243A
:102100002394EE24FF24F701EC57FE4F80818823AF
:1021100009F4B4C02224B1E0EB16F10411F4222436
:102120002394F701EE5AFE4FE081F5E0EF16F1043B
:1021300039F43320F9F04CE4C42E46E0D42E21C00B
:1021400024E0E216F10461F43320A1F03981332355
:1021500089F48695869534ECC32E30E1D32E57C092
:1021600096E0E916F10431F4332021F0A981AA2385
:1021700009F4D6C0D401CD90DC90C114D10409F487
:102180007DC0E13009F043C0B5E08B9F30011124E0
:10219000BB2410E0F601E60DF71D04910023A9F021
:1021A000802F0E942C1F802F0E94D91EA3944420B0
:1021B00019F0E1E0AE1629F0552001F1F2E0AF167A
:1021C000E9F482E00E94EC2819C02B813C81232B8A
:1021D00009F454C031E0B31609F050C086E0E816A7
:1021E000F10409F04BC0112309F448C0812F0E946B
:1021F0002C1F812F0E94D91EA39440C00894611CFB
:10220000711C94E0B916D1F1B394102FC3CFA3E0A1
:102210008A9F3001112400E010E0F801E60DF71D5F
:10222000EE0FFF1FEC0DFD1D259134913E832D8394
:10223000232B21F1BD808B2D0E94FB0F882321F0E1
:102240008B2D0E942C1F04C08E816D810E94261050
:102250008B2D0E94D91EA394442019F031E0A316BF
:1022600029F0552031F082E0A81619F482E00E948E
:10227000EC280F5F1F4F0330110579F60894E11C1D
:10228000F11CA2E0B0E08A0E9B1EBCE0EB16F1044C
:1022900009F039CFAA2099F08091F401843611F425
:1022A0001092F4018091F401E82FFF27E7FDF095EB
:1022B000E057FE4FA0828F5F8093F40126C0332049
:1022C00021F1222011F10091F401015007FD03E6F4
:1022D000C02EDD24C7FCD094F601E057FE4FF080FD
:1022E000FF2099F010E007C08AE20E942C1F8AE2CA
:1022F0000E94D91E1F5F1F15B8F3E0E9F1E0CE0E72
:10230000DF1ED6011C920093F4018A810E94F328FB
:10231000E4E8F1E01192B1E0E039FB07D9F705C03C
:1023200094E4C92E92E1D92E72CF26960FB6F89476
:10233000DEBF0FBECDBFCF91DF911F910F91FF90F8
:10234000EF90DF90CF90BF90AF909F908F907F9055
:102350006F905F904F903F902F9008958F929F9233
:10236000AF92BF92CF92DF92EF92FF920F931F93A3
:10237000CF93DF935C01662309F0CBC0FC01818120
:1023800096E0899FD00111248081A80FB11DFD0125
:10239000EE0FFF1FEE0FFF1FEC53FC4E2591359102
:1023A00045915491211531054105510509F4B1C0FC
:1023B00057FF71C0C9018F70907061E0E62EF12C5B
:1023C000012D112D04C0EE0CFF1C001F111F8A955A
:1023D000D2F794E056954795379527959A95D1F77A
:1023E0008FE0982E9222C92CDD24F601EA5BFE4F85
:1023F0008080F601EE0FFF1FEE5FFE4FC081D1819E
:10240000F5018281882311F1F2E09F1619F481EE23
:102410000E942C1FA801970104C0220F331F441FE4
:10242000551F8A94D2F788819981AA81BB81822B1A
:10243000932BA42BB52B88839983AA83BB83F601A6
:10244000EC57FE4F80818E29808363C0A8019701DD
:1024500004C0220F331F441F551F8A94D2F72095C2
:1024600030954095509588819981AA81BB818223BE
:102470009323A423B52388839983AA83BB830E94D3
:10248000DA0F882311F00E943B1082E0981609F0C1
:1024900040C081EE3CC0622FFD01EE0FFF1FEE0F2A
:1024A000FF1FEC5EFA4EE590F59005911491E11452
:1024B000F1040105110511F4DD2411C0DE2CE091B9
:1024C0000601F091070180819181A281B381807022
:1024D0009070A070B0760097A105B10549F5F5019F
:1024E0008281882371F008C08F2D6E2D07C0822F46
:1024F0000E94D91E8E2D0BC0832F99270E94261073
:1025000008C0862F0E94D91EDD2019F08D2D0E9453
:10251000D91E80E090E0DF91CF911F910F91FF9045
:10252000EF90DF90CF90BF90AF909F908F900895E5
:10253000F50182818823C1F6DACF81E0089581E038
:1025400008950E949F12089508950F931F93CF93AB
:10255000DF93EC0118810981812F902F0E940F27B2
:10256000612F702F0E9438138C01BE010E94A112AE
:10257000882309F477C08A818823C9F18091F50105
:102580008823F1F480E50431180789F50E94A4122C
:1025900081E08093F5010E941E2A9093F7018093B9
:1025A000F6011092FE011092F9011092F8011092BA
:1025B000FB011092FA011092FD011092FC0127C05C
:1025C0008091F6019091F7010E942B2A883C910599
:1025D00070F48091FE01E82FF0E0EE0FFF1FE8504D
:1025E000FE4F118300838F5F8093FE0110C080E552
:1025F0000438180721F00558104561F516C08A8186
:10260000882339F01092FF0182E00E94D21E80E000
:1026100029C08091FF01882331F486E20E942C1F9B
:1026200086E20E94D91E82E012C08A81882321F0AE
:102630001092000280E2E9CF80910002882331F4F9
:1026400087E20E942C1F87E20E94D91E80E20E942E
:10265000CB1EDDCF81E08093FF0180930002CE018D
:102660000E949D12DF91CF911F910F9108950895BF
:10267000E62FF0E0EE0FFF1F9CE0799F9001112400
:10268000E20FF31F98EA899FC0011124E80FF91F98
:10269000EC59F94E25913491C9010895FC01EE0FD2
:1026A000FF1FE452F94E25913491C9010895FC01B0
:1026B000EE0FFF1FE45AF74E25913491C90108959A
:1026C000CF93DF93EC0120E38030920740F580E266
:1026D000C030D80708F0E7C0CB3BD10580F4C83A3A
:1026E000D10508F061C0C53AD10508F04EC0C4302C
:1026F000D10508F048C0219709F0EEC1CEC0CF3F08
:10270000D10511F008F0CCC0C03FD10508F0C2C01F
:10271000CE01805E9040089708F0DEC134C090E59D
:10272000C130D90709F4DAC020E5C230D207A0F4DD
:102730008FE4C031D80758F490E4C030D90708F0CE
:10274000BBC021E3C030D20708F0C6C1B1C0C05041
:10275000D04509F0C1C1B4C097E5C030D90758F4DD
:1027600021E5C031D20708F04EC180E5C431D80759
:1027700008F0B2C1B9C0CE0180509047805090415E
:1027800008F0AAC1A5C19E01A9C1C53AD10519F495
:1027900081E890E47DC0C63AD10519F083E890E461
:1027A00077C082E890E474C0C83AD10519F482EE8B
:1027B00094E46EC0C93AD10519F489EE94E468C076
:1027C000CA3AD10519F48AEE94E462C0CB3AD10535
:1027D00019F485EB94E45CC0CC3AD10519F486EB8E
:1027E00094E456C0CD3AD10519F487EB94E450C077
:1027F000C03BD10519F48CEC94E44AC0CE3AD10523
:1028000019F48DEC94E444C0CF3AD10519F483E86F
:1028100095E43EC0C13BD10519F48AE895E438C07F
:10282000C23BD10519F482E995E432C0C33BD1051E
:1028300019F484E995E42CC0C43BD10519F481E274
:1028400096E426C0C53BD10519F483E296E420C086
:10285000C63BD10519F484E296E41AC0C73BD10502
:1028600019F485E296E414C0C83BD10519F486E258
:1028700096E40EC0C93BD10519F487E296E408C07E
:10288000CA3BD10519F080E094E402C08AE296E4E4
:102890009C0124C19E01306521C121E030E01EC1B0
:1028A0009E013F711BC1CE019F700E94571317C13B
:1028B0009E013070306C12C19E013F70306A0EC1B3
:1028C0000E94C61E84EC99E020E931E0F9013197BD
:1028D000F1F70197D9F70E947B2A00C180917D0210
:1028E000816080937D02FAC00E94492C882311F4F4
:1028F0000E94542C0E943A2C80939D0210929E02BA
:1029000090E5C230D90711F4816076C020E5C4306B
:10291000D20711F4826070C090E5C630D90711F477
:1029200084606AC020E5C830D20711F4886064C0B2
:1029300090E5CA30D90711F480615EC020E5CC3043
:10294000D20711F4806258C090E5CE30D90711F457
:10295000806452C020E5C031D20711F480684CC0B9
:1029600090E5C231D90711F48C6046C020E5C33030
:10297000D20721F480919D028E7F3EC080E5C53054
:10298000D80721F480919D028D7F36C090E5C73035
:10299000D90721F480919D028B7F2EC020E5C9309C
:1029A000D20721F480919D02877F26C080E5CB303D
:1029B000D80721F480919D028F7E1EC090E5CD3016
:1029C000D90721F480919D028F7D16C020E5CF307C
:1029D000D20721F480919D028F7B0EC080E5C1312A
:1029E000D80721F480919D028F7706C0C351D0454E
:1029F00029F480919D02837F80939D0280919D02A6
:102A00000E94282C6BC04D2F55274F7050704130BD
:102A10005105F9F49E01A4E0220F331FAA95E1F7B6
:102A200020703370CE01F3E0880F991FFA95E1F71B
:102A300080769070282B392B3C68C370D07002C010
:102A4000440F551FCA95E2F74F715070242B352B58
:102A500045C04230510529F43C2F2227216F306AAE
:102A60003DC04330510551F49E0173E0220F331FE6
:102A70007A95E1F7207E37703C680CC044305105F0
:102A8000B9F49E0163E0220F331F6A95E1F7207EBF
:102A900037703A68C370D07081E090E002C0880F50
:102AA000991FCA95E2F78F719070282B392B16C0A9
:102AB0004530510529F43C2F2227246F306A0EC07F
:102AC0004630510559F4CF71D0703C2F222702C0F7
:102AD0009E013F70306202C020E030E0C901DF910A
:102AE000CF9108950E943813803E9105F0F4803C08
:102AF000910588F58133910509F475C082339105FC
:102B000048F48932910509F464C08A32910509F0CC
:102B10007BC06EC08933910509F182389105F1F0CF
:102B20008533910509F070C04FC0833E910561F176
:102B3000843E910540F4803E9105B9F0823E9105B6
:102B400009F062C01CC0863E910551F1873E910597
:102B500009F05AC02AC00E944E13089520919D0288
:102B600020FD0AC021FD08C04CC080919D0280FF5D
:102B700003C089E390E045C080EE90E042C08091C0
:102B80009D0282FD08C004C080919D0282FF03C0A7
:102B900082EE90E036C084FD11C083EE90E031C03B
:102BA00080919D0283FD08C004C080919D0283FF37
:102BB00003C086EE90E025C084FF03C080E090E073
:102BC00020C087EE90E01DC080919D0285FF05C06A
:102BD00007C080919D0285FF03C085E390E011C08E
:102BE00089E290E00EC080919D0286FF05C007C07B
:102BF00080919D0286FF03C081E390E002C08AE2DB
:102C000090E00E94601308950E9460130895089553
:102C10000E940716089510929302089508958091D6
:102C200002020895DF93CF9300D00F92CDB7DEB7A5
:102C3000AC0180919402843029F583E08093E9000F
:102C40002FEF95ED05C0892F8A95F1F7222329F002
:102C50008091E800215085FFF6CF8091E80085FF44
:102C600011C05B834A8383E08983CE01019663E0D0
:102C700070E040E050E00E947B198091E8008E7780
:102C80008093E8000F900F900F90CF91DF910895FF
:102C9000DF93CF9300D00F92CDB7DEB7AC01809118
:102CA0009402843029F583E08093E9002FEF95EDBD
:102CB00005C0892F8A95F1F7222329F08091E80039
:102CC000215085FFF6CF8091E80085FF11C05B831E
:102CD0004A8382E08983CE01019663E070E040E0A0
:102CE00050E00E947B198091E8008E778093E80085
:102CF0000F900F900F90CF91DF910895AC018091CC
:102D00009402843001F582E08093E9002FEF95ED85
:102D100005C0892F8A95F1F7222329F08091E800D8
:102D2000215085FFF6CF8091E80085FF0CC0CA01D5
:102D300065E070E040E050E00E947B198091E8007F
:102D40008E778093E80008950F931F93182F092F13
:102D500090919402943009F04CC080913201882304
:102D6000E1F080913D018823C1F09093E9009FEF4D
:102D700025E105C0822F8A95F1F7992329F08091EA
:102D8000E800915085FFF6CF8091E80085FF31C0C3
:102D9000812F902F60E170E018C081E08093E900FE
:102DA0009FEF25ED05C0822F8A95F1F7992329F031
:102DB0008091E800915085FFF6CF8091E80085FF73
:102DC00018C0812F902F68E070E040E050E00E9432
:102DD0007B198091E8008E778093E800A3E0B2E051
:102DE000212F302FC901FC0180E101900D9281500B
:102DF000E1F71F910F91089584B7877F84BF88E121
:102E00000FB6F89480936000109260000FBE80E8C7
:102E100080936100109261000E94C71D0E94591AA0
:102E20000E94BA1A8091E20084608093E200789454
:102E30000E94581D0E94591E83E391E00E946E1D5E
:102E40000E94F9300CC00E94E129809192028823EF
:102E500031F00E940A2A882311F00E949018809174
:102E60009402853081F30E94CD1DF9CF80919302A9
:102E7000882349F40E94591A0E94BA1A8091E200EC
:102E800084608093E200089580919602833009F473
:102E900057C0843030F4813071F0823009F0B1C015
:102EA00098C08A3009F485C08B3009F46AC0893033
:102EB00009F0A7C020C080919502813A09F0A1C015
:102EC0008091E800877F8093E8008091990290913B
:102ED0009A02892B21F460E183E092E003C060E074
:102EE00080E090E070E00E94A6188091E8008B7767
:102EF0008093E800089580919502813209F081C0A5
:102F00008091990290919A02009719F0039709F025
:102F100078C08091E800877F8093E80005C08091A9
:102F20009402882309F46DC08091E80082FFF7CFF6
:102F30008091F100809302028091E8008B771CC0A1
:102F400080919502813A09F05CC08091990290913C
:102F50009A02892B09F055C08091E800877F809301
:102F6000E8008091E80080FFFCCF809132018093DF
:102F7000F1008091E8008E778093E8000E94061AA5
:102F80000895809195028132E1F5809199029091A6
:102F90009A02892BB1F58091E800877F8093E80041
:102FA0000E94061A80919702809332010E94C61EE9
:102FB000089580919502813221F58091E800877F04
:102FC0008093E8000E94061A809198028093010283
:102FD000089580919502813AA1F48091E800877F5D
:102FE0008093E8008091E80080FFFCCF809101028F
:102FF0008093F1008091E8008E778093E8000E9432
:10300000061A089581E061EC42E00E94CE1982E048
:1030100061EC42E00E94CE1983E061EC42E00E9444
:10302000CE1984E061EC42E10E94CE1908950E941D
:10303000DA290E9411310E94731D0E94081608951A
:103040000E940B310895DA019330C1F0943030F4CE
:10305000913051F0923009F05BC00BC0913221F1F8
:10306000923209F055C037C0ECE5F9E122E130E0D9
:1030700053C0EEE6F9E12DE630E04EC0813051F06C
:10308000813020F0823009F043C008C0EBEDF9E157
:10309000849107C0EFEDF9E1849103C0E7EFF9E116
:1030A0008491282F30E038C0613051F0613028F031
:1030B000623059F0633061F50BC0E0E8F9E102C01D
:1030C000E9E9F9E129E030E027C0E2EBF9E1FACFE4
:1030D000EBECF9E1F7CF613061F0613028F062305C
:1030E00069F06330A9F40FC0E0E6F8E120E430E0D5
:1030F00013C0E0EAF8E12DE430E00EC0EDEEF8E1B7
:1031000026E330E009C0E3E2F9E129E330E004C05E
:10311000E0E0F0E020E030E0ED93FC93C901089599
:1031200080E189BD82E189BD09B400FEFDCF8091B7
:10313000D8008F7D8093D8008091E00082608093DA
:10314000E0008091E00081FDFCCF08959C0140915A
:103150009B0250919C024617570718F4F90190E022
:1031600043C06115710511F0AB01F8CF8091E80003
:103170008E778093E80040E050E0F0CF8091940299
:10318000882309F447C0853009F446C08091E800DF
:1031900083FD44C08091E80082FD36C08091E80044
:1031A00080FF22C08091F3009091F200782F60E0C0
:1031B000292F30E0262B372B07C081918093F10017
:1031C000415050402F5F3F4F4115510519F02830B5
:1031D000310598F390E02830310509F491E08091B1
:1031E000E8008E778093E8004115510539F6992360
:1031F00029F60AC080919402882361F0853061F03D
:103200008091E80083FD0AC08091E80082FFF2CF40
:1032100080E0089582E0089583E0089581E00895B4
:103220009C0140919B0250919C024617570718F44D
:10323000F90190E044C06115710511F0AB01F8CFC0
:103240008091E8008E778093E80040E050E0F0CF76
:1032500080919402882309F448C0853009F447C05E
:103260008091E80083FD45C08091E80082FD37C071
:103270008091E80080FF23C08091F3009091F200DC
:10328000782F60E0292F30E0262B372B08C084915F
:103290008093F1003196415050402F5F3F4F4115D0
:1032A000510519F02830310590F390E028303105B0
:1032B00009F491E08091E8008E778093E800411551
:1032C000510531F6992321F60AC080919402882392
:1032D00061F0853061F08091E80083FD0AC0809143
:1032E000E80082FFF2CF80E0089582E0089583E055
:1032F000089581E00895BF92CF92DF92EF92FF92FE
:103300000F931F93CF93DF93182F092F7B016A012F
:103310000E94271AB82E8823B1F5812F902F9C0187
:10332000E901C114D10439F0F60180819181E81AD4
:10333000F90AC80FD91F00E010E022C08091E80010
:1033400085FD16C08091E8008E778093E800C11457
:10335000D10449F0F60180819181800F911F918302
:10336000808385E011C00E94271A882349F00CC091
:1033700089918093F1000894E108F1080F5F1F4FD5
:10338000E114F104D9F68B2DDF91CF911F910F91AC
:10339000FF90EF90DF90CF90BF900895382F282FA7
:1033A0002EC0822F8F708093E900231721F4762F8F
:1033B000942F50E006C07091EC009091ED00509178
:1033C000F00091FF1BC08091EB008E7F8093EB009B
:1033D0008091ED008D7F8093ED008091EB00816006
:1033E0008093EB007093EC009093ED005093F0000D
:1033F0008091EE0087FD02C080E008952F5F2730A6
:1034000080F23F703093E90081E008958091950249
:1034100088239CF404C0809194028823B9F08091A1
:10342000E80082FFF8CF8091E8008B778093E80076
:10343000089580919402882349F08091E80080FFEC
:10344000F8CF8091E8008E778093E800089540914E
:10345000E4005091E50024E68091EC0080FF24C058
:103460008091E80080FD1EC080919402882311F4B1
:1034700082E00895853011F483E008958091EB0097
:1034800085FF02C081E008958091E4009091E500FD
:103490008417950709F3222311F484E0089521503D
:1034A000AC01DACF80E008958091E80082FFDCCFA4
:1034B000F9CF0E94CC1A0E94D41AE0EEF0E080818D
:1034C00081608083A8EDB0E08C918F778C9319BCDC
:1034D000E7EDF0E080818E7F80838C918F7E8C93EE
:1034E000109293020895EF92FF920F931F930E9400
:1034F000CC1A0E94D41A08ED10E0F80180818F7771
:10350000808380818068808380818F7D808319BCE7
:1035100010929402109290021092920210929102D4
:1035200080EEE82EF12CF70180818B7F8083F801FB
:1035300080818160808380E060E042E00E94CE195B
:10354000E1EEF0E080818E7F8083E2EEF0E080812A
:1035500081608083808188608083F70180818E7F95
:103560008083F8018081806180831F910F91FF909B
:10357000EF900895E8EDF0E080818F7E8083E7EDA5
:10358000F0E080818160808384E082BF81E080936D
:1035900093020E94731A0895E8EDF0E080818E7F17
:1035A00080831092E20008951092DA001092E100F8
:1035B00008951F920F920FB60F9211241F932F930D
:1035C0003F934F935F936F937F938F939F93AF93AB
:1035D000BF93EF93FF931091E9008091EC0010925C
:1035E000E9008091F000877F8093F00078940E943A
:1035F000E71B1092E9008091F00088608093F00052
:103600001F701093E900FF91EF91BF91AF919F91CF
:103610008F917F916F915F914F913F912F911F916A
:103620000F900FBE0F901F9018951F920F920FB61C
:103630000F9211242F933F934F935F936F937F9338
:103640008F939F93AF93BF93EF93FF938091E1008C
:1036500082FF0BC08091E20082FF07C08091E100F1
:103660008B7F8093E1000E94571D8091DA0080FFDC
:103670001FC08091D80080FF1BC08091DA008E7F30
:103680008093DA008091D90080FF0DC080E189BD70
:1036900082E189BD09B400FEFDCF81E080939402F0
:1036A0000E94361705C019BC109294020E940B1696
:1036B0008091E10080FF19C08091E20080FF15C079
:1036C0008091E2008E7F8093E2008091E200806131
:1036D0008093E2008091D80080628093D80019BC6A
:1036E00085E0809394020E9420188091E10084FF7D
:1036F00030C08091E20084FF2CC080E189BD82E16E
:1037000089BD09B400FEFDCF8091D8008F7D8093E4
:10371000D8008091E1008F7E8093E1008091E200EB
:103720008F7E8093E2008091E20081608093E200CE
:1037300080919002882311F084E007C08091E3001B
:1037400087FD02C081E001C083E0809394020E9463
:1037500017188091E10083FF29C08091E20083FF68
:1037600025C08091E100877F8093E10082E0809313
:103770009402109290028091E1008E7F8093E1008C
:103780008091E2008E7F8093E2008091E200806170
:103790008093E20080E060E042E00E94CE198091D8
:1037A000F00088608093F0000E940E16FF91EF9168
:1037B000BF91AF919F918F917F916F915F914F9149
:1037C0003F912F910F900FBE0F901F9018951F9350
:1037D000DF93CF93CDB7DEB7AC970FB6F894DEBFCB
:1037E0000FBECDBFE5E9F2E08091F100819322E0C8
:1037F000ED39F207C9F70E9444178091E80083FF72
:103800003EC18091950230919602353009F487C00F
:10381000363040F43130C9F1313070F0333009F0D6
:103820002EC133C0383009F4F9C0393009F409C168
:10383000363009F024C197C0803821F0823809F071
:103840001EC108C09091910280919202882399F044
:10385000926011C0809199028F708093E9008091ED
:10386000EB0090E025E0969587952A95E1F7982F53
:1038700091701092E9008091E800877F8093E800C2
:103880009093F1001092F100D4C0882319F0823097
:1038900009F0F5C090E08F719070009721F00297C9
:1038A00009F0EDC00CC080919702813009F0E7C0AB
:1038B00010929202333069F5809392022AC080916F
:1038C0009702882331F5209199022F7009F4D7C00F
:1038D0002093E9008091EB0080FF1BC0333021F47E
:1038E0008091EB00806213C08091EB008061809337
:1038F000EB0081E090E002C0880F991F2A95E2F763
:103900008093EA001092EA008091EB008860809337
:10391000EB001092E9008091E800877F8DC088233A
:1039200009F0ADC0109197021F778091E300807875
:10393000812B8093E3008091E800877F8093E800EB
:103940000E94061A8091E80080FFFCCF8091E3007E
:1039500080688093E300112311F482E001C083E0CA
:10396000809394028CC08058823008F088C0809187
:1039700097029091980223E08C3D920709F034C0A1
:1039800083E08C838AE28B837FB7F894DE011596FF
:103990006EE040E050E011E2E62FF0E010935700B7
:1039A000849140FF03C082958F706F5F8F70282FC6
:1039B00030E08A3018F0C901C79602C0C901C0962C
:1039C0008D939D934F5F5F4F4431510529F77FBF22
:1039D0008091E800877F8093E800CE0103966AE239
:1039E00070E00E94A61814C060919902AE014F5F6A
:1039F0005F4F0E942318BC01009709F440C08091DA
:103A0000E800877F8093E80089819A810E941019DD
:103A10008091E8008B778093E80031C0803879F599
:103A20008091E800877F8093E800809190028093E6
:103A3000F1008091E8008E778093E8000E94061ADA
:103A40001EC08823E1F4909197029230C0F48091D7
:103A5000E800877F8093E800909390020E94061A06
:103A600080919002882331F48091E30087FD02C0A9
:103A700081E001C084E0809394020E94021880914A
:103A8000E80083FF0AC08091E800877F8093E80008
:103A90008091EB0080628093EB00AC960FB6F894B7
:103AA000DEBF0FBECDBFCF91DF911F910895089566
:103AB0001F9380919402882379F01091E9008091FE
:103AC000EC001092E9008091E80083FF02C00E94A0
:103AD000E71B1F701093E9001F910895909318023F
:103AE000809317020895E0911702F0911802309721
:103AF00011F480E008950190F081E02D099508957A
:103B0000E0911702F0911802309721F00280F381C2
:103B1000E02D09950895E0911702F0911802309771
:103B200021F00480F581E02D099508959C01809194
:103B30001502909116022817390779F03093160272
:103B400020931502E0911702F0911802309729F0A6
:103B50000680F781E02DC901099508959C018091A7
:103B60001302909114022817390779F03093140248
:103B700020931302E0911702F0911802309729F078
:103B80000084F185E02DC9010995089508950E94EA
:103B9000C61D08950E9408160895AF92BF92CF9255
:103BA000DF92EF92FF920F931F93DF93CF93CDB7E6
:103BB000DEB72A970FB6F894DEBF0FBECDBF0E94C6
:103BC0001E0E0DE010E081E0A82EB12CC02E802F3B
:103BD0000E94BE0DE82EF801E75EFD4FF080F8264A
:103BE00091F180917D0281FF02C00E94C40D25E009
:103BF00030E0C501022E02C0880F991F0A94E2F737
:103C0000D82E8F21D1F02983CA821B82ED2011F09A
:103C100081E08B830E941E2A8160782F9D838C8394
:103C200049815A816B818D810E949822F801E75E5B
:103C3000FD4F80818D2580831DC0215030408FEF46
:103C40002F3F3807B1F6015010408FEF0F3F180794
:103C500009F0BCCF0E941E2A2FEF2E832F831886D7
:103C60008160782F9A8789874FEF5FEF60E08A85C0
:103C70000E9498220E94F32D109127020E94731D2A
:103C8000181731F00E94731D809327020E94CA1DED
:103C90002A960FB6F894DEBF0FBECDBFCF91DF914D
:103CA0001F910F91FF90EF90DF90CF90BF90AF905A
:103CB00008950E94152A0E94010E0E94DB2A089591
:103CC000DF93CF9300D000D00F92CDB7DEB70F9027
:103CD0000F900F900F900F90CF91DF910895DF9389
:103CE000CF9300D000D000D0CDB7DEB726960FB668
:103CF000F894DEBF0FBECDBFCF91DF9108950E9433
:103D00005627482F892F82958F70282F30E02C302E
:103D100031054CF42A3031056CF422503040223009
:103D20003105E8F407C02C30310579F02F3031052A
:103D3000B1F40BC0403F39F0413F18F4403E78F4F5
:103D400002C0443F61F481E008959F70892F90E0A4
:103D500023E0969587952A95E1F78170089580E094
:103D600008950E9406290E9416290E94D5280E94C3
:103D70002E290E94DC2D0E94E82D80E090E00E9418
:103D8000961D80E090E00E94AE1D08950E94F628E6
:103D90000E94B11E0895882321F00E94EC280E9401
:103DA0002E290895882321F00E94E6280E942E29BA
:103DB0000895282F882309F44EC0823859F40E94B0
:103DC000731D81FF48C089E30E9463280E942E2949
:103DD00089E30CC0833869F40E94731D80FF3BC0E7
:103DE00083E50E9463280E942E2983E50E94A12872
:103DF0001FC0843859F40E94731D82FF2CC087E4D1
:103E00000E9463280E942E2987E4F0CF8450813AD3
:103E100010F4822FEBCF822F805E883060F4277001
:103E200081E090E001C0880F2A95EAF70E94EC2813
:103E30000E942E290895822F855A833028F480E02D
:103E400090E00E94961D0895285A233120F480E0C6
:103E500090E00E94AE1D08951F93182F882309F447
:103E6000D0C0823859F40E94731D81FDCAC089E315
:103E70000E9463280E942E2989E30CC0833879F4BC
:103E80000E94731D80FDBDC083E50E9463280E94CF
:103E90002E2983E50E94A1280E942E29B2C08438D1
:103EA00059F40E94731D82FDACC087E40E94632810
:103EB0000E942E2987E4EECF8450813A50F4812F5E
:103EC0000E942A30882309F09CC0812F0E94632819
:103ED000E3CF812F805E883050F4177081E090E04E
:103EE00001C0880F1A95EAF70E94E628D5CF812FE6
:103EF000855A8330A0F4153A19F481E890E00CC09B
:103F0000163A19F482E890E007C0173A19F080E0F9
:103F100090E002C083E890E00E94961D72C0812F5D
:103F2000885A833108F06DC0183A19F482EE90E097
:103F300066C0193A19F489EE90E061C01A3A19F492
:103F40008AEE90E05CC01B3A19F485EB90E057C014
:103F50001C3A19F486EB90E052C01B3B19F483EB3A
:103F600090E04DC01C3B19F484EB90E048C01D3A32
:103F700019F487EB90E043C0103B19F48CEC90E00F
:103F80003EC01E3A19F48DEC90E039C01F3A19F486
:103F900083E891E034C0113B19F48AE891E02FC026
:103FA000123B19F482E991E02AC0133B19F484E929
:103FB00091E025C0143B19F481E292E020C0153B4A
:103FC00019F483E292E01BC0163B19F484E292E0FC
:103FD00016C0173B19F485E292E011C0183B19F4A2
:103FE00086E292E00CC0193B19F487E292E007C028
:103FF0001A3B19F080E090E002C08AE292E00E9451
:10400000AE1D1F9108950F931F93CF93DF93EC0183
:10401000298138818B819C81892BD9F02F3FA1F494
:104020003F3F91F416C0688179818A810E9461279F
:10403000182F092F0E940E270E940D27CE01612FF5
:10404000702F0E942E2005C0CE010E94A512882349
:1040500051F7DF91CF911F910F9108959F92AF92E9
:10406000BF92CF92DF92EF92FF920F931F93DF9355
:10407000CF9300D000D00F92CDB7DEB75C016B01BB
:10408000DE011196FC0185E001900D928150E1F76F
:104090000B81F501F580F2944FE0F422002311F03A
:1040A0000E9406290E945D28882379F0002369F088
:1040B0008C2D805E883048F082E00E945F290E944B
:1040C0005D2899249394982601C099248D2D82957A
:1040D0008F7090E08530910509F4AAC08630910573
:1040E00054F4843091050CF084C02D2D207F02976C
:1040F0000CF045C013C08C30910544F48A30910512
:104100000CF067C1089709F0EFC19EC08C30910593
:1041100009F4D9C10F9709F0E7C1DFC18D2D8F7068
:10412000222311F4182F03C0182F1295107F00239B
:1041300089F0112309F4B3C18C2D805E883020F4FE
:10414000812F0E94E62803C0812F0E94F9280E9437
:104150002E29A5C18C2D0E94D91E112309F4C4C19A
:10416000F0E2CF0E27E02C1520F0812F0E94EC28E2
:1041700003C0812F0E94FF280E942E29B5C18D2DDA
:104180008F70203211F4182F03C0182F1295107F52
:10419000CC2021F081E0C81611F516C0002359F09B
:1041A000FF2009F435C1E1E0FE1609F031C1812F8D
:1041B0000E94192999C1FF2021F0F1E0FF1609F4AE
:1041C00093C10E941C292AC1002329F021E02F1548
:1041D00008F48AC11DC1FF2009F086C11FC1002358
:1041E00021F0FF2009F414C15AC1FF2009F416C1BF
:1041F00061C18D2D86958695837090E0009721F0A2
:10420000019709F071C10AC0002319F0C60193702B
:1042100002C080E090E00E94961D66C1002319F064
:10422000C601937002C080E090E00E94AE1D5CC1A8
:10423000002321F08C2D0E94EA2C03C08C2D0E94BB
:10424000542D0E94E82D50C18D2D837009F05EC061
:10425000002309F049C12C2D229526952770220FA5
:10426000220F8C2D8F70E82EFF2400E010E0022E2C
:1042700004C0EE0CFF1C001F111F0A94D2F7C4FCEF
:1042800005C060E070E080E090E00FC06FE070E09B
:1042900080E090E004C0660F771F881F991F2A9561
:1042A000D2F76095709580959095D694D694E3E07A
:1042B000DE224D2D50E041305105A9F0423051052C
:1042C0001CF4452B49F010C14230510589F04330B0
:1042D000510509F009C113C06E297F29802B912B4C
:1042E0000E942E2801C16E297F29802B912B0BC0A3
:1042F0006E297F29802B912B0E941D28F5C00E94DA
:104300002E28C801B7010E943F28EEC090E000238C
:1043100011F496958795817009F4E6C02C2D2295AD
:1043200026952770220F220F8C2D8F70E82EFF24E8
:1043300000E010E0022E04C0EE0CFF1C001F111F55
:104340000A94D2F7C4FC05C060E070E080E090E021
:104350000FC06FE070E080E090E004C0660F771F50
:10436000881F991F2A95D2F7609570958095909532
:10437000D694D694F3E0DF224D2D50E04130510524
:10438000A9F0423051051CF4452B49F0ADC0423034
:10439000510589F04330510509F0A6C013C06E29BC
:1043A0007F29802B912B0E9481279EC06E297F2917
:1043B000802B912B0BC06E297F29802B912B0E9483
:1043C000702792C00E948127C801B7010E949227DE
:1043D0008BC021EFC216A9F12C1540F080EEC81653
:1043E00008F459C0EFEEEC1558F41CC0F3EFCF16EB
:1043F00091F1CF1658F124EFC21609F04CC035C028
:104400001C2D1F708D2D8F71002331F00E94DF272E
:10441000812F0E94D21E68C00E94BF27812F0E9458
:10442000CB1E62C0002321F0FF2009F05DC004C054
:1044300081E08F1508F458C08D2D8F710E94A3273D
:1044400053C08D2D8F710023D9F12FC08D2D8F7109
:10445000002359F135C0002329F08D2D8F710E9462
:10446000FB2742C00E940B283FC0002351F01D2DA6
:104470001F71812F0E94DF27812F63E00E9478291E
:1044800033C081E00E945F29E1E0EF1568F582E02A
:104490000E945F2929C0002359F0FF2021F08C2DB4
:1044A0000E942C1F21C08D2D8F710E94DF271CC000
:1044B000FF2021F08C2D0E94D91E16C08D2D8F71EA
:1044C0000E94BF2711C0FFE0DF22C5016C2D4D2DDA
:1044D0000E94AE110E94942607C02FE0D222C5018F
:1044E0006C2D4D2D0E943713992089F00E94592878
:1044F00080FD0DC0F50112820E9453280E94DF2723
:10450000C5010E9403200E9453280E94BF270F90DC
:104510000F900F900F900F90CF91DF911F910F91FF
:10452000FF90EF90DF90CF90BF90AF909F90089555
:10453000DF93CF93CDB7DEB72B970FB6F894DEBFDE
:104540000FBECDBF342F4F83252F588769877A87B9
:104550008B87472F582FFE01319686E0DF011D9291
:104560008A95E9F76B8339832A834C835D83432FD4
:10457000522F8D819E810E94D5252B960FB6F894DF
:10458000DEBF0FBECDBFCF91DF9108950F931F9374
:1045900000912F0215C010E0F801EE0FFF1FE00F91
:1045A000F11FEE0FFF1FE05DFD4F408151816281E1
:1045B0007381848195810E946F1E0F5F1F4F07706A
:1045C00080912E02081739F71F910F91089540919D
:1045D00028025091290260912A0270912B02809149
:1045E0002C0290912D020E946F1E08950F931F932D
:1045F000CF93DF9380912D0282958F7009F06DC06B
:1046000080912A02882309F468C060912F020091EA
:104610002E0240912B0250912C0210912902709190
:104620002802EA01C095D09555C04115510509F4FD
:104630004FC01F3F49F480E090E07F3F11F481E0DC
:1046400090E0882309F044C0262F30E0F901EE0FF6
:10465000FF1FE20FF31FDF01AA0FBB1FA05DBD4FBD
:1046600011968C911197181799F58C91781781F5FF
:10467000EE0FFF1FEE5CFD4F8081882349F51396F6
:104680008D919C9114978417950718F0841B950BB6
:1046900002C08C0F9D1F883C9105D0F480912D02A3
:1046A0008F70806180932D02F901EE0FFF1FE20FE2
:1046B000F31FEE0FFF1FEB5CFD4F80818F70806159
:1046C000808388E292E00E9403200E94C62205C0F7
:1046D0006F5F6770601709F0A8CFDF91CF911F91CE
:1046E0000F910895DF92EF92FF920F931F93DF9344
:1046F000CF93CDB7DEB76B970FB6F894DEBF0FBE82
:10470000CDBF8C01DC011296DC9012974C91119672
:104710005C9111971396ED90FC90149720912B02C9
:1047200030912C02609129027091280221153105E7
:1047300009F4DBC16F3F09F003C27F3F09F000C2FB
:10474000D4C1E216F30640F0C701821B930B883CEC
:10475000910508F0EEC008C0209530952E0D3F1D44
:10476000283C310508F0E5C080912D02807F09F0DA
:1047700095C06F3F09F0EAC17F3F09F0E7C115C05E
:10478000741799F4DD2089F480912D028F70806177
:1047900080932D020E94E72288E292E00E9403208B
:1047A00080912D02F8018583BCC1FD82EC825A8381
:1047B0004983DB82DE011696FE01319685E0019089
:1047C0000D928150E1F76885DE011B96FE01369659
:1047D00085E001900D928150E1F72C853B858E8517
:1047E0009F85892B09F451C02F3F09F0B3C13F3F8A
:1047F00009F0B0C14AC0FD82EC825A834983DB8252
:10480000DE011B96FE01319685E001900D928150EC
:10481000E1F7FC847B856D8580912F0290912E02BB
:104820001FC0282F30E0F901EE0FFF1FE20FF31F2A
:10483000DF01AA0FBB1FA05DBD4F11968C91119790
:10484000F81651F48C91781739F4EE0FFF1FEE5CD7
:10485000FD4F80816817C9F42F5F3F4F822F87700B
:104860008917F9F68DC19F7059F0442349F459C155
:104870009F7031F0D80115968C91807F09F451C159
:10488000405E483008F44DC148C1DD2009F449C1FB
:1048900080912D02816080932D0243C16F3F09F00A
:1048A0005DC17F3F09F05AC114C0741791F4DD2037
:1048B00081F480912D02F8018583C8010E940320B4
:1048C000A8E2B2E0F80186E001900D928150E1F794
:1048D00020C15A83498389819A810E947F1E88233F
:1048E00009F41BC1DD2009F418C130912D02832F7A
:1048F00082958F7090E002979CF090912902209110
:104900002802FE01709686E0DF011D928A95E9F784
:10491000998B288BFC8AEB8A3D8BCF010E94032068
:10492000A8E2B2E0F80186E001900D928150E1F733
:10493000EEC080912D02807FA9F47E2DFD82EC8255
:104940005A834983DB826D2D8D810E94601E08E2AF
:1049500012E0C8010E94032086E0F80111928A95B6
:10496000E9F7C0C06F3F09F0FDC07F3F09F0FAC012
:1049700014C0741791F4DD2081F480912D02D801C8
:1049800015968C93C8010E940320E8E2F2E086E0CD
:10499000DF011D928A95E9F7BEC05A834983898158
:1049A0009A810E947F1E882309F4B7C0DD2009F494
:1049B000B4C030912D02832F82958F7090E00297C2
:1049C0009CF09091290220912802FE01769686E0C3
:1049D000DF011D928A95E9F79F8B2E8BFA8EE98E67
:1049E0003B8FCF010E940320A8E2B2E0F80186E0ED
:1049F00001900D928150E1F78AC06F3F09F0B6C077
:104A00007F3F09F0B3C071C0E216F30640F0C70162
:104A1000821B930B883C910508F053C008C0209579
:104A200030952E0D3F1D283C310508F04AC0DD2091
:104A300009F473C06F3F09F09FC07F3F09F09CC02D
:104A400029C0741739F590912D0290FD1AC0892F55
:104A500082958F70B1F0F80195838F3031F08F5FC0
:104A60008295807F9F70982B9583C8010E940320B8
:104A7000A8E2B2E0F80186E001900D928150E1F7E2
:104A800048C0A8E2B2E0F80186E001900D928150A2
:104A9000E1F741C05A83498389819A810E947F1E30
:104AA000882349F0A8E2B2E0F80186E001900D9277
:104AB0008150E1F72CC080912D02816080932D02FE
:104AC0002CC07E2DFD82EC825A834983DB826D2DC2
:104AD0008D810E94601EE8E2F2E086E0DF011D9217
:104AE0008A95E9F70E94E7221CC0DD20B1F05A83C5
:104AF000498389819A810E947F1E882371F0A8E2F0
:104B0000B2E0F80186E001900D928150E1F70E9439
:104B1000F6220E94E72281E005C0C8010E9403201E
:104B2000FACF80E06B960FB6F894DEBF0FBECDBF14
:104B3000CF91DF911F910F91FF90EF90DF9008953B
:104B400080912A02882309F458CFFBCD651709F01C
:104B50002CCE16CE613009F498CE4DCE651709F0F3
:104B6000B8CEA3CE651709F018CF03CF80912A02E3
:104B7000882309F0BACF48CF651709F08BCF61CFF2
:104B80005A83498389819A810E945627482F892F09
:104B900082958F70282F30E0223031050CF463CEDF
:104BA000243031050CF0B9CF63CE0F931F93DF9300
:104BB000CF93CDB7DEB72C970FB6F894DEBF0FBEFC
:104BC000CDBF4F83588769877A878B879C878E01F3
:104BD000095F1F4FC8010E9472238823D9F02885DE
:104BE0003F818A859B85892B09F46BC02F3F49F44F
:104BF00080E090E03F3F11F481E090E0882309F0ED
:104C000060C04F81588569857A858B859C850E9417
:104C10006F1E57C0DE011196F80186E001900D92DB
:104C20008150E1F7F981EA814C815D81411551059F
:104C300009F447C0EF3F09F04CC0FF3F09F049C0FD
:104C400040C0F983EA835D834C83F901EE0FFF1FB7
:104C5000E20FF31FEE0FFF1FE05DFD4FDE01119627
:104C600086E00D9001928150E1F760932E020E9440
:104C7000C62227C0919FC0011124805D9D4F0E94D4
:104C80007223882309F445C080912F0290E0FC0133
:104C9000EE0FFF1FE80FF91FEE0FFF1FE05DFD4F46
:104CA0004081518162817381848195810E946F1E50
:104CB00080912F0290E001968770907080932F0270
:104CC00001C016E090912F0280912E02981791F664
:104CD00020C080912E02282F30E02F5F3F4FB90176
:104CE000677070702150304080912F0290E06817FB
:104CF000790709F0A6CF0E94C61E10922E021092CC
:104D00002F02E8E2F2E086E0DF011D928A95E9F7E2
:104D1000D8CF2C960FB6F894DEBF0FBECDBFCF9183
:104D2000DF911F910F910895CF92DF92EF92FF9242
:104D30001F93CF93DF93EC01009709F466C010E056
:104D400090EAC92E9FE0D92E81E0E82EF12CFE01D9
:104D500021969491943748F4943008F044C09130EF
:104D600079F0923009F051C01BC0953709F437C073
:104D7000953750F1892F8458803708F046C037C0E6
:104D8000FE0121969491892F805E883060F597709E
:104D90008E2D01C0880F9A95EAF70E9409290FC04D
:104DA000FE0121969491892F805E883058F4977087
:104DB0008E2D01C0880F9A95EAF70E940F290E9454
:104DC0002E2919C0892F15C0FE01249104C0C601E7
:104DD0000197F1F721502223D1F721960CC0FE0153
:104DE0002196149108C0892F0E942C1F04C0892F7E
:104DF0008F770E94D91E212F04C0C6010197F1F7B9
:104E00002150222309F4A3CFF8CFDF91CF911F9136
:104E1000FF90EF90DF90CF90089508950895AF929E
:104E2000BF92DF92EF92FF920F931F93CF93DF9386
:104E30005C01E0906002F0906102009162021091CA
:104E400063028091640290916502A0916602B09124
:104E50006702E82AF92A0A2B1B2BCFE1D0E0DC2ECF
:104E6000D801C7010C2E04C0B695A79597958795D4
:104E70000A94D2F781709070892B39F08C2FB5018C
:104E80000E9472158130910531F421978FEFCF3F49
:104E9000D80729F7DD248D2DDF91CF911F910F9138
:104EA000FF90EF90DF90BF90AF9008950F931F9306
:104EB0008C010E940F27B8010E9472151F910F915B
:104EC0000895CB010E945627089560936402709361
:104ED000650280936602909367020E94B11E089556
:104EE0009B01AC0160916402709165028091660241
:104EF0009091670262277327842795270E94652770
:104F000008959B01AC0160916402709165028091EB
:104F100066029091670262237323842395230E9483
:104F2000652708959B01AC01609164027091650250
:104F30008091660290916702622B732B842B952BD4
:104F40000E946527089521E030E040E050E004C071
:104F5000220F331F441F551F8A95D2F78091640298
:104F600090916502A0916602B091670228273927C7
:104F70004A275B27CA01B9010E946527089521E0ED
:104F800030E040E050E004C0220F331F441F551FA3
:104F90008A95D2F72095309540955095809164027E
:104FA00090916502A0916602B0916702282339238F
:104FB0004A235B23CA01B9010E946527089521E0B5
:104FC00030E040E050E004C0220F331F441F551F63
:104FD0008A95D2F78091640290916502A091660251
:104FE000B0916702282B392B4A2B5B2BCA01B901E0
:104FF0000E946527089521E030E040E050E004C0C1
:10500000220F331F441F551F8A95D2F7CA01B901D9
:105010000E946527089560E070E080E090E00E94C3
:105020006527089560936002709361028093620225
:10503000909363020E94B11E08959B01AC016091A0
:105040006002709161028091620290916302622716
:105050007327842795270E94122808959B01AC018D
:10506000609160027091610280916202909163028E
:1050700062237323842395230E94122808959B01A1
:10508000AC01609160027091610280916202909126
:105090006302622B732B842B952B0E941228089598
:1050A0000E941228089580917C02859585958595AA
:1050B000089580917C028770089580917C028770AA
:1050C00009F081E00895382F809132018823E1F0C2
:1050D00080913D018823C1F0832F86958695869522
:1050E0008F3070F5E0913E01F0913F01E80FF11D26
:1050F000377081E090E002C0880F991F3A95E2F77F
:105100002181282B21830895A0913E01B0913F0178
:10511000FD0120E08FEF9281931791F08F3F19F4FA
:10512000992309F4822F2F5F31962E30A1F78F3FFC
:1051300039F0992787FD9095A80FB91F12963C93D7
:105140000895482F809132018823E9F080913D0134
:105150008823C9F0842F8695869586958F3020F513
:10516000E0913E01F0913F01E80FF11D477081E0B1
:1051700090E002C0880F991F4A95E2F7809521813F
:1051800082238183089520E030E0E0913E01F09198
:105190003F01E20FF31F8281841709F412822F5F0F
:1051A0003F4F2E30310589F7089581E090E0E0917E
:1051B0003E01F0913F01E80FF91F10820196803106
:1051C0009105A9F708958091780208959091780249
:1051D000982B909378020895809590917802982367
:1051E000909378020895809378020895109278023F
:1051F000089590917B02982B90937B02089580955F
:1052000090917B02982390937B02089510927B02E9
:10521000089590917A02982B90937A020895809540
:1052200090917A02982390937A02089510927A02CC
:105230000895809379020895109279020895E0917B
:105240003E01F0913F0120E091E0818181112F5FCB
:105250009F5F31969031C9F7822F0895E0913E010A
:10526000F0913F01809178028083E0913E01F091BE
:105270003F01808190917B02892B8083E0913E01E8
:10528000F0913F01808190917A02892B80839091E7
:105290007902992369F0E0913E01F0913F0180810C
:1052A000892B80830E941F29882311F00E941C29CA
:1052B00080913E0190913F010E94801D08952091B0
:1052C0007C02482F4095422340937C02842F8770B4
:1052D00071F430E0842F992787FD909528173907BE
:1052E00031F0842F8595859585950E94BF27089577
:1052F000982F990F990F990F962B90937C020E94EB
:10530000DF2708959C0140E005C0C90101972823CB
:1053100039234F5F21153105C1F7842F08959B0173
:10532000AC01AA27BB270097A105B10521F4DA013A
:10533000C90160E001C060E1292F3A2F4B2F5527AA
:10534000211531054105510519F49C01AD0101C03C
:10535000685FDA01C90174E0B695A79597958795BE
:105360007A95D1F70097A105B10519F4DA01C901C1
:1053700001C06C5F9C01AD01F2E0569547953795F1
:105380002795FA95D1F7211531054105510519F4F5
:105390009C01AD0101C06E5F5695479537952795E5
:1053A000211531054105510509F06F5F862F0895DC
:1053B000089508950E94C61E0E94731D0E9408163B
:1053C000089580919402843021F110927E0220E4AD
:1053D00088E190E00FB6F894A895809360000FBE26
:1053E0002093600080E00E94081683B7817F84606C
:1053F00083BF83B7816083BF7894889583B78E7F9E
:1054000083BF88E10FB6F89480936000109260002B
:105410000FBE08950E94D8290E941E0E0E94D9290D
:105420000E94C50D811181E0089582E084BD93E062
:1054300095BD9AEF97BD80936E0008958FB7F8944D
:1054400020917F023091800240918102509182022E
:105450008FBFC9010895EF92FF920F931F93BC0174
:105460008FB7F894E0907F02F09080020091810263
:10547000109182028FBFA801970140705070CB013C
:10548000A0E0B0E0281739074A075B0720F0970132
:10549000261B370B05C09B01209530952E0D3F1D17
:1054A000C9011F910F91FF90EF9008951F920F92E5
:1054B0000FB60F9211248F939F93AF93BF93809158
:1054C0007F0290918002A0918102B09182020196A8
:1054D000A11DB11D80937F0290938002A093810251
:1054E000B0938202BF91AF919F918F910F900FBEA9
:1054F0000F901F9018950E94591AF89480E29EE42C
:1055000020E931E0F9013197F1F70197D9F787E008
:1055100090EBA7E0B0EB80939E0290939F02A09344
:10552000A002B093A1022CE088E190E00FB6F894BD
:10553000A895809360000FBE20936000FFCFEF928C
:10554000FF920F931F93CF93DF93082F1DE0812FBE
:105550000E94BE0DC5E0D0E0E82EFF24C7010C2E4E
:1055600002C0959587950A94E2F780FF09C080E014
:105570006C2F712F0E943813081711F481E008C0B6
:1055800021978FEFCF3FD80749F7115000F780E000
:10559000DF91CF911F910F91FF90EF9008951F938E
:1055A000182F8CE20E949F2A882319F0812F0E94D5
:1055B0009F2A1F9108951F93CF93DF930E94492C38
:1055C000882311F40E94542C14E6C0E4DCE905C0E1
:1055D0000E941E0ECE010197F1F71150C8F789E223
:1055E0000E94CF2A882309F02FC18AE20E94CF2A85
:1055F000882311F00E94542C85E00E94CF2A882332
:1056000011F00E947B2A0E94442C80937D0287E047
:105610000E94CF2A8823B9F18BE10E94CF2A8823E8
:1056200049F090917D02892F869580958170880F31
:105630009D7F26C08EE00E94CF2A882359F090914A
:105640007D02892F8695869580958170880F880FB9
:105650009B7F16C080E10E94CF2A90917D02882313
:1056600059F0892F86958695869580958170880F4B
:10567000880F880F977F04C0892F809581709E7F47
:10568000982B90937D0280917D020E94342C0E9481
:105690003A2C80939D0280EE0E94CF2A882349F005
:1056A00080919D02982F909591708E7F892B809389
:1056B0009D0289E30E94CF2A882359F090919D0290
:1056C000892F869580958170880F9D7F982B909368
:1056D0009D0282EE0E94CF2A882369F090919D025C
:1056E000892F8695869580958170880F880F9B7F7E
:1056F000982B90939D0286EE0E94CF2A882379F002
:1057000090919D02892F86958695869580958170CA
:10571000880F880F880F977F982B90939D0283EEB8
:105720000E94CF2A882369F090919D02892F82954B
:105730008F70809581708295807F9F7E982B90934B
:105740009D0285E30E94CF2A882379F090919D02E3
:10575000892F829586958770809581708295880FB4
:10576000807E9F7D982B90939D0281E30E94CF2A9B
:10577000882389F090919D02892F82958695869540
:105780008370809581708295880F880F807C9F7BC5
:10579000982B90939D0281E10E94CF2A882379F073
:1057A00080919D02982F991F9927991F21E0922798
:1057B0009795992797958F77892B80939D02809154
:1057C0009D020E94282C80919D02881F8827881F97
:1057D00080933D0187E20E94CF2A182F8EE10E941C
:1057E000CF2A811112608FE10E94CF2A81111460AB
:1057F00080E20E94CF2A8111186081E20E94CF2AA4
:105800008111106182E20E94CF2A8111106283E22D
:105810000E94CF2A8111106484E20E94CF2A811154
:105820001068112341F0812F0E942E2C612F70E00F
:1058300080E090E007C00E943F2C90E0A0E0B0E044
:10584000BC01CD010E945028DF91CF911F91089596
:10585000682F84E090E00E94B4320895682F83E0BE
:1058600090E00E94B4320895682F82E090E00E9498
:10587000B432089584E090E00E94A632089583E057
:1058800090E00E94A632089582E090E00E94A63245
:10589000089580E090E00E94AE3220E08D5E9E4F41
:1058A00009F421E0822F089580E090E06DEE7EEF14
:1058B0000E94C63282E090E060E00E94B43283E051
:1058C00090E060E00E94B43284E090E060E00E94EA
:1058D000B43285E090E060E00E94B4320895809197
:1058E000890280FF0BC09091420185E0989FC00122
:1058F0001124959587959595879530C081FF09C0AE
:105900009091420185E0989FC0011124959587955B
:1059100025C082FF03C0909142010DC08091880292
:10592000882319F485E090E00895609143019091F7
:105930004201861728F085E0989FC00111240EC00F
:10594000899F90011124C901880F991F880F991F01
:10595000820F931F70E00E947F32CB018038910547
:1059600010F08FE70895009709F481E00895809181
:10597000890280FF05C0809144018695869518C0F4
:1059800081FF04C080914401869512C082FF03C04C
:10599000809144010DC020918802222319F481E0F6
:1059A00090E008956091450180914401261710F020
:1059B00090E007C0289FC001112470E00E947F3250
:1059C000CB018038910510F08FE70895009709F416
:1059D00081E00895803F21F40E946F2C819504C0DE
:1059E000813F29F40E946F2C809385020895823FA5
:1059F00021F40E946F2C819504C0833F29F40E94FA
:105A00006F2C809384020895893F19F40E94B72C6B
:105A100005C08A3F31F40E94B72C8195809386029D
:105A200008958B3F21F40E94B72C819504C08C3FD0
:105A300029F40E94B72C809387020895843F21F4B3
:105A400080918302816017C0853F21F48091830299
:105A5000826011C0863F21F48091830284600BC074
:105A6000873F21F480918302886005C0883F31F42C
:105A70008091830280618093830208958D3F21F499
:105A800080918902816005C08E3F31F48091890246
:105A900082608093890208958F3F29F48091890262
:105AA0008460809389020895803F29F48091850263
:105AB00087FF6FC007C0813F41F4809185021816AF
:105AC0000CF067C01092850264C0823F29F4809177
:105AD000840287FF5EC007C0833F41F48091840247
