:100000000C94FC010C942E040C9443020C944302B7
:100010000C9443020C9443020C9443020C9443024C
:100020000C9443020C9443020C943C1D0C940E1E41
:100030000C94DB130C9443020C9443020C94430283
:100040000C9443020C9443020C9443020C9443021C
:100050000C9443020C9443140C9443020C944302FA
:100060000C9443020C9443020C9443020C944302FC
:100070000C9443020C9443020C9443020C944302EC
:100080000C9443020C9443020C9443020C944302DC
:100090000C9443020C9443020C9443020C944302CC
:1000A0000C9443020C9443020C944302430545050F
:1000B0005005470549054B054D054F0552055405AB
:1000C0005605610558055A055C055E056005630522
:1000D0001E0B1E0B500B500B8A0BA80BC90CC90C26
:1000E000B30BC90C560C560CBA0CC90CC90CC30C7A
:1000F000630C630C630C630C630C630C630C630C88
:10010000630C630C630C630C630C630C630C630C77
:10011000720C800C870C8E0C980C490D490D5B0DF0
:100120005B0D520D5B0D5B0D5B0D490D490D570DC0
:100130005B0D5B0D570D7B1E9D1E901F9D1E901F1E
:10014000E21E051F901F5A1F6D1F29001E001F0071
:10015000200021002200350014001A0008001500BC
:1001600017002B0004001600070009000A00E10038
:100170001D001B00060019000500000000002B00F8
:1001800031004C41E10000000000E300E2002C00DF
:10019000E000230024002500260027002D001C007D
:1001A00018000C00120013002E000B000D000E00B2
:1001B0000F00330034001100100036003700380003
:1001C000E5002C002A412F003000000000004B61A8
:1001D0004E00E20028000000000001003A003B0051
:1001E0003C003D003E00010001004A0052004D006D
:1001F0004B0001000100500051004F004E00005C18
:1002000001000100010001000100000000000100E8
:1002100001004C41E100000000002800E2002C0039
:10022000E0003F00400041004200430044004B001A
:100230004A0052004D00010045004E0050005100A0
:100240004F0001000100B200B100B300B500010091
:10025000005C2C002A4101000100000000004B61FD
:100260004E00E200E30000000000320344006100A1
:100270006300740079006C002D004D0061006E0079
:10028000750066006F0072006D0020006B00650055
:10029000790062006F0061007200640000002A03B0
:1002A00022004200690067002000570069006C00CE
:1002B0006C007900200043006F002E002C0020000D
:1002C0004C007400640022000000040309040902C9
:1002D0005400030100A0FA09040000010301010019
:1002E0000921110100012240000705810308000ACD
:1002F000090401000103010200092111010001228A
:100300004D000705820308000A09040200010300EA
:1003100000000921110100012236000705830308AE
:10032000000A1201100100000008EDFE603001001B
:100330000102000105010980A101850216010026C4
:1003400003001A81002A8300751095018100C00501
:100350000C0901A1018503160100269C021A010067
:100360002A9C02751095018100C005010902A101B6
:100370000901A100050919012905150025019505A7
:10038000750181029501750381010501093009316B
:100390001581257F95027508810609381581257F0D
:1003A000950175088106050C0A38021581257F958F
:1003B0000175088106C0C005010906A101050719DC
:1003C000E029E71500250195087501810295017561
:1003D0000881010508190129059505750191029506
:1003E00001750391010507190029FF150026FF007B
:1003F000950675088100C00011241FBECFEFDAE01A
:10040000DEBFCDBF04B603FE27C08091FE019091F0
:10041000FF01A0910002B09101028730904BA740EC
:10042000B04BD1F41092FE011092FF011092000225
:100430001092010214BE84B7877F84BF0FB6F89470
:10044000A8958091600088618093600010926000A0
:100450000FBEE0E0F8E3099511E0A0E0B1E0E6EBC3
:10046000F2E402C005900D92A034B107D9F721E063
:10047000A0E4B1E001C01D92AE3FB207E1F70E94D7
:10048000711A0C9459210C940000CF93DF93ABE1C7
:10049000B1E041E251E061E070E08D91E82FE2953A
:1004A000EF70F0E021A18F70EB0102C0CC0FDD1FD7
:1004B0008A95E2F7CE019C2F9095922391A392A169
:1004C000892B82A34A175B0741F7DF91CF910895EB
:1004D00008950C9468020C9469020C94680280914F
:1004E000D301836088608093D3010E944502A5E117
:1004F000B1E041E050E08D91E82FE295EF70F0E03F
:1005000021A18F70BA0102C0660F771F8A95E2F7AA
:10051000CB01962F9095922391A392A1892B82A330
:1005200071E0AB31B70739F7559A209AECE4F1E066
:10053000A0E4B1E011921D9281E0E835F807D1F70F
:100540000C940A069F92AF92BF92CF92DF92EF92E5
:10055000FF920F931F93CF93DF938091010181113D
:1005600003C0C6E0D0E002C0C0E0D0E0AE01405C15
:100570005E4F7A018BE1C82E81E0D82E8A01AA2431
:10058000A394B12C25E0922EF1E2CF16F1E0DF0624
:1005900009F44AC0F60181916F01E82FE295EF70EE
:1005A000F0E021A18F70A50102C0440F551F8A956C
:1005B000E2F7CA01922F982B91A392A180958923EB
:1005C00082A350EA5A95F1F7E5E1F1E020E040E03E
:1005D00050E03191A32FA295AF70B0E090968C912E
:1005E00090E03F7002C0959587953A95E2F780FDBF
:1005F00007C0C501042E01C0880F0A94EAF702C0A3
:1006000080E090E0282B4F5F5F4F4630510509F79F
:10061000F8018081821719F02083909200010E94D6
:1006200045020F5F1F4FB0CF809100018823B1F0CA
:10063000815080930001811103C0C45BDE4F07C06D
:100640008FE99FE00197F1F700C0000007C0F701B4
:1006500091917F0199938F5F8630C9F781E0DF9197
:10066000CF911F910F91FF90EF90DF90CF90BF90AF
:10067000AF909F900895CF93DF93809101018111F6
:1006800003C0C0E0D0E002C0C6E0D0E00E94930406
:10069000009779F4C45BDE4F20E030E0F901E55AC1
:1006A000FE4F408149932F5F3F4F26303105B1F710
:1006B00002C081E090E0DF91CF910895CF930E9436
:1006C000A202C82F0E943B03892BD9F05D9880912C
:1006D00058018F5F809358018630B0F080910101FE
:1006E000811103C0E0E0F0E002C0E6E0F0E0E45B8E
:1006F000FE4F80E090E01192019686309105D9F787
:1007000003C05D9A109258010E940C068C2FCF9165
:1007100008950E94A20280910101811103C0E6E0C8
:10072000F0E002C0E0E0F0E0E45BFE4F80E090E04B
:100730002191DC01A55ABE4F2C930196863091057C
:10074000B9F70895E82FF0E0E45BFE4F808108954B
:100750000895E8EDF0E08081806180838AE18A95E8
:10076000F1F700C08091D900817008958AE090E08F
:100770000E94232191E0811101C090E0909301013A
:100780000E94A903882319F00E94210402C00E943C
:100790002504789408950E946F020E948903FDCF7A
:1007A0000E94B6030E94A903811102C00E94CB03DC
:1007B0000895509A08955098589A0895589A08950F
:1007C0000E94DB03489BFECF80E88A95F1F70895ED
:1007D0000E94DB0398E080E029B1880F2170822B12
:1007E00020E82A95F1F725E02A95F1F700009150CD
:1007F00099F708950F931F93CF93082F0E94D90361
:10080000C8E010E0C15088F0C8010C2E02C09595D8
:1008100087950A94E2F780FF03C00E94DE0301C0BF
:10082000589880E88A95F1F7EDCFCF911F910F91FD
:1008300008950E94D903589880E88A95F1F70C949E
:10084000DE030E94D9030C94DE030E94DB03E89AC6
:10085000E9E6F0E080818C7F808308951F920F92FB
:100860000FB60F921124EF92FF921F932F933F9395
:100870004F935F936F937F938F939F93AF93BF93A8
:10088000CF93DF93EF93FF930E941904C0E0D0E071
:1008900010E0CE01855A9E4F7C01FC0180810E94B0
:1008A000FA030E941904F7018081180F2196C630BF
:1008B000D10579F7812F0E94FA030E941904F0E80C
:1008C000FA95F1F780E48A95F1F70E94E8038093A6
:1008D0005A010E941904C0915A010E94E803D82FBE
:1008E0000E9419040E94DB0380915901DC1711F06A
:1008F000816001C08E7F80935901FF91EF91DF915C
:10090000CF91BF91AF919F918F917F916F915F91A7
:100910004F913F912F911F91FF90EF900F900FBE3D
:100920000F901F901895EF92FF921F93CF93DF9334
:10093000F8940E94D903589825E02A95F1F7000011
:100940000E94DB030E94DE0330E83A95F1F74899F4
:1009500030C00E94E003C0E0D0E010E00E94E80355
:10096000FE01E55AFE4F7F0180830E94E003F701FC
:100970008081180F2196C630D10581F70E94E803C7
:10098000C82F0E94E0031C1314C080915A010E94DA
:10099000FA030E94E00380915A010E94FA030E9428
:1009A000E0030E94D9030E94DE03789480E090E087
:1009B00003C0789481E090E0DF91CF911F91FF9088
:1009C000EF90089581E0089581E008950C94E40487
:1009D0000E94350D2FEF84E39CE021508040904031
:1009E000E1F700C0000087E797E790930108809344
:1009F00000080C9469140F931F93CF93DF938C011D
:100A0000FC01C081D181CE010E942C12BE010E9446
:100A10001706EC01B8010E94E604882309F4F4C02B
:100A2000B801CE010E943E08882309F4EDC0C5310B
:100A3000FCE5DF0708F07DC0C2308CE5D80708F47C
:100A400052C0F8018281882309F459C00E947613AC
:100A5000811102C00E945C130E94891390E0909360
:100A6000F0018093EF01FE01E350FC45E231F10516
:100A700030F4EA5AFF4F8091EF010C9409218091E4
:100A8000EF01816027C0826025C0846023C080613F
:100A900021C080621FC080641DC080681BC084604C
:100AA000886018C08E7F16C08D7F14C08B7F12C0E7
:100AB0008F7E10C08F7D0EC08F7B0CC08F770AC0D9
:100AC0008B7F877F07C087FB222720F991E0922741
:100AD00090FB87F98093EF018091EF010E948D13C5
:100AE0000E94350D91C0C115ECE5DE0779F0C130EB
:100AF000DC45A1F081E08093630180936401C8012B
:100B0000DF91CF911F910F910C94E204F801828143
:100B1000882309F479C00E94E80476C0F801828134
:100B2000882309F471C08091D30181608093D3013F
:100B30006BC0CD338CE5D80739F5F8018281882365
:100B400061F0109264010E940D14909362018093F1
:100B5000610180E20E94DC0A57C08091640181112A
:100B60000FC080916101909162010E941914883C2C
:100B7000910530F487E20E94BA0987E20E948D0A4B
:100B800080E20E94E30A40C0CE33ECE5DE0738F590
:100B9000CC33DC4509F0AECFF8018281882351F0D7
:100BA000109263010E940D14909362018093610181
:100BB00082E0D0CF8091630181110FC080916101EB
:100BC000909162010E941914883C910530F486E2EC
:100BD0000E94BA0986E20E948D0A82E0D2CFC03418
:100BE0008CE5D80731F4F8018281882369F080E030
:100BF00009C0C134DC4509F07DCFF801828188232A
:100C000019F082E00E94031B80E0DF91CF911F91D9
:100C10000F9108950C946B020C946D0208950C943E
:100C20000E060C940F0680E090E00895089528E4E5
:100C3000829FC0011124FC0126E0729FE00DF11D8E
:100C40001124E60FF11DEE0FFF1FE65BFE4F8591AD
:100C500094910895880F991FFC01E659FD4F8591E5
:100C6000949108950E9417060E94C107811520E4FF
:100C70009207B0F5811540E3940708F0DBC0803E91
:100C80009105D8F4803C910508F069C0883A910537
:100C900078F4853A910508F065C08130910509F432
:100CA0006FC108F426C18430910508F069C121C1E3
:100CB0008D3B910508F461C01CC18F3F910509F07F
:100CC00048F4803F910508F0AFC0883E910508F4D4
:100CD00057C10FC1811520E2920708F0A7C00895FF
:100CE000811544E59407D8F4811523E5920708F0AF
:100CF000DEC0811541E5940740F4811520E5920797
:100D000008F0A2C09F70906A0895811542E594078B
:100D100008F0B7C0982F8827816F906A08958115D1
:100D200026E5920750F4811545E5940708F0D5C0F3
:100D3000982F8827846F906A0895811528E5920777
:100D400008F4D7C0811549E5940708F4CBC09C018D
:100D500030562115304208F0CCC09F71C8C0805C6D
:100D6000910965C0853A910509F4C6C0863A910596
:100D700009F0C5C082E890E40895883A910509F425
:100D8000C1C0893A910509F4C0C08A3A910509F4B5
:100D9000BFC08B3A910509F4BEC08C3A910509F4A5
:100DA000BDC08B3B910509F4BCC08C3B910509F497
:100DB000BBC08D3A910509F4BAC0803B910509F496
:100DC000B9C08E3A910509F4B8C08F3A910509F47B
:100DD000B7C0813B910509F4B6C0823B910509F487
:100DE000B5C0833B910509F4B4C0843B910509F477
:100DF000B3C0853B910509F4B2C0863B910509F467
:100E0000B1C0873B910509F4B0C0883B910509F456
:100E1000AFC0893B910509F4AEC08A3B910509F446
:100E2000ADC080E094E40895906508959F700E949D
:100E30002A0608959C01332793FF03C0C901986CCB
:100E40000895C901906C08959C0164E0369527953A
:100E50006A95E1F7922F9370482F437021E030E0BC
:100E600002C0220F331F4A95E2F73C68392B8F707E
:100E70008695869540E2849FC0011124822B932B96
:100E800008959C012370332741E050E002C0440FD5
:100E9000551F2A95E2F7282F2695269580E2289F50
:100EA00090011124CA01822B932B9C6808959C0108
:100EB0002370332741E050E002C0440F551F2A95AC
:100EC000E2F7282F2695269580E2289F900111248D
:100ED000CA01822B932B9A6808958F719927982FB6
:100EE000882705C0982F8827806F906A08959062A0
:100EF000089580E090E0089581E890E4089583E803
:100F000090E4089582EE94E4089589EE94E40895BF
:100F10008AEE94E4089585EB94E4089586EB94E4D6
:100F2000089583EB94E4089584EB94E4089587EBAB
:100F300094E408958CEC94E408958DEC94E4089581
:100F400083E895E408958AE895E4089582E995E4B4
:100F5000089584E995E4089581E296E4089583E292
:100F600096E4089584E296E4089585E296E408956F
:100F700086E296E4089587E296E408958AE296E48C
:100F800008958238910549F1B0F48133910509F44F
:100F900059C048F48932910509F44FC08A3291054D
:100FA00009F455C008958533910509F441C089338A
:100FB000910599F00895833E910531F138F4803E12
:100FC000910591F0823E9105A9F00895863E910524
:100FD00001F1873E910539F108952091EF0120FD3F
:100FE0003BC021FD39C008958091EF0180FF34C0DE
:100FF00089E341C08091EF0182FF30C08091EF0111
:1010000084FD2EC083EE37C08091EF0182FD26C0A3
:10101000F5CF8091EF0183FF25C08091EF0184FD22
:101020001FC087EE28C08091EF0183FD1BC0F5CF64
:101030008091EF0185FD18C019C08091EF0185FDF9
:1010400015C012C08091EF0186FD12C013C08091BF
:10105000EF0186FD0FC00CC080EE0DC082EE0BC00C
:1010600080E009C086EE07C089E205C085E303C0C1
:101070008AE201C081E390E0089508950F931F93E1
:10108000CF93FB012281211102C0C1E041C08C013C
:10109000C0917201C11125C085319C45B1F70E94F4
:1010A0003D0881E0809372010E940D1490937101BC
:1010B0008093700110926501109267011092660191
:1010C000109269011092680110926B0110926A01EE
:1010D00010926D0110926C0110926F0110926E01CE
:1010E00017C080917001909171010E941914883C81
:1010F000910558F690916501E92FF0E0EE0FFF1F82
:10110000EA59FE4F118300839F5F90936501C0E011
:101110008C2FCF911F910F91089590937801809318
:1011200077010895E0917701F0917801309721F0EF
:101130000190F081E02D099480E00895E09177011D
:10114000F0917801309721F00280F381E02D09942D
:101150000895E0917701F0917801309721F00480B3
:10116000F581E02D09940895209175013091760163
:101170002817390771F09093760180937501E091FB
:101180007701F0917801309721F00680F781E02D0A
:10119000099408952091730130917401281739073B
:1011A00071F09093740180937301E0917701F09155
:1011B0007801309721F00084F185E02D099408959D
:1011C0000C94D0030E9404140E946F020C947A14B1
:1011D000BF92CF92DF92EF92FF920F931F93CF9324
:1011E000DF93CDB7DEB72A970FB6F894DEBF0FBEF8
:1011F000CDBF0E945E038AE7C82E81E0D82E00E0B2
:1012000010E0B02E802F0E94A203E82EF60121915B
:101210006F01F82EF226B1F40F5F1F4F0C3011054D
:1012200081F78FEF89838A831B820E940D1481606E
:10123000782F9D838C8349815A816B818D810E9497
:101240008C093DC08091D30181FD0E94A80380E0FC
:1012500090E02F2D30E0482FB901082E02C075957F
:1012600067950A94E2F760FF25C08E83BF8281E014
:1012700090E06C0102C0CC0CDD1C4A95E2F72E2DEB
:1012800030E02C213D21232B09F480E088870E9447
:101290000D148160782F9A8789874E815F816885D8
:1012A0008A850E948C09F801E658FE4F80818C25C2
:1012B000808305C001968630910569F6ADCF0E9406
:1012C0000D160E949208909179018917A9F00E9449
:1012D0009208809379012A960FB6F894DEBF0FBE6C
:1012E000CDBFDF91CF911F910F91FF90EF90DF90D5
:1012F000CF90BF900C9411062A960FB6F894DEBFDB
:101300000FBECDBFDF91CF911F910F91FF90EF9056
:10131000DF90CF90BF900895CF93DF93CDB7DEB726
:101320002B970FB6F894DEBF0FBECDBF4F83588703
:1013300069877A878B87DE01119686E0FD0111921D
:101340008A95E9F785E0FE01379601900D928A951E
:10135000E1F749815A816B817C818D819E810E9458
:10136000F50F2B960FB6F894DEBF0FBECDBFDF9101
:10137000CF910895CF93882309F4CDC0C82F823828
:1013800059F40E94920881FDC6C089E30E94AB1205
:101390000E942D1389E30CC0833879F40E949208CF
:1013A00080FDB9C083E50E94AB120E942D1383E536
:1013B0000E94C812CF910C942D13843859F40E94C6
:1013C000920882FDA8C087E40E94AB120E942D13F0
:1013D00087E4EECF8CEF8C0F813A48F48C2F0E947B
:1013E0003518811198C08C2F0E94AB12E3CF80E298
:1013F0008C0F883048F4C77081E001C0880FCA950F
:10140000EAF70E94E612D6CF8BE58C0F833078F492
:10141000C53A29F0C63A31F083E890E005C081E88A
:1014200090E002C082E890E0CF910C94B40888E587
:101430008C0F853108F06FC0C83A61F1C93A69F183
:10144000CA3A71F1CB3A79F1CC3A81F1CB3B89F1CF
:10145000CC3B91F1CD3A99F1C03BA1F1CE3AA9F143
:10146000CF3AB1F1C13BB9F1C23BC1F1C33BC9F1C4
:10147000C43BD1F1C53BD9F1C63BE1F1C73BE9F132
:10148000C83BF1F1C93BF9F1CA3B09F43FC080E028
:1014900090E03EC082EE90E03BC089EE90E038C024
:1014A0008AEE90E035C085EB90E032C086EB90E0AC
:1014B0002FC083EB90E02CC084EB90E029C087EB39
:1014C00090E026C08CEC90E023C08DEC90E020C032
:1014D00083E891E01DC08AE891E01AC082E991E0BA
:1014E00017C084E991E014C081E292E011C083E268
:1014F00092E00EC084E292E00BC085E292E008C068
:1015000086E292E005C087E292E002C08AE292E0C1
:10151000CF910C94CA08CF910895882309F44BC049
:10152000823859F40E94920881FF45C089E30E94E5
:10153000AB120E942D1389E30CC0833871F40E9412
:10154000920880FF38C083E50E94AB120E942D13E1
:1015500083E50E94C8120C942D13843859F40E941C
:10156000920882FF28C087E40E94AB120E942D13CC
:1015700087E4EFCF9CEF980F913A58F390E2980FE1
:10158000983050F4877091E001C0990F8A95EAF77E
:10159000892F0E94EC12DFCF9BE5980F933020F447
:1015A00080E090E00C94B408885A853120F480E003
:1015B00090E00C94CA080895882321F00E94E61256
:1015C0000C942D130895882321F00E94EC120C94A2
:1015D0002D1308958F929F92AF92BF92DF92EF9258
:1015E000FF920F931F93CF93DF937C01D62FC72FCA
:1015F000FC01058102950F70128111110E940313E5
:101600000E94A412882379F0112369F080E28D0FE3
:10161000883048F082E00E948D120E94A41291E06E
:10162000D82ED92601C0D12CEC2FE295EF708E2F49
:1016300090E0FC01E859FF4F0C9409218C2F807F2A
:10164000CF70882311F0C295C07F112399F0CC236D
:1016500009F486C180E28D0F883010F0D11104C0EA
:101660008C2F0E94E61203C08C2F0E94F6120E945B
:101670002D1376C18D2F0E948D0ACC2309F489C1C8
:1016800080E28D0F883010F0D11104C08C2F0E94A1
:10169000EC1203C08C2F0E94FC120E942D1379C102
:1016A0008C2F807FCF70803211F0C295C07FDD23F8
:1016B00019F0D13099F01CC0112341F0002311F131
:1016C0008C2F013001F50E94161363C1002319F01D
:1016D000013009F45EC10E9419131AC0112321F0D0
:1016E000063008F056C10EC0053008F052C110C0D7
:1016F000112361F0002331F0F701858180FF30C1B3
:101700008F7085838C2F0E94DC0A43C101112EC18A
:101710008C2FE5C08C2F86958695837019F08130CB
:1017200061F037C1112321F08D2F9C2F937002C0DF
:1017300080E090E00E94B4082CC1112321F08D2F8D
:101740009C2F937002C080E090E00E94CA0821C1E3
:101750008D2F112319F00E94151502C00E947D15CE
:101760000E94021616C18C2F837009F04CC0111113
:1017700010C12D2F229526952770220F220F6D2F35
:101780006F70862F90E0A0E0B0E04C015D01022E6A
:1017900004C0880C991CAA1CBB1C0A94D2F7D4FF65
:1017A00012C08FE090E0A0E0B0E004C0880F991F65
:1017B000AA1FBB1F2A95D2F7BC01CD016095709579
:1017C0008095909503C060E070E0CB01C695C6950A
:1017D000C370C23051F080F4682979298A299B2985
:1017E000C13071F00E944411D4C0682979298A2936
:1017F0009B290E945611CDC00E944411C501B4011D
:101800000E943211C6C0112319F08C2F817001C0C3
:101810008695882309F4BDC02D2F22952695277023
:10182000220F220F6D2F6F70862F90E0A0E0B0E0A6
:101830004C015D01022E04C0880C991CAA1CBB1C23
:101840000A94D2F7D4FF12C08FE090E0A0E0B0E09D
:1018500004C0880F991FAA1FBB1F2A95D2F7BC018D
:10186000CD01609570958095909503C060E070E023
:10187000CB01C695C695C370C23051F080F468297B
:1018800079298A299B29C13071F00E94071281C0F1
:10189000682979298A299B290E9419127AC00E94F5
:1018A0000712C501B4010E94F51173C08D2F90E09D
:1018B000FC01E05EF109E531F10508F04DC0E858A2
:1018C000FF4F0C940921DF708C2F8F71112321F0B1
:1018D0000E948E118D2F17CF0E94AF118D2F0E9465
:1018E000E30A57C0112341F0053008F052C08C2F95
:1018F0008F710E94D4114DC0063008F04AC0F7CF56
:10190000112339F08C2F8F710E948E1142C0112348
:10191000C9F38C2F8F710E94AF113BC0112329F0A6
:101920008C2F8F710E94791134C00E94741131C0C4
:10193000112349F0CF718C2F0E948E1163E08C2F00
:101940000E94841226C081E00E948D12023008F1AC
:1019500082E00E948D121DC0112331F0002391F20C
:101960008D2F0E94BA0915C0002399F28D2F0E9475
:101970008D0A0FC04C2F4F706D2FC7010E941306A8
:101980000E94A31006C04C2F4F706D2FC7010E94FC
:101990001606DD20E1F00E94801280FD18C0F701DC
:1019A00012820E947A120E948E11C7010E94F30CCB
:1019B0000E947A12DF91CF911F910F91FF90EF90CB
:1019C000DF90BF90AF909F908F900C94AF11DF91FC
:1019D000CF911F910F91FF90EF90DF90BF90AF904C
:1019E0009F908F9008950F931F93CF93DF93EC01F7
:1019F000988189812B813C81232B31F08F3F31F4F9
:101A000081E09F3F19F403C081E001C080E080FDC8
:101A100013C0CE010E94FB04882371F06881798194
:101A20008A810E9476128C010E942B120E94201142
:101A3000B801CE010E94EA0ADF91CF911F910F9168
:101A400008950E9403130E9413130E94D8120E944B
:101A50002D130E94B2160E94021680E090E00E94B0
:101A6000B40880E090E00C94CA080E94F3120C9431
:101A7000210D0E946B12E92FE295EF704E2F50E07E
:101A8000FA013297EE30F105B0F4E357FF4F0C94B2
:101A90000921803F91F018F4803E68F40EC0843F25
:101AA00051F40BC0803E48F0813F29F406C093FBFF
:101AB000882780F9089580E0089581E00895CF9304
:101AC000DF9300D000D01F92CDB7DEB70F900F90FC
:101AD0000F900F900F90DF91CF910895CF93DF93E8
:101AE00000D000D000D0CDB7DEB726960FB6F89460
:101AF000DEBF0FBECDBFDF91CF9108951F93CF936F
:101B0000DF93C091860116E080918701C81799F094
:101B1000D0E01C9FF0011D9FF00D1124E857FE4FEF
:101B20004081518162817381848195810E946E0D13
:101B30002196C770E9CFDF91CF911F910895409111
:101B4000B8015091B9016091BA017091BB018091C7
:101B5000BC019091BD010C946E0DCF938091BD019D
:101B600082958F7009F05FC08091BA01882309F4D3
:101B70005AC080918601B09187017091B801A091FF
:101B8000B9014091BB015091BC0191E07F3F09F048
:101B900090E0692FC6E08B1709F445C04115510547
:101BA00021F0AF3F21F020E003C021E001C0262F4B
:101BB00090E020FD35C0C89FF001C99FF00D1124B1
:101BC000E857FE4F21812A132BC02081271328C0FC
:101BD0002281211125C0238134812417350710F477
:101BE00021503109241B350B283C3105C8F42091C4
:101BF000BD012F7020612093BD0126E0289FF001D8
:101C0000299FF00D1124E357FE4F80818F70806172
:101C1000808388EB91E00E94F30CCF910C947E0DB1
:101C200001968770B8CFCF910895AF92BF92CF92AF
:101C3000DF92EF92FF920F931F93CF93DF93CDB775
:101C4000DEB761970FB6F894DEBF0FBECDBF8C0133
:101C500085E0F801DE011D9601900D928A95E1F76D
:101C6000D8014C9111965C9111971296EC9030919D
:101C7000B8016091B9018091BB019091BC010097BE
:101C800031F06F3F31F421E03F3F19F403C021E010
:101C900001C020E0B22FB170BB2E20FD64C1F8015D
:101CA000C380D480A090BA01AA2009F4C3C02091B7
:101CB000BD01C816D90628F0D601A81BB90BCD0165
:101CC00004C0809590958C0D9D1DFF24F394883C55
:101CD000910580F0F12C207F09F09CC07C2DD98AE1
:101CE000C88A6E2D89890E945F0D88EB91E00E9461
:101CF000F30CB4C0822F807F09F054C0561314C077
:101D0000431312C0FE2CE1100FC02F7020612093EE
:101D1000BD010E949F0D88EB91E00E94F30C809121
:101D2000BD01F80185834FC1CD2831F05F3F31F40B
:101D300081E04F3F19F403C081E001C080E080FDE5
:101D400003C081E08E2502C080E090E0F82FF170A2
:101D5000FF2E80FF1CC0809186012091870136E014
:101D6000821709F40DC190E0389FF001399FF00D02
:101D70001124E857FE4F6181561306C06081461357
:101D800003C06281E61203C001968770E9CFFE2C82
:101D9000EE2009F418C18091BD0181608093BD01DE
:101DA000F12C11C1561309C0431307C0E11005C03F
:101DB0008091BD01F8018583B0C04D875E878D8518
:101DC0009E850E94390D882379F1EE2069F12091DA
:101DD000BD01822F82958F7090E0029774F0809100
:101DE000B8019091B90198878F831986DB86CA86DE
:101DF0002C87CE0107960E94F30C86E0F801A8EB31
:101E0000B1E001900D928A95E1F70E94AD0D0E941C
:101E10009F0D0DC0561761F14D875E878D859E859C
:101E20000E94390D811138C0C8010E94F30CFF24B3
:101E3000F394C9C0C816D90608F446C0F601E81BD9
:101E4000F90BCF01883C910508F443C0F12C7C2D9F
:101E5000D98AC88A6E2D89890E945F0DE8EBF1E06E
:101E600086E0DF011D928A95E9F70E949F0DABC0C5
:101E70004313D2CFE110D0CF8091BD01F80185830B
:101E8000C8010E94F30C86E0E8EBF1E0DF011D924F
:101E90008A95E9F7FA2C97C0EE2031F22091BD0126
:101EA000822F82958F7090E002970CF4A6CF8091DC
:101EB000B8019091B9019A8389831B82DD82CC821B
:101EC0002E83CE01019697CF809590958C0D9D1D08
:101ED000B9CFFE2CEE2009F4A7CF561333C043131D
:101EE00031C02091BD0120FD24C0822F82958F70CA
:101EF000482F50E041155105E1F0D80115962C937B
:101F000015974F30510549F08F5F982F9295907F2C
:101F1000822F8F70892B15968C93C8010E94F30C29
:101F200086E0F801A8EBB1E001900D928A95E1F707
:101F30009CCF86E0F801A8EBB1E001900D928A9564
:101F4000E1F741C04D875E878D859E850E94390DE2
:101F5000811153CF8091BD0181608093BD01C80183
:101F60000E94F30C30C0EE2009F45ECF4D875E87EF
:101F70008D859E850E94390D882309F455CF3DCF6C
:101F80004D875E878D859E850E946B12292F229535
:101F90002F70223028F49F7039F0811105C00BC0DA
:101FA000243028F49F7049F4805E883020F0C80106
:101FB0000E94F30CBF2CFB2C06C0D80115969C91F7
:101FC000907F91F7F8CF8F2D61960FB6F894DEBF12
:101FD0000FBECDBFDF91CF911F910F91FF90EF907A
:101FE000DF90CF90BF90AF9008951F93CF93DF9372
:101FF000CDB7DEB72C970FB6F894DEBF0FBECDBFBE
:102000004F83588769877A878B879C87CE0107968D
:102010000E94150E8823D1F09F8188852A853B85F3
:10202000232B31F08F3F31F481E09F3F19F403C03F
:1020300081E001C080E080FD47C04F8158856985FF
:102040007A858B859C850E946E0D3EC086E0FE01E0
:102050003796DE01119601900D928A95E1F7FF8186
:10206000E8856A857B856115710531F0EF3F31F4B4
:1020700081E0FF3F19F403C081E001C080E080FDF2
:1020800023C02091870130E0C9010196877099270C
:102090004091860150E084179507F1F1F983EA83B6
:1020A0007D836C8396E0929FD001939FB00D1124A5
:1020B000A857BE4FFE01319601900D929A95E1F717
:1020C000809387010E947E0D16E080918601909199
:1020D0008701891771F1189FC001112488579E4FFD
:1020E0000E94150E882329F1E09186011E9FF001C0
:1020F0001124E857FE4F40815181628173818481B0
:1021000095810E946E0D8091860190E00196877006
:10211000992780938601D9CF0E94350D10928701AF
:1021200010928601E8EBF1E086E0DF011D928A95CE
:10213000E9F72C960FB6F894DEBF0FBECDBFDF9146
:10214000CF911F910895EF92FF920F931F93CF931A
:10215000DF938C01892B09F46CC0F12CEE24E394FD
:10216000E8012196F8018491843740F4843008F026
:1021700051C0813081F0823019F15BC0853709F49C
:1021800044C0A8F19CE7980F903708F052C08F77B1
:102190000E948D0A41C00E5F1F4FFE01849190E2A4
:1021A000980F983050F48770FE2D01C0FF0F8A956C
:1021B000EAF78F2F0E94061314C00E94BA092DC09F
:1021C0000E5F1F4FFE01849190E2980F983060F4EB
:1021D0008770FE2D01C0FF0F8A95EAF78F2F0E94AE
:1021E0000C130E942D1319C00E948D0A16C00E5F99
:1021F0001F4FFE01C491CC2381F08FE99FE001972E
:10220000F1F700C00000C150F6CF0E5F1F4FFE0176
:10221000F49003C00E94BA098E018F2D882309F41F
:102220009FCFEFE9FFE03197F1F700C00000815048
:10223000F5CFDF91CF911F910F91FF90EF9008950F
:10224000089508950C9421110E9422116093C201F7
:102250007093C3018093C4019093C5010C94210D28
:102260000C9424110F931F930091C2011091C3018C
:102270002091C4013091C501602B712B822B932BCF
:102280001F910F910C9424110F931F930091C20181
:102290001091C3012091C4013091C50160237123C5
:1022A000822393231F910F910C9424110F931F935A
:1022B0000091C2011091C3012091C4013091C50168
:1022C00060277127822793271F910F910C94241167
:1022D0000E9421116093BE017093BF018093C001E1
:1022E0009093C1010C94210D60E070E0CB010C943F
:1022F00068110F931F9341E050E060E070E08A01A5
:102300009B0104C0000F111F221F331F8A95D2F7B3
:10231000C901B8011F910F910C9468110F931F937D
:1023200041E050E060E070E004C0440F551F661FBC
:10233000771F8A95D2F78091BE019091BF01A0913D
:10234000C001B091C1018A019B01082B192B2A2BD6
:102350003B2BC901B8011F910F910C9468110F9389
:102360001F9341E050E060E070E004C0440F551F4F
:10237000661F771F8A95D2F74095509560957095A6
:102380008091BE019091BF01A091C001B091C101A7
:102390008A019B01082319232A233B23C901B80181
:1023A0001F910F910C9468110F931F9341E050E01F
:1023B00060E070E004C0440F551F661F771F8A95C8
:1023C000D2F78091BE019091BF01A091C001B09160
:1023D000C1018A019B01082719272A273B27C90128
:1023E000B8011F910F910C9468110F931F930091E6
:1023F000BE011091BF012091C0013091C101602B3D
:10240000712B822B932B1F910F910C9468110F93BA
:102410001F930091BE011091BF012091C001309126
:10242000C10160237123822393231F910F910C9488
:1024300068110F931F930091BE011091BF0120916D
:10244000C0013091C10160277127822793271F9116
:102450000F910C9468110895CF92DF92EF92FF9242
:102460000F931F93CF93DF938C01C090BE01D09048
:10247000BF01E090C001F090C1018091C201909134
:10248000C301A091C401B091C501C82AD92AEA2A82
:10249000FB2ACFE1D0E0D701C6010C2E04C0B695CF
:1024A000A795979587950A94D2F780FD04C0219748
:1024B00090F780E007C0B8018C2F0E943206019788
:1024C000B1F38C2FDF91CF911F910F91FF90EF907F
:1024D000DF90CF900895CF93DF93EC010E942C12F0
:1024E000BE010E943206DF91CF910895CB010E9478
:1024F0006B1208958091C6018595859585950895FF
:102500008091C6018770089598E0899F90011124F9
:10251000262B2093C6010C948E112091C601809524
:1025200082238093C601982F977069F430E0482F7A
:10253000082E000C550B2417350729F08595859535
:1025400085950C94AF1108959091C601977081E024
:1025500009F480E008952091020130910301F9010E
:1025600032969FEF40E05191851789F09F3F19F413
:10257000511101C0942F4F5F4630A9F79F3F39F0AA
:10258000F901E90FF11D97FDFA95828308950895E9
:10259000E0910201F09103019F012A5F3F4F928178
:1025A000891301C012823196E217F307C1F708952B
:1025B00081E090E0E0910201F0910301E80FF91F42
:1025C0001082019688309105A9F708959091D20163
:1025D000892B8093D201089580959091D20189230F
:1025E0008093D20108951092D20108959091D10163
:1025F000892B8093D101089580959091D1018923F1
:102600008093D10108951092D10108959091D00145
:10261000892B8093D001089580959091D0018923D2
:102620008093D00108951092D00108958093C7013E
:1026300008951092C70108958091020190910301BD
:10264000FC0131969C01285F3F4F80E091919111F0
:102650008F5FE217F307D1F70895E0910201F0913F
:1026600003018091D2018083E0910201F091030186
:1026700090818091D101892B8083E0910201F091BA
:10268000030190818091D001892B80838091C701C3
:10269000882361F0E0910201F09103019081892B80
:1026A00080830E941C1381111092C7018091020146
:1026B000909103010C949E086DEE7EEF80E090E017
:1026C0000E94432160E082E090E00E94312160E0BE
:1026D00083E090E00E94312160E084E090E00E947D
:1026E000312160E085E090E00C94312180E090E0C1
:1026F0000E942B2121E08D3E9E4F09F020E0822F89
:10270000089582E090E00C94232183E090E00C9403
:10271000232184E090E00C942321682F84E090E052
:102720000C9431218091F501843039F11092D4015B
:1027300020E488E190E00FB6F894A89580936000BB
:102740000FBE2093600080E00E94110683B7817F56
:10275000846083BF83B7816083BF7894889583B793
:102760008E7F83BF0FB6F894A89580916000886132
:1027700080936000109260000FBE089508950C943D
:10278000BE13CF930E94BF130E945E030E94BE132C
:10279000C0E08C2F0E94A203811104C0CF5FCC3017
:1027A000C1F701C081E0CF9108950E94350D0E94CC
:1027B00092080C9411061F920F920FB60F921124DB
:1027C0008F939F93AF93BF938091D401811113C0D6
:1027D0008091EB019091EC01A091ED01B091EE019F
:1027E0004196A11DB11D8093EB019093EC01A09344
:1027F000ED01B093EE01BF91AF919F918F910F903A
:102800000FBE0F901F90189582E084BD93E095BD98
:102810009AEF97BD80936E0008952FB7F89480913A
:10282000EB019091EC01A091ED01B091EE012FBF71
:102830000895CF92DF92EF92FF920F931F932FB7DD
:10284000F8944091EB015091EC016091ED01709191
:10285000EE012FBF6A017B01EE24FF248C0120E0F2
:1028600030E0C016D106E206F30610F441505109DB
:102870009A01281B390BC9011F910F91FF90EF900E
:10288000DF90CF90089578941F920F920FB60F9219
:1028900011248F939F93AF93BF938091EB019091FD
:1028A000EC01A091ED01B091EE010196A11DB11DC9
:1028B0008093EB019093EC01A093ED01B093EE01B6
:1028C000BF91AF919F918F910F900FBE0F901F906E
:1028D000189587E797E790930108809300089AE09E
:1028E00088E10FB6F894A895809360000FBE90938E
:1028F0006000FFCF0E947613811102C00E945C131A
:102900000E9481138093D3010E94891390E09093D9
:10291000F0018093EF010E948513682F70E080E042
:1029200090E00C9430118091D70180FF0BC0609132
:10293000070185E0689FB00111247595679575952D
:1029400067952BC081FF09C06091070185E0689FF2
:10295000B00111247595679520C082FF07C0609172
:10296000070185E0689FB001112417C09091D8013C
:102970009923D1F060910601961788F720910701FD
:1029800085E0289F90011124929FA001939F500DF4
:10299000112470E0CA010E94F5206038710540F4EE
:1029A0006115710519F406C065E070E0862F089581
:1029B0008FE7089581E008958091D70180FF08C0D6
:1029C0006091050170E0759567957595679521C0D3
:1029D00081FF06C06091050170E07595679519C08B
:1029E00082FF04C06091050170E010C09091D80191
:1029F000992399F0609104019617A0F78091050141
:102A0000899FC001112470E00E94F5206038710593
:102A100040F46115710519F406C061E070E0862F7D
:102A200008958FE7089581E00895803F21F40E9482
:102A30009314819504C0813F29F40E9493148093DC
:102A4000DB010895823F21F40E949314819504C014
:102A5000833F29F40E9493148093DA010895893FFB
:102A600019F40E94DC1405C08A3F31F40E94DC1482
:102A700081958093DC0108958B3F21F40E94DC1442
:102A8000819504C08C3F29F40E94DC148093DD0101
:102A90000895843F21F48091D901816017C0853F5A
:102AA00021F48091D901826011C0863F21F4809188
:102AB000D90184600BC0873F21F48091D9018860DF
:102AC00005C0883F31F48091D90180618093D9019C
:102AD00008958D3F21F48091D70181600BC08E3F16
:102AE00021F48091D701826005C08F3F29F4809145
:102AF000D70184608093D7010895803F39F4809195
:102B0000DB0187FF6CC01092DB0169C0813F29F4B3
:102B10008091DB011816BCF362C09091DA01823F0C
:102B200029F497FF5CC01092DA0159C0833F19F471
:102B30001916CCF354C0893F41F48091DC0118167A
:102B40000CF04DC01092DC014AC08A3F29F48091FC
:102B5000DC0187FF44C0F6CF8B3F39F48091DD0163
:102B600087FF3DC01092DD013AC08C3F29F480916F
:102B7000DD011816BCF333C0843F21F48091D901E4
:102B80008E7F17C0853F21F48091D9018D7F11C0C0
:102B9000863F21F48091D9018B7F0BC0873F21F4C0
:102BA0008091D901877F05C0883F31F48091D90198
:102BB0008F7E8093D90113C08D3F21F48091D7017E
:102BC0008E7F0BC08E3F21F48091D7018D7F05C091
:102BD0008F3F29F48091D7018B7F8093D70180911B
:102BE000DA0181110EC08091DB0181110AC0809150
:102BF000DC01811106C08091DD01811102C01092BB
:102C0000D801089589ED91E00E94A9080E940D1451
:102C10009093D6018093D50108951F93CF93DF93AE
:102C20008091D5019091D6010E941914AC01909128
:102C3000D801992321F02091080130E006C02091AD
:102C400009018AE0289F900111244217530708F4D4
:102C500085C08091DA01C091DB01D091DC01109137
:102C6000DD01811107C0C11175C0D11173C01111EF
:102C700071C074C09F3F19F09F5F9093D8011816E0
:102C800024F40E9493148093DA018091DA0187FF83
:102C900005C00E94931481958093DA011C1624F4D8
:102CA0000E9493148093DB018091DB0187FF05C0B4
:102CB0000E94931481958093DB016091DA01662371
:102CC00031F1C091DB01CC2311F1062E000C770B02
:102CD000880B990B0E94FC1F23E333E343E35FE37C
:102CE0000E9460200E94C41F6093DA016C2FCC0FF9
:102CF000770B880B990B0E94FC1F23E333E343E31C
:102D00005FE30E9460200E94C41F6093DB011D16D8
:102D100024F40E94DC148093DC018091DC0187FFA5
:102D200005C00E94DC1481958093DC01111624F407
:102D30000E94DC148093DD018091DD0187FF05C0D6
:102D40000E94DC1481958093DD01DF91CF911F916A
:102D50000C9402169F3F09F08FCFA0CFDF91CF9147
:102D60001F910895E9EDF1E085E0DF011D928A955C
:102D7000E9F71092D8011092D7010895833081F1BC
:102D800028F4813059F08230D1F00895853009F46B
:102D900049C0B8F1863009F456C008958091090100
:102DA000262F30E0280F311D2F3F310524F4680F06
:102DB0006093090108958FEF809309010895809130
:102DC0000801262F30E0280F311D2F3F310524F454
:102DD000680F6093080108958FEF809308010895AC
:102DE00080910701262F30E0280F311D2F3F31053C
:102DF00024F4680F6093070108958FEF8093070113
:102E0000089580910601262F30E0280F311D2F3FB5
:102E1000310524F4680F6093060108958FEF8093C5
:102E20000601089580910501262F30E0280F311DFD
:102E30002F3F310524F4680F6093050108958FEF4B
:102E400080930501089580910401262F30E0280F1A
:102E5000311D2F3F310524F4680F6093040108955C
:102E60008FEF809304010895833011F128F48130AD
:102E700049F0823091F00895853081F120F186305B
:102E8000C1F1089580910901681720F4861B809391
:102E900009010895109209010895809108016817A9
:102EA00020F4861B8093080108951092080108956C
:102EB00080910701681720F4861B8093070108950D
:102EC00010920701089580910601681720F4861B6F
:102ED00080930601089510920601089580910501DE
:102EE000681720F4861B8093050108951092050150
:102EF000089580910401681720F4861B80930401D3
:102F000008951092040108950F931F9341E050E03B
:102F100060E070E08A019B0104C0000F111F221FB6
:102F2000331F8A95D2F7C901B8010E9430111F9151
:102F30000F910C94350D8732D8F58E3108F07DC095
:102F40008E3009F467C098F4873009F455C08B308F
:102F500009F476C0863009F077C08091D301817F73
:102F60008E7F8093D30181E08093DF0108958631C5
:102F700009F466C068F4803109F066C08091D3011D
:102F800083FB222720F991E0922790FB83F94BC025
:102F9000893109F455C08B3109F056C08091D301B5
:102FA00081FB222720F991E0922790FB81F93BC019
:102FB000883309F445C048F4893209F443C08533A5
:102FC00009F440C08732F1F13FC08334D9F120F4D5
:102FD0008A33D0F1895332C08834B1F50E94350D5F
:102FE0002FEF83ED90E3215080409040E1F700C047
:102FF00000000E94691424C08091D301982F9095FD
:10300000917090FB80F98093D301911119C0897F51
:10301000877F10C08091D30182FB222720F991E0A5
:10302000922790FB82F98093D301992349F08091F4
:10303000D30181608093D30103C08D510E94841716
:1030400081E0089580E0FACF80E0089580E008955F
:103050000C9426188E518A3030F4E82FF0E0E95DA8
:10306000FE4F8081089580E00895CF93C82F80910E
:10307000DF01813069F018F08230C9F183C0E0913E
:103080000201F09103018081823209F07DC007C006
:10309000E0910201F09103018081823261F48C2F72
:1030A0000E942818811104C08C2F0E949B171DC0FC
:1030B00081E090E01AC08C2F0E942618811114C064
:1030C000C43179F048F4CB3079F0C03109F060C0F8
:1030D00082E08093DF0108C0C93219F0C83321F0C3
:1030E00057C01092DF0154C081E0817053C0C932D3
:1030F00089F118F5C43171F1B0F4C73009F046C058
:103100008EE18093090182E3809308018AE0809335
:10311000070184E18093060188E08093050188E23D
:103120008093040133C082EE8C0F863078F58C2FAB
:103130000E942A188093DE0129C0CE34E9F020F4E1
:10314000CB3421F56AE013C0C13579F0C235F1F412
:1031500061E00DC08091DE01882319F01092DE013C
:1031600015C081E08093DF0115C061E006C0809149
:10317000DE010E94BE160AC06AE08091DE010E9454
:10318000341704C01092DF0180E004C081E002C067
:1031900080E0ABCFCF9108958091E80108950F931F
:1031A0001F93CF93DF9300D01F92CDB7DEB78C0172
:1031B0000E94131B823011F0853019F583E089835A
:1031C0001B830A838093E9008FEF9091E800815080
:1031D00095FD06C095ED9A95F1F700008111F5CFA8
:1031E0008091E80085FF0DC040E050E063E070E0B2
:1031F000CE0101960E94301B8091E8008E7780936B
:10320000E8000F900F900F90DF91CF911F910F91D9
:103210000895CF93DF9300D01F92CDB7DEB72091F2
:10322000F501243031F522E02983805891099B83F0
:103230008A8383E08093E9008FEF9091E8008150CA
:1032400095FD06C095ED9A95F1F700008111F5CF37
:103250008091E80085FF0DC040E050E063E070E041
:10326000CE0101960E94301B8091E8008E778093FA
:10327000E8000F900F900F90DF91CF910895CF93BA
:10328000DF93EC010E94131B823011F08530F9F4BA
:1032900082E08093E9008FEF9091E800815095FDE6
:1032A00006C095ED9A95F1F700008111F5CF809158
:1032B000E80085FF0CC040E050E065E070E0CE0122
:1032C0000E94301B8091E8008E778093E800DF91A8
:1032D000CF910895CF93DF93EC010E94131B8230AE
:1032E00011F0853039F581E08093E9008FEF9091FE
:1032F000E800815095FD06C095ED9A95F1F7000024
:103300008111F5CF8091E80085FF14C040E050E0C6
:1033100068E070E0CE010E94301B8091E8008E775B
:103320008093E80088E0FE01A0EEB1E001900D92EC
:103330008A95E1F7DF91CF9108958091F401811191
:1033400009C00E94C11C0E941E1D8091E200846081
:103350008093E20008951092F4010895089508956D
:103360000C94D51342E061EC81E00E943A1C42E0EB
:1033700061EC82E00E943A1C42E061EC83E00C9434
:103380003A1C8091F701833009F453C030F4813046
:1033900071F0823009F48CC008958A3009F478C045
:1033A0008B3009F45EC0893009F09AC020C080914A
:1033B000F601813A09F094C08091E800877F8093FC
:1033C000E8008091FA019091FB01892B21F468E0DB
:1033D00080EE91E003C060E080E090E070E00E9449
:1033E0007B1B8091E8008B778093E80008958091A3
:1033F000F601813209F074C08091FA019091FB01CD
:10340000892B09F06DC08091E800877F8093E800E8
:103410008091E80082FD05C08091F5018111F8CF0F
:103420005FC08091F1008093E8018091E8008B7784
:1034300053C08091F601813A09F052C08091FA019F
:103440009091FB01892B09F04BC08091E800877FA8
:103450008093E8008091E80080FFFCCF8091140108
:1034600036C08091F6018132D9F58091FA019091B0
:10347000FB01892BA9F58091E800877F8093E80004
:103480000E946F1C8091F801809314010C94350DFB
:103490008091F601813221F58091E800877F809349
:1034A000E8000E946F1C8091F9018093E901089562
:1034B0008091F601813AA1F48091E800877F8093A2
:1034C000E8008091E80080FFFCCF8091E9018093C3
:1034D000F1008091E8008E778093E8000C946F1CD7
:1034E000089584B7877F84BF0FB6F894A89580911C
:1034F0006000886180936000109260000FBE80E8D9
:1035000080936100109261000E94E0080E94C11C3B
:103510000E941E1D8091E20084608093E2007894F6
:103520000E94A91F0E94E2088AE091E00E948D0893
:103530008091F501853069F40E9492138091F30126
:103540008823B1F30E94C113882391F30E941A1BB0
:10355000EFCF0E94E808ECCF292F33272330310525
:10356000C9F060F42130310581F02230310509F0D5
:1035700041C084E590E02EEC32E040C021323105BC
:10358000E1F02232310531F135C082E190E022E2F2
:1035900033E034C099278130910549F028F0029733
:1035A00049F5EAE6F2E005C0EAECF2E002C0EEE935
:1035B000F2E0849190E09F0121C06330D8F4E62FBF
:1035C000F0E0EE0FFF1FE65CFE4F2081318189E0C5
:1035D00090E014C0633070F470E0FB01EE0FFF1F49
:1035E000EC5CFE4F20813181FB01EF5CFE4F80815E
:1035F00090E004C080E090E020E030E0FA01318308
:10360000208308950895CF93C82F0E94021BC09372
:10361000EA01CF9108958091F501843011F081E0A5
:10362000089582E008958091EA01811102C00C940E
:103630000B1B089580E189BD82E189BD09B400FEBC
:10364000FDCF8091D8008F7D8093D8008091E000DD
:1036500082608093E0008091E00081FDFCCF0895BE
:10366000CF92DF92EF92FF920F931F93CF93DF934E
:10367000EC018B017A010E948E1C811133C0E11490
:10368000F10439F0F70180819181081B190BC80FF3
:10369000D91FC12CD12C0115110519F18091E80019
:1036A00085FD16C08091E8008E778093E800E114D4
:1036B000F10449F0F70180819181C80ED91ED182B1
:1036C000C08285E00FC00E948E1C882321F30AC0AF
:1036D00089918093F10001501109FFEFCF1ADF0AA1
:1036E000DACF80E0DF91CF911F910F91FF90EF90A3
:1036F000DF90CF9008952091FC013091FD012617B5
:10370000370748F06115710539F42091E8002E77EC
:103710002093E80001C0B901FC0120E061157105AA
:1037200079F18091F5018823F1F18530F1F18091F3
:10373000E80083FD3CC08091E80082FD2EC08091AE
:10374000E80080FFEBCF2091F3008091F20090E041
:10375000922B6115710551F08830910538F4219153
:103760002093F100615071090196F3CF21E0089791
:1037700009F020E08091E8008E778093E800CECFBA
:103780002111CFCF0AC08091F501882361F08530E7
:1037900061F08091E80083FD0AC08091E80082FF1B
:1037A000F2CF80E0089582E0089583E0089581E0FB
:1037B00008952091FC013091FD012617370748F04C
:1037C0006115710539F42091E8002E772093E80007
:1037D00001C0B901FC0120E06115710591F18091F2
:1037E000F501882309F440C0853009F43FC0809179
:1037F000E80083FD3DC08091E80082FD2FC08091EC
:10380000E80080FFE9CF2091F3008091F20090E082
:10381000922B6115710559F08830910540F424917F
:103820002093F1003196615071090196F2CF21E0A9
:10383000089709F020E08091E8008E778093E800F7
:10384000CBCF2111CCCF0AC08091F501882361F044
:10385000853061F08091E80083FD0AC08091E80026
:1038600082FFF2CF80E0089582E0089583E008951A
:1038700081E00895982F973068F59093E9009817A4
:1038800039F07091EC002091ED005091F00003C0F0
:10389000242F762F50E021FD02C09F5FECCF3091A6
:1038A000EB003E7F3093EB003091ED003D7F309395
:1038B000ED003091EB0031603093EB007093EC0041
:1038C0002093ED005093F0002091EE0027FDE5CF0E
:1038D00080E008958F708093E90081E008958091E1
:1038E000F60187FF11C08091E80082FD05C080913C
:1038F000F5018111F8CF11C08091E8008B770BC0E2
:103900008091F501882349F08091E80080FFF8CF8D
:103910008091E8008E778093E80008952091E4007C
:103920003091E50095E64091EC00842F817040FFD6
:1039300023C08091E80080FD1DC08091F50188239F
:1039400099F0853099F08091EB0085FD11C0409190
:10395000E4005091E5002417350729F3915011F048
:103960009A01E1CF84E0089582E0089583E008950C
:1039700081E0089580E008954091E80042FFDDCFA6
:1039800008950E942F1D0E94371DE0EEF0E0808117
:1039900081608083E8EDF0E080818F77808319BCBF
:1039A000A7EDB0E08C918E7F8C9380818F7E808399
:1039B0001092F40108950F931F93CF93DF930E9409
:1039C0002F1D0E94371DC8EDD0E088818F77888336
:1039D00088818068888388818F7D888319BC109254
:1039E000F5011092F1011092F3011092F20100EE34
:1039F00010E0F80180818B7F8083888181608883DB
:103A000042E060E080E00E943A1CE1EEF0E080815C
:103A10008E7F8083E2EEF0E0808181608083808110
:103A200088608083F80180818E7F808388818061B7
:103A30008883DF91CF911F910F910895E8EDF0E019
:103A400080818F7E8083E7EDF0E0808181608083DC
:103A500084E082BF81E08093F4010C94DB1CE8EDEC
:103A6000F0E080818E7F80831092E20008951092B2
:103A7000DA001092E10008951F920F920FB60F9294
:103A800011242F933F934F935F936F937F938F9363
:103A90009F93AF93BF93EF93FF938091E10082FFD9
:103AA0000BC08091E20082FF07C08091E1008B7F14
:103AB0008093E1000E94A81F8091DA0080FF1FC060
:103AC0008091D80080FF1BC08091DA008E7F8093A8
:103AD000DA008091D90080FF0DC080E189BD82E1CC
:103AE00089BD09B400FEFDCF81E08093F5010E94FD
:103AF0009D1905C019BC1092F5010E94AB19809167
:103B0000E10080FF19C08091E20080FF15C0809124
:103B1000E2008E7F8093E2008091E20080618093DA
:103B2000E2008091D80080628093D80019BC85E0C3
:103B30008093F5010E94AF198091E10084FF30C0AD
:103B40008091E20084FF2CC080E189BD82E189BDC3
:103B500009B400FEFDCF8091D8008F7D8093D800FE
:103B60008091E1008F7E8093E1008091E2008F7E62
:103B70008093E2008091E20081608093E200809176
:103B8000F101882311F084E007C08091E30087FDF4
:103B900002C081E001C083E08093F5010E94B0196A
:103BA0008091E10083FF29C08091E20083FF25C05E
:103BB0008091E100877F8093E10082E08093F501AE
:103BC0001092F1018091E1008E7F8093E10080915D
:103BD000E2008E7F8093E2008091E200806180931A
:103BE000E20042E060E080E00E943A1C8091F00038
:103BF00088608093F0000E94AE19FF91EF91BF9111
:103C0000AF919F918F917F916F915F914F913F9174
:103C10002F910F900FBE0F901F9018951F920F922B
:103C20000FB60F9211242F933F934F935F936F938F
:103C30007F938F939F93AF93BF93CF93DF93EF9334
:103C4000FF93C091E900CF708091EC00D82FD17024
:103C500080FDD0E81092E9008091F000877F80938A
:103C6000F00078940E94521E1092E9008091F000BA
:103C700088608093F000CD2BCF70C093E900FF9156
:103C8000EF91DF91CF91BF91AF919F918F917F91F4
:103C90006F915F914F913F912F910F900FBE0F90B9
:103CA0001F9018951F93CF93DF93CDB7DEB7AA97D8
:103CB0000FB6F894DEBF0FBECDBFE6EFF1E0809106
:103CC000F100819321E0EE3FF207C9F70E94C1198C
:103CD0008091E80083FF24C18091F6019091F70163
:103CE000492F50E04A30510508F01AC1FA01E55653
:103CF000FF4F0C940921803881F0823809F010C1FF
:103D00008091FA018F708093E9008091EB0085FB30
:103D1000882780F91092E90006C08091F201909105
:103D2000F301911182609091E800977F9093E800F1
:103D30008093F1001092F100C8C0282F2D7F09F068
:103D4000EFC0882319F0823061F0EAC08091F80159
:103D5000813009F0E5C0933009F080E08093F301F1
:103D60002BC08091F801811127C08091FA018F70DA
:103D700009F4D6C08093E9002091EB0020FF1CC01D
:103D8000933021F48091EB00806214C09091EB009D
:103D900090619093EB0021E030E0A90102C0440F54
:103DA000551F8A95E2F74093EA001092EA0080914D
:103DB000EB0088608093EB001092E9008091E800AE
:103DC000877F86C08111ACC01091F8011F77809168
:103DD000E3008078812B8093E3008091E800877F67
:103DE0008093E8000E946F1C8091E80080FFFCCF68
:103DF0008091E30080688093E300111102C082E0AB
:103E000001C083E08093F5018BC08058823008F0B8
:103E100087C08091F8019091F9018C3D53E095079E
:103E200079F583E08A838AE289834FB7F894DE01CB
:103E3000139620E03EE051E2E32FF0E0509357006C
:103E4000E49120FF03C0E295EF703F5FEF708E2F8B
:103E500090E0EA3010F0C79601C0C0968D939D9314
:103E60002F5F243149F74FBF8091E800877F80930F
:103E7000E8006AE270E0CE0101960E947B1B14C04C
:103E8000AE014F5F5F4F6091FA010E94AC1ABC0116
:103E9000892B09F445C09091E800977F9093E80042
:103EA00089819A810E94D91B8091E8008B77809349
:103EB000E80036C08038A1F58091E800877F8093C4
:103EC000E8008091F1018093F1008091E8008E7705
:103ED0008093E8000E946F1C23C0811121C0809153
:103EE000F8019091F90199270297D4F48091E800A4
:103EF000877F8093E8008091F8018093F1010E9410
:103F00006F1C8091F101811106C08091E30087FD53
:103F100002C081E001C084E08093F5010E94B219E3
:103F20008091E80083FF0AC08091E800877F80933A
:103F3000E8008091EB0080628093EB00AA960FB6B8
:103F4000F894DEBF0FBECDBFDF91CF911F910895D2
:103F50000895CF938091F5018823A1F0C091E900E5
:103F6000CF709091EC00892F817090FD80E8C82B74
:103F70001092E9008091E80083FD0E94521ECF70EC
:103F8000C093E900CF9108950E94CB1F6894B111AE
:103F90000C945A2008950E943F2088F09F5798F073
:103FA000B92F9927B751B0F0E1F0660F771F881F3E
:103FB000991F1AF0BA95C9F714C0B13091F00E9458
:103FC0005920B1E008950C945920672F782F882745
:103FD000B85F39F0B93FCCF3869577956795B3957F
:103FE000D9F73EF490958095709561957F4F8F4FEE
:103FF0009F4F0895E89409C097FB3EF490958095F3
:10400000709561957F4F8F4F9F4F9923A9F0F92F9E
:1040100096E9BB279395F695879577956795B7951C
:10402000F111F8CFFAF4BB0F11F460FF1BC06F5F02
:104030007F4F8F4F9F4F16C0882311F096E911C014
:10404000772321F09EE8872F762F05C0662371F035
:1040500096E8862F70E060E02AF09A95660F771F49
:10406000881FDAF7880F9695879597F9089557FD79
:104070009058440F551F59F05F3F71F04795880FD6
:1040800097FB991F61F09F3F79F08795089512166D
:1040900013061406551FF2CF4695F1DF08C0161619
:1040A00017061806991FF1CF8695710561050894CA
:1040B0000895E894BB2766277727CB0197F90895E1
:1040C0000E9473200C94E4200E94D62038F00E94B5
:1040D000DD2020F0952311F00C94CD200C94D320FA
:1040E00011240C945A200E94372070F3959FC1F33D
:1040F000950F50E0551F629FF001729FBB27F00D96
:10410000B11D639FAA27F00DB11DAA1F649F6627EA
:10411000B00DA11D661F829F2227B00DA11D621F39
:10412000739FB00DA11D621F839FA00D611D221FF3
:10413000749F3327A00D611D231F849F600D211DD7
:10414000822F762F6A2F11249F5750409AF0F1F05A
:1041500088234AF0EE0FFF1FBB1F661F771F881FC3
:1041600091505040A9F79E3F510580F00C94CD200E
:104170000C945A205F3FE4F3983ED4F386957795EC
:104180006795B795F795E7959F5FC1F7FE2B880F69
:10419000911D9695879597F9089597F99F6780E8FF
:1041A00070E060E008959FEF80EC089500240A9489
:1041B0001616170618060906089500240A94121602
:1041C0001306140605060895092E0394000C11F435
:1041D000882352F0BB0F40F4BF2B11F460FF04C0E2
:1041E0006F5F7F4F8F4F9F4F089597FB072E16F4F9
:1041F000009407D077FD09D00E940F2107FC05D05D
:104200003EF4909581959F4F0895709561957F4FED
:104210000895EE0FFF1F0590F491E02D0994AA1B5D
:10422000BB1B51E107C0AA1FBB1FA617B70710F0A1
:10423000A61BB70B881F991F5A95A9F780959095D3
:10424000BC01CD010895F999FECF92BD81BDF89AC8
:10425000992780B50895A8E1B0E042E050E00C94C1
:104260004B21262FF999FECF92BD81BDF89A019777
:1042700000B4021639F01FBA20BD0FB6F894FA9AAE
:10428000F99A0FBE08950196272F0E9432210C94AF
:104290003121DC01CB01FC01F999FECF06C0F2BD52
:1042A000E1BDF89A319600B40D9241505040B8F7F4
:0642B0000895F894FFCF11
:1042B6000501C8012808140A321ECC186A193F19CC
:1042C6000919CF1801946697C63435F6F73133329B
:1042D6003600000000000001020304050607080975
:1042E60000404D36B7036A033403E002F9021203B5
:00000001FF
